:020000041000EA
:10100000201B0020A11000100000000000000000C4
:10101000000000800000008000F002F800F030F8CE
:101020000CA030C8083824182D18A246671EAB46FD
:1010300054465D46AC4201D100F022F87E460F3E98
:101040000FCCB6460126334200D0FB1AA246AB466F
:1010500033431847682F0000882F00000023002426
:1010600000250026103A01D378C1FBD8520700D3DF
:1010700030C100D50B6070471FB51FBD10B510BD46
:1010800002F030FF1146FFF7F7FF00F06DF802F0B5
:1010900048FF03B4FFF7F2FF03BC02F04FFF00006C
:1010A0000F4885460F49104A30200A600431401E1F
:1010B000FBD10E4880470E4880470E48004700008D
:1010C000FEE7FEE7FEE7FEE7FEE7FEE700BF70474C
:1010D0000120704708480949094A0A4B7047000037
:1010E000201B00200000002000BFFEE709110010B7
:1010F000CD1000101910001020150020201B00201A
:10110000201700202017002010B5FFF7E1FF10BDC9
:10111000FEB512480768FF2000023840050AFEB2FB
:10112000002D17D0002E05D129460D4802F0A4FC51
:10113000044610E02802801901907D2040060199A4
:1011400002F09AFC00907D21C900009848430446B3
:10115000640A00E0024C03480460FEBD0003014045
:101160000048E8017C01002001F0B4FB01F086FF9B
:1011700002F0CFF901E001F067FEFCE700BF0922B1
:10118000D206926B80231A40002AF8D1F94AD2681D
:101190009B011A43F74BDA60020207231B021A4035
:1011A000CBB21A43F34B40331A60704700BFF1488B
:1011B00080680121C9030840002805D1ED488068F6
:1011C000491008400028F2D0EA48C068032189038A
:1011D0000843E849C860084640697047F7B584B0DD
:1011E0000E461446002002900190009000250390C6
:1011F00000270498422878D1DF494870802E75D1A5
:101200004870230002F0CCFE070517293B4D5F73A1
:101210008500062508E03846791CCFB2D749085C1E
:10122000D5494855681CC5B20D2DF4DB012003904B
:10123000072002906EE0062508E03846791CCFB200
:10124000CF49085CCC494855681CC5B2112DF4DB68
:10125000012003900B2002905CE0062508E0384650
:10126000791CCFB2C749085CC3494855681CC5B250
:10127000112DF4DB012003900B2002904AE006259B
:1012800008E03846791CCFB2BF49085CBA494855D6
:10129000681CC5B20B2DF4DB0120039005200290E1
:1012A00038E0062508E03846791CCFB2B749085C1B
:1012B000B1494855681CC5B2112DF4DB01200390DB
:1012C0000B20029026E0062508E03846791CCFB2B4
:1012D000AF49085CA8494855681CC5B2112DF4DB1C
:1012E000012003900B20029014E029E113E0062571
:1012F00008E03846791CCFB2A049085C9E494855A1
:10130000681CC5B20D2DF4DB01200390072002906C
:1013100000E000BFFAE2FF200130864278D142208F
:1013200095494870230002F03BFE060416283A4C0B
:101330005E71062508E03846791CCFB28F49085CFB
:101340008D494855681CC5B20D2DF4DB0120039072
:10135000072002905BE0062508E03846791CCFB2F2
:101360008749085C84494855681CC5B2112DF4DBD7
:10137000012003900B20029049E0062508E0384642
:10138000791CCFB27F49085C7B494855681CC5B2BF
:10139000112DF4DB012003900B20029037E006258D
:1013A00008E03846791CCFB27749085C7249485545
:1013B000681CC5B20B2DF4DB0120039005200290C0
:1013C00025E0062508E03846791CCFB26F49085C55
:1013D00069494855681CC5B2112DF4DB0120039002
:1013E0000B20029013E0062508E03846791CCFB2A6
:1013F0006749085C60494855681CC5B2112DF4DB8B
:10140000012003900B20029001E001E000BF7DE28B
:10141000FF20813086421DD1422057494870012C5F
:101420000AD1BF208871AA20C87100200872032049
:1014300002900120039069E2002CE8D1B9204E49C6
:101440008871D820C8710020087203200290012002
:1014500003905BE20520C001864225D14220464927
:101460004870012C0ED1D5208871FD20C871D7207D
:101470000872AA204872002088720520029001207C
:10148000039043E2002CC2D1B7203B498871B420BD
:10149000C871D7200872AA204872002088720520DF
:1014A00002900120039031E20320000286421DD108
:1014B000422031494870012C0AD1BF208871AA20EE
:1014C000C8710020087203200290012003901DE2E1
:1014D000002C9CD1B92028498871D820C8710020DF
:1014E000087203200290012003900FE20720C00140
:1014F00086428CD1422020494870012C0ED1D52043
:101500008871FD20C871D7200872AA204872002077
:1015100088720520029001200390F7E1002C8AD107
:10152000B72015498871B420C871D7200872AA2045
:101530004872002088720320029001200390E5E1A8
:1015400004983D2874D10C4948701249701A8E4293
:1015500041D00DDC1048301A030002F021FD0F2AA3
:10156000BB57BB60BB6ABB73BB7CBB85BB33BB00DB
:10157000103813E04000004841020020AC01002078
:10158000800100208B010020B30100209601002083
:10159000A10100201000080000000800030002F074
:1015A000FFFC0D6C9975997E998799909923992CD8
:1015B00099002012FA498871CC7102200290012012
:1015C000039088E02012F6498871CC7102200290C5
:1015D000012003907FE02012F1498871CC71022034
:1015E00002900120039076E02012ED498871CC71C1
:1015F00002200290012003906DE02012E8498871DA
:10160000CC71022002900120039064E02012E44992
:101610008871CC7102200290012003905BE02012BF
:10162000DF498871CC71022002900120039052E0C2
:1016300052E02012DA498871CC7102200290012018
:10164000039048E02012D6498871CC7102200290A4
:10165000012003903FE02012D1498871CC71022013
:1016600002900120039036E02012CD498871CC71A0
:1016700002200290012003902DE02012C8498871B9
:10168000CC71022002900120039024E02012C44972
:101690008871CC7102200290012003901BE020127F
:1016A000BF498871CC71022002900120039012E0A2
:1016B0002012BB498871CC71022002900120039056
:1016C00009E02012B6498871CC71022002900120F5
:1016D000039000E000BF19E1049844286AD1B148A2
:1016E00086420DD14420AE49487000208871C871EF
:1016F000201208724C72042002900120039005E130
:10170000A848001D86420DD14420A54948700020FC
:101710008871C871201208724C7204200290012056
:101720000390F3E09F48083086420DD144209C4945
:10173000487000208871C871201208724C72042011
:10174000029001200390E1E096480C3086420DD1D2
:1017500044209349487000208871C8712012087293
:101760004C720420029001200390CFE08D4810308D
:1017700086420DD144208A49487000208871C87182
:10178000201208724C720420029001200390BDE0E8
:101790008448143086429ED14420814948700020FC
:1017A0008871C871201208724C72042002900120C6
:1017B0000390ABE004983B2879D17B48864216D150
:1017C000012C08D1012003903B207549487001206D
:1017D000887102909AE0002C08D1012003903B20F0
:1017E0006F49487000208871012002908EE06E4899
:1017F000401C864216D1012C08D1012003903B20C9
:10180000674948700120887102907FE0002C7DD1EB
:10181000012003903B20624948700020887101201C
:10182000029073E06048801C864216D1012C08D1DA
:10183000012003903B205A49487001208871029092
:1018400064E0002C62D1012003903B205449487091
:10185000002088710120029058E05348C01C864245
:1018600016D1012C08D1012003903B204C4948702F
:1018700001208871029049E0002C47D1012003909B
:101880003B204749487000208871012002903DE0CC
:101890004548001D864217D1012C09D10120039033
:1018A0003B203F4948700120887102902EE026E0DD
:1018B000002C2BD1012003903B2039494870002097
:1018C00088710120029021E03748401D86421DD1D9
:1018D000012C08D1012003903B20314948700120A0
:1018E0008871029012E0002C10D1012003903B205F
:1018F0002B494870002088710120029006E004986E
:10190000702803D1264948700220039003980128CB
:1019100029D100200390AA2021490870300E887038
:10192000FF2000043040000CC870FF20000230404F
:10193000000A08714E71CC210298801D184A11547A
:1019400033210298C01D1154C3210298083011544C
:101950003C2102980930115402980A30C0B201901B
:101960000120009014E00398022811D1AA200C490C
:10197000087020128870CC70CC2008713320487118
:10198000C32088713C20C87108200190012000907C
:101990000098012813D10020009000250CE00000E1
:1019A00041020020E0FF020000FFFF00FE49485D09
:1019B00001F088FA681CC5B201988542F6DB002068
:1019C00007B0F0BDF8B505460E46174600243F2087
:1019D000F649087008464570002088700846C670B1
:1019E000DD2008713D20487100BF05E0EF49085D2A
:1019F00001F057FA601CC4B2062CF7DB0020F8BDDA
:101A0000F0B585B00446EA49601C085C049004986F
:101A1000772879D1A01CE7490840E549085C0028EF
:101A200073D1E01CE3490840E149085C0828F7D17C
:101A3000A01D085CE0490870DD49E01D085CDE4936
:101A40004870DB49601D085C03900398123803005E
:101A500002F0A6FA0D08951E95359547955C956F91
:101A600095829500D548006800280DD1D24840786D
:101A7000D3490870D0484278D2493D20FFF7AEFBE9
:101A80000120D149086002E00020CB49487077E08E
:101A9000CA48006801280ED1C7484078C849487034
:101AA000C5484278C749891C3D20FFF797FB0020B5
:101AB000C549086002E00020BF49487060E0BE48A8
:101AC0004078BF498870BC484278BE490A393D20F9
:101AD000FFF784FBB8484278BC494420FFF77EFBFF
:101AE0004EE0B5484078B649C870B3484278B54929
:101AF00008393D20FFF772FBAF484278B349091D12
:101B00004420FFF76BFB3BE008E13EE0AA48407849
:101B1000AB490871A8484278AA49891F3D20FFF7C0
:101B20005DFBA5484278A94908314420FFF756FBE0
:101B300026E0A1484078A24948719F484278A149CF
:101B4000091F3D20FFF74AFB9B4842789F490C3113
:101B50004420FFF743FB13E0974840789849887189
:101B6000954842789749891E3D20FFF737FB9248F8
:101B70004278964910314420FFF730FB00E000BF67
:101B800000BF20460C300290BFE2A01C89490840EB
:101B90008749085C0028F7D1E01C86490840844941
:101BA000085C0228F0D1201D824908408049085C69
:101BB000FF28E9D1601D0D5CF02D5CD006DCE02D26
:101BC00009D0E42D1DD0E82D1AD137E0F42D70D0C6
:101BD000F82DF9D18AE07E480068002801D1012063
:101BE00000E000207A49086000227A493B20FFF794
:101BF000F5FA79480278744801780120FFF7E2FE8F
:101C00008BE073484068002801D1012000E00020EB
:101C10006F49486000226F49491C3B20FFF7DEFAFC
:101C200001226C49891C3B20FFF7D8FA6A480278E8
:101C3000654801780020FFF7C5FE6EE064488068C3
:101C4000002801D1012000E00020614988600022C5
:101C50006049891C3B20FFF7C1FA01225D49C91C7C
:101C60003B20FFF7BBFA5C48027857480178002018
:101C7000FFF7A8FE51E05648C068002801D10120B6
:101C800000E000205249C86000225249C91C3B2094
:101C9000FFF7A4FA01224F49091D3B20FFF79EFAE6
:101CA0004D480278484801780120FFF78BFE34E068
:101CB000FFE747480069002801D1012000E000202B
:101CC0004349086100224349091D3B20FFF786FA7A
:101CD00001224049491D3B20FFF780FA3E48027827
:101CE000394801780020FFF76DFE16E0384840695A
:101CF000002801D1012000E0002035494861002280
:101D00003449491D3B20FFF769FA334802782E48D1
:101D100001780120FFF756FE00BFF6E1049878280D
:101D20006FD12349E01C0D5C201D0E5C002D2AD1D3
:101D3000002E02D0012E25D120E002202749086084
:101D4000002280214220FFF749FA0022FF210131C1
:101D50004220FFF743FA20221A490C393D20FFF7B1
:101D60003DFA0122032109024220FFF737FA01223E
:101D70000721C9014220FFF731FA03E0012017498A
:101D8000086000BFB7E1012D76D1330002F008F9F9
:101D90000B98B6B6074F8A915F75B6A7B6000E4886
:101DA0000278094801781BE041020020FC01002074
:101DB000E8060020FF4F0000CE010020F0010020C7
:101DC000D00100200E000800DC010020E4FF02002A
:101DD000BC06002000FFFF00E4010020F401002009
:101DE0000020FFF7EFFDF848006800280AD1F74807
:101DF00040783C2148430246F5494420FFF7EEF97C
:101E000003E07EE10020F04908600122F1493B2017
:101E1000FFF7E4F90122FF2181314220FFF7DEF9CB
:101E200001220521C9014220FFF7D8F966E0EA48FE
:101E30000278EA4801780120FFF7C4FD0022E54955
:101E40003B20FFF7CBF90120DF49086056E0E2486C
:101E5000006801280FD10020DF4908600846027899
:101E6000DE4801780220FFF7ADFD01220521C901FE
:101E70004220FFF7B3F941E041E0D748006800286D
:101E800009D10120D449086008460278D348017876
:101E90000220FFF797FD00220521C9014220FFF72C
:101EA0009DF92BE0CD48017801220220FFF78AFD41
:101EB00024E0CA48017800220220FFF783FD1DE0DC
:101EC0000020C74908600122C6493D20FFF786F976
:101ED0000022C449891C3D20FFF780F90EE0012053
:101EE000BF4908600122BF49891C3D20FFF776F9F0
:101EF0000022BC493D20FFF771F900BFFBE0022D35
:101F00004FD1330002F04CF8074C444C051E363DCF
:101F10004C00B1480278B14801780020FFF752FD2B
:101F2000B1484068002801D1012000E00020AE49FE
:101F300048600846808882B2A649491C3B20FFF7CA
:101F40004DF92DE0A4480278A44801780120FFF75C
:101F500039FD00270BE0B800A3490858012805D136
:101F60009C48391800223B20FFF738F97F1C052FC9
:101F7000F1DB15E09948017801220220FFF722FDEC
:101F80000EE09648017800220220FFF71BFD07E0D3
:101F900091480278914801780120FFF713FD00BFB6
:101FA000A9E0032DAAD1701F030001F0F9FF070576
:101FB0001A2F4459A26EA3008C480068002801D152
:101FC000012000E00020894908600020884908605D
:101FD0008648008882B283490A393D20FFF7FEF81F
:101FE00088E082484068002801D1012000E00020FC
:101FF0007E49486001207E4908607C48808882B222
:10200000784908393D20FFF7E9F873E077488068A0
:10201000002801D1012000E00020744988600220DE
:10202000734908607148008982B26E49891F3D205A
:10203000FFF7D4F85EE06D48C068002801D10120A8
:1020400000E000206949C8600320694908606748CA
:10205000808982B26349091F3D20FFF7BFF849E03C
:1020600062480069002801D1012000E000205F499A
:10207000086104205E4908605C48008A82B25949C0
:10208000891E3D20FFF7AAF834E0002700200190C8
:10209000009013E0B8005549085801280DD1009868
:1020A000401C0090781C01998900524A505005212B
:1020B0000198401C01F0EAFC01917F1C052FE9DB2F
:1020C000009804E0002182004A4B9950401C0528EA
:1020D000F8DB4848008882B280214220FFF77EF872
:1020E0004448808882B2FF2101314220FFF776F810
:1020F00000E000BF00BF204609303F490840029081
:1021000003E0601C3C4908400290029805B0F0BD15
:10211000FEB53A4804683A480568A54203D2012052
:1021200080022F1800E02F460020019000BF3548A4
:10213000005D00900098AA2845D13249601C0E5CD1
:10214000772E61D1381B0B283AD320460830085C23
:10215000CC2815D120460930085C332810D1204600
:102160000A30085CC3280BD120460B30085C3C28A1
:1021700006D12046FFF744FC204908600120019069
:10218000204920460A30085CCC2816D120460B3066
:10219000085C332811D120460C30085CC3280CD1D0
:1021A00020460D30085C3C2807D12046FFF728FC6C
:1021B000124908600120019060E0022001905DE07A
:1021C000032001905AE055E0D8010020CE01002004
:1021D000E0FF020000FFFF00E4010020DC0100201E
:1021E000F00100202A000800BC060020A8060020FC
:1021F000F8010020D4060020FF4F00000802002054
:102200000C020020E8060020782E22D1381B082876
:102210001CD3A049601D085CCC2814D1A01D085C0B
:10222000332810D1E01D085CC3280CD120460830AB
:10223000085C3C2807D12046FFF7E2FB964908607E
:10224000012001901AE00220019017E00320019084
:1022500014E0432E07D12046FFF7D2FB8E490860D9
:10226000012001900AE0002E08D0601C8B49084034
:10227000044603E0601C894908400446AC4203D090
:102280000198002800D152E70198002802D0019857
:10229000022801D180480560FEBD0EB580A207CAA4
:1022A00002920191009081480068814908600EBD4A
:1022B000F7B584B00D461446002600200290019028
:1022C000002703900090049844282DD17948854236
:1022D00013D1442078494870200E8871FF200004F3
:1022E0002040000CC871FF2000022040000A087244
:1022F0004C7204260120039016E06E48001D8542B2
:1023000012D144206C494870200E8871FF200004CF
:102310002040000CC871FF2000022040000A087213
:102320004C720426012003900398012824D1002038
:102330000390AA2060490870280E8870FF200004CE
:102340002840000CC870FF2000022840000A0871D5
:102350004D71CC21B01D584A11543321F01D115438
:10236000C321401C11543C21401C1154401CC0B2DC
:1023700002900120019015E00398022812D1AA20B2
:102380004D4908702004000E8870CC70CC20087174
:1023900033204871C32088713C20C8710820029006
:1023A00001200190019801280CD100200190002704
:1023B00005E04149C85D00F085FD781CC7B2029870
:1023C0008742F6DB002007B0F0BD10B501F019F927
:1023D0003A4908700A213948007801F057FB05296D
:1023E00008DB0A21354800780A3001F04FFB3349F9
:1023F000087006E00A213148007801F047FB2F49B8
:1024000008702E4802782E493D20FEF7E7FE10BDE9
:1024100070B505460C46022C06D1002029490870EB
:1024200048708870C87006E0A878264908700020B7
:1024300048708870C870244844700821214800F012
:1024400052FD22490860084600781E4988701F48DE
:1024500000880004000EC87002201D49088000207A
:102460001C49088010E01B4801880088401C194A5C
:1024700010801448415C1448154A1288815414484D
:102480000088401C12490880114800880628EADBB1
:1024900070BD0000E806002008020020FF4F000089
:1024A000000102053F55CC33CD000000140200208E
:1024B00010020020E0FF020041020020BC010020C9
:1024C00000080800B8010020C8010020C401002055
:1024D000BE010020C0010020C020DF494862DF4863
:1024E000DF49086000BFDE48006801218907084015
:1024F0000028F8D1C320D8494862DA48006803218F
:1025000089038843012189030843D64908600846A6
:102510000068032189038843D2490860084600689F
:10252000032109038843012109030843CD490860B9
:102530000846C069032109028843FF21013108438D
:10254000C849C8610846C0694008400001210843E5
:10255000C449C8610846C06904218843C149C861AB
:102560000846C069082188430843BE49C861084637
:10257000C06970218843BB49C8610846006A3021A0
:10258000884310210843B749086200BFB648006A73
:1025900089158843B449086200BF0020B249403918
:1025A0008969F8229143B04A403A9161114689699C
:1025B0000143916100BF00BFAB48006A51158843D9
:1025C000A949086200BF0020114689691F22D20272
:1025D0009143A54A403A916111468969020211432B
:1025E000A14A403A916100BF0320002805DBC206E2
:1025F000D20E012191409D4A116000BF03200028A6
:1026000005DBC206D20E01219140994A116000BF3C
:10261000704710B500F012F9002870D100F015F9DC
:1026200000287ED193480068012820D19248006894
:1026300000280BD191480078401CC0B28F49087027
:1026400002468F493D20FEF7C9FDF0E08A48006848
:102650000128FAD189484078401CC0B287494870A7
:1026600002468749891C3D20FEF7B8FDDFE081481E
:1026700000680228E9D18348006800280CD17F480F
:102680008078401CC0B27D49887002467C490A3976
:102690003D20FEF7A3FDCAE07A48006801280CD16E
:1026A0007648C078401CC0B27449C870024674496C
:1026B00008393D20FEF792FDB9E072480068022813
:1026C0000CD16E480079401CC0B26C4908710246BA
:1026D0006B49891F3D20FEF781FDA8E0694800682D
:1026E00003280DD165484079401CC0B26349487148
:1026F00002466349091F3D20FEF770FD97E010E098
:10270000604800680428A0D15C488079401CC0B2B1
:102710005A49887102465A49891E3D20FEF75EFDDE
:1027200085E000F08BF8FF21013188427FD100F075
:102730008CF800287BD14F48006801281FD14E48F3
:10274000006800280BD14D480078401EC0B24B49AC
:10275000087002464A493D20FEF740FD0FE046481A
:10276000006801280BD145484078401EC0B243495B
:10277000487002464249891C3D20FEF72FFD3D4826
:102780000068022853D13F48006800280CD13B481C
:102790008078401EC0B239498870024638490A39EB
:1027A0003D20FEF71BFD42E03648006801280CD1B1
:1027B0003248C078401EC0B23049C8700246304925
:1027C00008393D20FEF70AFD31E02E480068022856
:1027D0000CD12A480079401EC0B22849087102462F
:1027E0002749891F3D20FEF7F9FC20E025480068B5
:1027F00003280CD121484079401EC0B21F494871BE
:1028000002461F49091F3D20FEF7E8FC0FE01D4866
:10281000006804280BD119488079401EC0B21749BE
:10282000887102461649891E3D20FEF7D7FC0D48E7
:102830004069802188430B49486110BD0A484038EF
:10284000406AFF2101310840704707484038406A1C
:102850000121490208407047000001400004F03F98
:1028600000030140000601404002044080E200E015
:1028700000E100E0F4010020F0010020D001002080
:102880000E000800F80100208020114909691F226C
:10289000D20291430E4A11611146096902021143A5
:1028A0000B4A116100BF00BF114609691F22D20403
:1028B0009143074A11611146096902041143044A10
:1028C000116100BF00BF04201146486000BF70477F
:1028D0000000044010B500F04DF900F05DF8FEF77F
:1028E00017FCC02025494862042025490861254875
:1028F0000860C3202149486200F0D6FC00F015FDB5
:1029000000F06EFD152000F02FF8152000F023F8E0
:10291000162000F029F8162000F01DF8FFF7DCFD66
:10292000FFF7B2FF10BD00BF17481849486000BF4D
:102930008020096949014909144A11611146096950
:1029400002061143114A116100BF00BF0820114661
:10295000486000BF7047002805DBC206D20E012187
:1029600091400B4A11607047002805DBC206D20E69
:1029700001219140074A11607047000000000140AA
:10298000000301400004F03F020002000000044088
:1029900000E100E080E200E010B5C020FE4948629E
:1029A000FE48006908210843FC490861FC480860AA
:1029B00000BFFA4800680121890708400028F8D1C3
:1029C000C320F5494862B820F6490969F8229143C5
:1029D000F44A1161114609690143116100BF0020E9
:1029E000114609691F22D2029143EE4A1161114634
:1029F000096902021143EB4A116100BF0920C006B8
:102A0000C068032108430921C906C8600846006957
:102A10000321890388430121C90308430921C90609
:102A2000086108460069800A8002DF4908430921DD
:102A3000C90608610846C069032108430921C9067F
:102A4000C861084640690321090288430921C90673
:102A50004861084640691F2189028843092189028B
:102A600008434904486108464069D04908400321A9
:102A7000090408430921C90648610846406B022140
:102A8000884308430921C90648630846406B03216F
:102A900009028843911508430921C906486308467D
:102AA000406B3F2109048843072109040843092199
:102AB000C90648630846406B0F2109068843072171
:102AC000090608430921C90648630846806B0321AB
:102AD00089028843111508430921C90688630846FD
:102AE000806B9115884308430921C906886308460D
:102AF000C06B40084000012108430921C906C86392
:102B00000846C06B022188430921C906C8630846EC
:102B1000C06B1F2109028843092109020843C90427
:102B2000C863A34880680121490388430843A0493A
:102B300088600846006800090001022108439C499A
:102B40000860084600680321090288439849086024
:102B5000084600680902884308439549086095487B
:102B60000921C90688610B2000F00EFA0B2000F045
:102B700002FA10BD10B5C020874948628748006935
:102B800008210843854908618548086000BF8348DB
:102B900000680121890708400028F8D1C3207E4938
:102BA0004862B8207F4909691F22D20491437D4AB7
:102BB000116111460969020411437A4A116100BF8B
:102BC0000020114609694901490911611146096945
:102BD00002061143734A116100BF7748C069C008FB
:102BE000C000012108437449C8610846C069012139
:102BF00008437149C8610846C068032108436E490B
:102C0000C860084600690321890388430121C9037C
:102C100008436949086108460069800A80026249E0
:102C20000843654908610846406903210902884351
:102C300061494861084640691F218902884309218A
:102C4000890208435C494861084640695749084081
:102C5000032109040843584948610846406B022192
:102C600088430843544948630846406B03210902DE
:102C7000884391150843504948630846406B3F21FB
:102C8000090488430721090408434B49486308465F
:102C9000406B0F210906884307210906084346496E
:102CA00048630846806B0321890288431115084355
:102CB000414988630846806B9115884308433E4923
:102CC00088630846C06B40084000012108433A4928
:102CD000C8630846C06B022188433749C863084669
:102CE000C06B1F21090288430921090208433249A8
:102CF000C863314840308068012149038843084354
:102D00002D49403188600846006800090001022111
:102D10000843294940310860084600680321090238
:102D2000884325494031086008460068012189032D
:102D30008843084320494031086020481E49886183
:102D40000C2000F021F90C2000F015F910BD1848F6
:102D50008068012189030840800B002842D0144874
:102D6000C06888431249C860084640691449154A3A
:102D7000126888540E484069134908801148006859
:102D8000401C1049086008460068012189028842F9
:102D90001DD300200B4919E0000001400003014051
:102DA0000004F03F000104404E020000FFFF00FC61
:102DB0004000004822220200000200483333030092
:102DC000E80600200C0200201A0200200860002003
:102DD000724908707248C0684008400001210843E9
:102DE0006F49C86070476F488068012189030840B7
:102DF000800B002827D06B48C06888436949C860A9
:102E0000084640696849694A1268885465484069BB
:102E10006749088065480068401C644908600846A6
:102E2000006801218902884202D300205F490860BE
:102E30000020604908706048C068400840000121D7
:102E400008435D49C860704710B5544800780128B0
:102E500007D15A4800685A490968884201D0FFF7EB
:102E600057F910BD10B553480078012807D15548CF
:102E700000684E490968884201D0FFF70EFA10BD7C
:102E800000BF484989680122520311400029F8D047
:102E90004449C9681143434AD160424940310860FE
:102EA000704700BF3F498968012252031140002941
:102EB000F8D03C49C96811433A4AD1603949403198
:102EC0004860704700BF40498968012252031140A1
:102ED0000029F8D03C49C96811433B4AD1603A49BE
:102EE00040314860704770B502460B4637480021B4
:102EF00013E0555C684000240BE0C507ED0F002D82
:102F000004D04508324E7540284600E04008651C54
:102F1000ECB2082CF1DB4D1CE9B29942E9DB70BD43
:102F200000B585B0034600202A49087009E03F211A
:102F3000684601800121418026480078401C2549CF
:102F40000870244800780928F1DB00202149087026
:102F50000BE02049097849006A46505AFFF790FF74
:102F60001C480078401C1B4908701A4800780A2841
:102F7000EFDB05B000BD002805DBC206D20E012143
:102F80009140154A11607047002805DBC206D20E39
:102F900001219140114A1160704700000402002095
:102FA0000001044840020048E80A00201402002002
:102FB0001A02002005020020000204480802002036
:102FC0000C0200201002002040000048FFFF00001B
:102FD00001A00000BE01002000E100E080E200E06E
:102FE000704700208F49088024E000208E49088027
:102FF00017E08C480088192148438C4940188A49B9
:103000000988405C8749098832225143884A8918D7
:10301000854A12885200885283480088401C8249A1
:103020000880814800881928E3DB7E480088401C1E
:103030007C4908807B4800880428D6DB704710B59F
:1030400000F066FB0A227949002000F0F3FB15220C
:1030500076491931774800F0EDFB1522734932317A
:103060007448153800F0E6FB152270494B31714861
:103070002A3800F0DFFBFFF7B4FF10BD10B52022A7
:1030800091033D20FEF7AAF800226B494420FEF789
:10309000A5F8002269493B20FEF7A0F80022654907
:1030A00023313D20FEF79AF80022624925313D2068
:1030B000FEF794F800225F4941313D20FEF78EF87B
:1030C00000225C493F313D20FEF788F80122FF21B4
:1030D00081314220FEF782F801220521C9014220F8
:1030E000FEF77CF82022534917313D20FEF776F891
:1030F0000122032109024220FEF770F80122072174
:10310000C9014220FEF76AF8002280214220FEF722
:1031100065F8012211024220FEF760F801224549BC
:1031200019313D20FEF75AF8012242491B313D205A
:10313000FEF754F801223F491D313D20FEF74EF8BD
:1031400001223C491F313D20FEF748F80122394950
:1031500021313D20FEF742F80122364935313D202C
:10316000FEF73CF80022334937313D20FEF736F8B0
:103170000122304939313D20FEF730F800222D4937
:103180003B313D20FEF72AF801222A493D313D20FE
:10319000FEF724F8002228494420FEF71FF82022D9
:1031A0002549091D4420FEF719F82022224908313B
:1031B0004420FEF713F820221F490C314420FEF76B
:1031C0000DF820221C4910314420FEF707F8202278
:1031D000194914314420FEF701F8002217493B2019
:1031E000FDF7FCFF00221549491C3B20FDF7F6FFC7
:1031F00000221249891C3B20FDF7F0FF00220F49F5
:10320000C91C3B20FDF7EAFF00220C49091D3B20A9
:10321000FDF7E4FF00220949491D3B20FDF7DEFFD1
:1032200010BD0000BE010020C001002041060020AA
:10323000F2130020EBFF0700E0FF020000FFFF0099
:103240008A48006AC007C00F002812D08748006B68
:103250000121084385490863012085490870834896
:103260008038006940084000012108437F498039C7
:10327000086170477F48006AC007C00F002812D05D
:103280007C48006B012108437A49086301207A4990
:1032900008707648803000694008400001210843EA
:1032A00072498031086170477448C068FF2101315C
:1032B000884308437149C8606C488038406A0009F7
:1032C00000010A2108436949803948620846406B79
:1032D000000C000432210843644980394863674880
:1032E000006940084000012108436449086108461C
:1032F000C06840084000012108436049C8605B483D
:10330000406A400840000121084358494862084685
:10331000806A8008800088625448803800694008CC
:10332000400052498039086170475448C068FF2105
:103330000131884308435149C8604C488030406A95
:10334000000900010A2108434849803148620846C3
:10335000406B000C0004322108434449803148632B
:1033600046480069102188430843444908610846DB
:10337000C0680221884308434049C8603D48406A0C
:1033800040084000012108433A4948620846806AE3
:103390008008800001210843364988623348803024
:1033A000006940084000012108433049803108612C
:1033B00070473348006AC007C00F00280FD030485C
:1033C000006B012108432E4908632A4880300069B8
:1033D00040084000012108432649803108617047B8
:1033E0002648C068FF210131884308432349C8604B
:1033F00020488030406A00090001032108431D492C
:10340000803148620846406B000C000401210843EB
:1034100018498031486319480069FF210131884308
:103420000843164908610846C068042188430843D8
:103430001249C8601248406A400840000121084310
:103440000F4948620846806A8008800001210843CD
:103450000B4988620748803000694008400001211C
:103460000843044980310861704700008001044826
:1034700004020020800204480502002000000448E5
:103480008003044810B50024102000F0F2F800BFBB
:103490008248406AC007C00F8149086004E0601C90
:1034A000C4B2012000F006F900BF7E48406AC007A0
:1034B000C00F002801D0C82CF1DBC82C01DB012093
:1034C00010BD002404E0601CC4B2012000F0F2F83A
:1034D00000BF7448406AC007C00F002801D1F02C1B
:1034E000F1DBF02C01DB0120EAE709206E490870CE
:1034F0000020E5E710B5802000F0BBF800F0C8F828
:103500006A4800F0D7F800F0BFF80F2000F0D2F8BA
:1035100010BD10B500BF63484030006A400840004D
:1035200060494031086200BF802000F0A2F800F03E
:10353000ABF8FFF7DFFFFFF7A5FF10BD10B5802048
:1035400000F097F800F0A4F8022000F0B3F800F0C3
:103550009BF8102000F08DF80C2000F0ABF800BFB5
:103560005048406AC007C00F002801D0012400E085
:103570000024322000F09EF8204610BD70B50026D1
:10358000012508E0FFF7DAFF0446E0017110084367
:10359000C6B2681CC5B2082DF4DD304670BD70B5EA
:1035A0000446802000F065F801251BE0E607F60FD1
:1035B0006410002E0AD000F06BF8022000F07AF8B8
:1035C00000F062F83C2000F075F809E000F060F8C7
:1035D0003C2000F06FF800F057F8022000F06AF885
:1035E000681CC5B2082DE1DD70BD10B5FFF782FF84
:1035F000FFF748FFCC20FFF7D2FF4420FFF7CFFFB3
:1036000010BDF0B585B0FFF7F0FFFFF773FFFFF7D0
:1036100039FFCC20FFF7C3FFBE20FFF7C0FFFFF745
:10362000ADFF0746FFF7AAFF0446072C05DDE04380
:10363000C4B2F843C7B2002600E00126254628029E
:1036400005B2E81905B2284600F01DFB0022184B10
:103650000191009000F022FB0391029000F0BCFA6F
:1036600005B2002E02D0284605B0F0BD684200B277
:10367000FAE70C490969F82291430A4A1161114697
:10368000096901431161704701200649486070478C
:103690000120000403494860704700000000044016
:1036A000240200200002044028020020EE02000054
:1036B0000000E43F002101E000BF491C8142FBDB28
:1036C000704730B5034600240AE0002503E00120DE
:1036D000FFF7F0FF6D1C7D20C0008542F7DB641C06
:1036E0009C42F2DB30BD0948C0684008400001211F
:1036F00008430649C860704700B50246002302E04F
:10370000FFF7F1FF5B1C9342FADB00BD00030448A6
:1037100010B500F0B1F810BD70B50446002600F0F9
:10372000BFF8A02000F028F900F0E0F8201200F027
:1037300023F900F0DBF82546E117090E49190912B3
:103740000902611AC8B200F017F900F0CFF800F0D2
:10375000A7F8A12000F010F900F0C8F8002000F050
:103760003AF9064600F0AFF8304670BD70B5044631
:103770000E4600F095F8A02000F0FEF800F0B6F834
:10378000201200F0F9F800F0B1F82546E117090E13
:10379000491909120902611AC8B200F0EDF800F0E7
:1037A000A5F8304600F0E8F800F0A0F800F08BF83B
:1037B0000A20FFF786FF70BDF8B505460E4617468E
:1037C000002409E0E2003346D340D9B22A1990B26E
:1037D000FFF7CCFF601CC4B2BC42F3DBF8BDF8B508
:1037E00007460C460026002509E036023919491B18
:1037F000491E88B2FFF790FF8619681CC5B2A54222
:10380000F3DB3046F8BD10B5FF20FFF785FF044617
:10381000552C01D1002010BD5521FF20FFF7A6FF38
:10382000FF20FFF779FF0446552C01D10020F2E775
:103830000120F0E770B506460C46154608E0314613
:10384000761C88B2FFF768FF2070641C681E85B282
:10385000002DF4D170BD70B504460D46164605E046
:103860002978A0B2FFF782FF641C6D1C3046711EE0
:103870008EB20028F4D170BD10B580207C49096952
:10388000F82291437A4A1161114609690143116195
:1038900000BF00F0D0F800F0C5F800F0DAF810BD75
:1038A00010B5802000F0C7F800F0D3F800F0BAF8A7
:1038B0000420FFF7FFFE00F0D1F80420FFF7FAFE26
:1038C00000F0B4F810BD10B5802000F0B4F800F09E
:1038D000ADF800F0C3F80420FFF7ECFE00F0A2F80A
:1038E00000F0B7F80420FFF7E5FE10BD10B5002486
:1038F000102000F0A0F800F0ACF80120FFF7DAFE8D
:1039000000F090F80120FFF7D5FE07E0601CC4B27C
:10391000FA2C03DDFFF7D7FF012010BD00F0A3F85C
:103920000028F3D100F082F80020F6E710B500F08F
:103930007DF8802000F07FF800F090F80220FFF77B
:10394000B9FE00F06FF80220FFF7B4FE00F06EF849
:1039500010BD10B500F06AF8802000F06CF800F09F
:1039600078F80220FFF7A6FE00F05CF80220FFF7CF
:10397000A1FE00F05BF810BD70B50446802000F099
:103980005AF800F053F8002522E080202040C011B2
:103990003849087008460078002802D100F05EF827
:1039A00005E034480078012801D100F052F86006A3
:1039B000040E0220FFF77EFE00F034F80220FFF72D
:1039C00079FE00F033F80220FFF774FE681CC5B2E0
:1039D000082DDADB70BD70B505460024102000F01C
:1039E0002AF8002613E000F021F80220FFF762FE1B
:1039F00000F018F86006040E00F035F8002801D039
:103A0000601CC4B20120FFF755FE701CC6B2082E20
:103A1000E9DB002D02D1FFF79CFF01E0FFF786FFF5
:103A2000204670BD01201249486070470120000403
:103A30000F49486070470E4909691F22D20291431D
:103A40000B4A11611146096902021143084A1161CA
:103A50007047022006494860012070470120400459
:103A60000349486070470248406A02210840704795
:103A7000000004402A020020002203098B422CD3BC
:103A8000030A8B4211D300239C464EE003460B43AE
:103A90003CD4002243088B4231D303098B421CD310
:103AA000030A8B4201D394463FE0C3098B4201D302
:103AB000CB01C01A524183098B4201D38B01C01A3A
:103AC000524143098B4201D34B01C01A52410309B1
:103AD0008B4201D30B01C01A5241C3088B4201D360
:103AE000CB00C01A524183088B4201D38B00C01A0D
:103AF000524143088B4201D34B00C01A5241411A34
:103B000000D201465241104670475DE0CA0F00D016
:103B10004942031000D34042534000229C4603090F
:103B20008B422DD3030A8B4212D3FC22890112BA95
:103B3000030A8B420CD3890192118B4208D389016D
:103B400092118B4204D389013AD0921100E0890985
:103B5000C3098B4201D3CB01C01A524183098B4266
:103B600001D38B01C01A524143098B4201D34B014F
:103B7000C01A524103098B4201D30B01C01A5241B2
:103B8000C3088B4201D3CB00C01A524183088B4239
:103B900001D38B00C01A5241D9D243088B4201D3C2
:103BA0004B00C01A5241411A00D2014663465241AD
:103BB0005B10104601D34042002B00D549427047AC
:103BC00063465B1000D3404201B50020C046C046AA
:103BD00002BD70477047704730B50346CA02400DBA
:103BE0001043164D164C0A1502D02043002A06DB5E
:103BF000AA1A002A12DDD040FF2A0BDC30BD520584
:103C0000520D01D140004008AA1A07D4D0404042CA
:103C1000FF2A01DD002030BD0028FCDD4A00002B1A
:103C200001D0012000E00020101801225205D042EE
:103C3000F0D8C817C043604030BD00001E0400002B
:103C4000000000801F22030C02D10F22000402D0CA
:103C5000030E03D004E00020014670470002083A3A
:103C6000030F01D10001121F830F01D18000921EAA
:103C7000002801DB4000521E120551184205C012F7
:103C8000411810467047C10FC90700D040420122B9
:103C900092071143D6E701218907D3E7F0B58B4C92
:103CA0000F09254689B0BD437BD01D092646AE438A
:103CB000FAD00E465E402740F60F3E43254071D0B5
:103CC00024012142FBD0FF24AD19A4042D1B039530
:103CD00001252D05DB02DB0AC9022B43C90A294352
:103CE0001E010901040F130F050121431701880B61
:103CF000820391432D098C46A90B1E438A039543E9
:103D0000B30B9A0396433F09BA0B9403A743029659
:103D10002E467E430497B6464E19D7190C46019697
:103D2000544305977E43371B7646BF1B3601B64684
:103D3000BE0B361900967646BC043719009C01D399
:103D4000641C00946400002F01D001263443029EBD
:103D5000049F754366467E430496760034196E00D0
:103D600034190094029C019E1C196643751BAE46D3
:103D7000069465464519059C05956C43594375465F
:103D80000891691A0191049E01465143A41B0491B4
:103D9000611A009C0791E10605D0610901221143D7
:103DA00002E072E06EE06109089D00272C0A2D06F2
:103DB0006918049D7C412A0A2D066918019D6241FB
:103DC000AC0DAD026D185441079A910D9202551930
:103DD0006141029A644658435443069B059A5A43EC
:103DE000121A131B9A0E9B015B187A41010B0005F6
:103DF000C3185141220A200644195A419A4200D25E
:103E0000491C01204002814203D315230226F643B8
:103E100002E014230326F6432020C51AA9401746C2
:103E2000AF40DA400A4320460399D840091473187A
:103E300019055118039A3843D2075140AC4009D0B4
:103E40000122944006D30022401C5141002C01D194
:103E5000400840001E4A934212D301220398920662
:103E6000904207DB0520400709181A480143C01299
:103E7000414004E0032040070818C10FC907002093
:103E800009B0F0BD0020F107FAE705180C464C41D7
:103E900011486D42A04115D394181A465A410E4854
:103EA000644290410ED301204A004005824209D36A
:103EB0005A00824206D35940C90F084AC907002058
:103EC0001143DDE700200649DAE700000000FF07A4
:103ED000FE070000FFFFFF7F0000E0FF0000F07F13
:103EE0000000F87F754600F025F8AE4605006946EB
:103EF0005346C008C000854618B020B5FDF7EAF863
:103F000060BC00274908B6460026C0C5C0C5C0C56C
:103F1000C0C5C0C5C0C5C0C5C0C5403D49008D466F
:103F2000704710B50446C046C0462046FDF7B1F8BC
:103F300010BD000000487047BC1400200149182043
:103F4000ABBEFEE726000200704770B58C180578FE
:103F5000401C6B075B0F01D10378401C2A1106D16E
:103F60000278401C03E00678401C0E70491C5B1E62
:103F7000F9D12B0705D40023521E0DD40B70491C18
:103F8000FAE70378401CCB1A921C03E01D780D70F1
:103F9000491C5B1C521EF9D5A142D8D3002070BD2C
:103FA00030B47446641E2578641CAB4204D3635D50
:103FB0005B00E31830BC18471D46F8E7DC3F0010F3
:103FC000000000202C0200004A3F00107C4000103E
:103FD0002C020020F41800005C1000108D2F48FE09
:103FE000E70411CA4710E904A920290C0922040991
:103FF0002A2C0924041A20045A2E044132013202C8
:1040000013C3103310043205320632073208320966
:10401000320A1AC520320C320D1AC70C1327291B7D
:1040200010CB086904CB13261029043218690C132D
:104030004F2D1B10E704E924E9041341321B1075CE
:10404000040B1CB3332841580BBACDC3E6B9B4BF37
:10405000ECCBD90B5BC2FD0B7BCDB0163BCDB016C4
:1040600017CEDEB2D9D7F70565D4DDCDA348080158
:0C4070000203040506070C2201000000FA
:0400000510001019BE
:00000001FF
