:020000041000EA
:10100000481B0020A110001000000000000000009C
:10101000000000800000008000F002F800F030F8CE
:101020000CA030C8083824182D18A246671EAB46FD
:1010300054465D46AC4201D100F022F87E460F3E98
:101040000FCCB6460126334200D0FB1AA246AB466F
:1010500033431847F8310000183200000023002401
:1010600000250026103A01D378C1FBD8520700D3DF
:1010700030C100D50B6070471FB51FBD10B510BD46
:1010800003F078F81146FFF7F7FF00F06DF803F072
:1010900090F803B4FFF7F2FF03BC03F097F80000E9
:1010A0000F4885460F49104A30200A600431401E1F
:1010B000FBD10E4880470E4880470E48004700008D
:1010C000FEE7FEE7FEE7FEE7FEE7FEE700BF70474C
:1010D0000120704708480949094A0A4B7047000037
:1010E000481B00200000002000BFFEE7091100108F
:1010F000CD1000101910001048150020481B0020CA
:10110000481700204817002010B5FFF7E1FF10BD79
:10111000FEB512480768FF2000023840050AFEB2FB
:10112000002D17D0002E05D129460D4802F0ECFD08
:10113000044610E02802801901907D2040060199A4
:1011400002F0E2FD00907D21C9000098484304466A
:10115000640A00E0024C03480460FEBD0003014045
:101160000048E8017C01002001F0FCFC02F0CEF810
:1011700002F017FB01E001F0AFFFFCE700BF09221E
:10118000D206926B80231A40002AF8D1FE4AD26818
:101190009B011A43FC4BDA60020207231B021A4030
:1011A000CBB21A43F84B40331A60704700BFF64881
:1011B00080680121C9030840002805D1F2488068F1
:1011C000491008400028F2D0EF48C0680321890385
:1011D0000843ED49C860084640697047F7B584B0D8
:1011E0000E461446002002900190009000250390C6
:1011F00000270498422878D1E4494870802E75D1A0
:101200004870230003F014F8070517293B4D5F735E
:101210008500062508E03846791CCFB2DC49085C19
:10122000DA494855681CC5B20D2DF4DB0120039046
:10123000072002906EE0062508E03846791CCFB200
:10124000D449085CD1494855681CC5B2112DF4DB5E
:10125000012003900B2002905CE0062508E0384650
:10126000791CCFB2CC49085CC8494855681CC5B246
:10127000112DF4DB012003900B2002904AE006259B
:1012800008E03846791CCFB2C449085CBF494855CC
:10129000681CC5B20B2DF4DB0120039005200290E1
:1012A00038E0062508E03846791CCFB2BC49085C16
:1012B000B6494855681CC5B2112DF4DB01200390D6
:1012C0000B20029026E0062508E03846791CCFB2B4
:1012D000B449085CAD494855681CC5B2112DF4DB12
:1012E000012003900B20029014E029E113E0062571
:1012F00008E03846791CCFB2A549085CA349485597
:10130000681CC5B20D2DF4DB01200390072002906C
:1013100000E000BF79E3FF200130864278D142200F
:101320009A494870230002F083FF060416283A4CBD
:101330005E71062508E03846791CCFB29449085CF6
:1013400092494855681CC5B20D2DF4DB012003906D
:10135000072002905BE0062508E03846791CCFB2F2
:101360008C49085C89494855681CC5B2112DF4DBCD
:10137000012003900B20029049E0062508E0384642
:10138000791CCFB28449085C80494855681CC5B2B5
:10139000112DF4DB012003900B20029037E006258D
:1013A00008E03846791CCFB27C49085C774948553B
:1013B000681CC5B20B2DF4DB0120039005200290C0
:1013C00025E0062508E03846791CCFB27449085C50
:1013D0006E494855681CC5B2112DF4DB01200390FD
:1013E0000B20029013E0062508E03846791CCFB2A6
:1013F0006C49085C65494855681CC5B2112DF4DB81
:10140000012003900B20029001E001E000BFFCE20C
:10141000FF20813086421DD142205C494870012C5A
:101420000AD1BF208871AA20C87100200872032049
:10143000029001200390E8E2002CE8D1B920534942
:101440008871D820C8710020087203200290012002
:101450000390DAE20520C001864225D142204B49A3
:101460004870012C0ED1D5208871FD20C871D7207D
:101470000872AA204872002088720520029001207C
:101480000390C2E2002CC2D1B72040498871B42039
:10149000C871D7200872AA204872002088720520DF
:1014A000029001200390B0E20320000286421DD189
:1014B000422036494870012C0AD1BF208871AA20E9
:1014C000C8710020087203200290012003909CE262
:1014D000002C9CD1B9202D498871D820C8710020DA
:1014E000087203200290012003908EE20720C001C1
:1014F00086428CD1422025494870012C0ED1D5203E
:101500008871FD20C871D7200872AA204872002077
:101510008872052002900120039076E2002C8AD187
:10152000B7201A498871B420C871D7200872AA2040
:10153000487200208872032002900120039064E228
:1015400004983D2872D1114948701749701A8E428B
:101550006DD036DC1549701A8E4269D00BDC144808
:10156000301A030002F064FE0B3E9CA79CB09CB9AD
:101570009CC29CCB9C00162876D01DDC02283AD059
:10158000042841D0142815E04000004869020020DA
:10159000AC010020800100208B010020B30100205D
:1015A00096010020A1010020280008000C0008007E
:1015B0000000080074D1B4E0182872D01A28F9D1BC
:1015C000CAE0801E030002F033FE1728FE34FE3D01
:1015D000FE46FE50FE59FE62FE6DFED9FEE2FEEBB7
:1015E000FEF5FE002012FC498871CC7102200290A9
:1015F00001200390E8E02012F7498871CC710220A5
:10160000029001200390DFE02012F3498871CC7131
:101610000220029001200390D6E02012EE4988714A
:10162000CC710220029001200390CDE0CDE09CE03F
:101630006EE02012E8498871CC71022002900120EE
:101640000390C1E02012E4498871CC71022002901D
:1016500001200390B8E02012DF498871CC7102208C
:10166000029001200390AFE064E02012DA49887113
:10167000CC710220029001200390A5E02012D649EF
:101680008871CC7102200290012003909CE020120E
:10169000D1498871CC71022002900120039093E01F
:1016A00091E050E02012CC498871CC710220029068
:1016B0000120039088E02012C7498871CC71022074
:1016C0000290012003907FE02012C3498871CC7101
:1016D000022002900120039076E02012BE4988711A
:1016E000CC7102200290012003906DE02012BA49D3
:1016F0008871CC71022002900120039064E02012D6
:10170000B5498871CC7102200290012003905BE002
:101710002012B1498871CC710220029001200390FF
:1017200052E02012AC498871CC7102200290012055
:10173000039049E02012A8498871CC7102200290E0
:101740000120039040E02012A3498871CC7102204F
:1017500002900120039037E020129F498871CC71DC
:1017600002200290012003902EE020129A498871F5
:10177000CC71022002900120039025E020129649AE
:101780008871CC7102200290012003901CE020128D
:1017900091498871CC71022002900120039013E0DE
:1017A00020128D498871CC71022002900120039093
:1017B0000AE0FFE7201288498871CC71022002906C
:1017C0000120039000E000BF1FE1049844286AD183
:1017D000824886420DD144207F494870002088719C
:1017E000C871201208724C720420029001200390EC
:1017F0000BE17A48001D86420DD14420764948709D
:1018000000208871C871201208724C720420029066
:1018100001200390F9E07148083086420DD1442040
:101820006D49487000208871C871201208724C728E
:101830000420029001200390E7E068480C308642C3
:101840000DD144206449487000208871C87120126D
:1018500008724C720420029001200390D5E05F488A
:10186000103086420DD144205B49487000208871B9
:10187000C871201208724C7204200290012003905B
:10188000C3E05648143086429ED1442052494870E5
:1018900000208871C871201208724C7204200290D6
:1018A00001200390B1E004983B2879D14C4886424E
:1018B00016D1012C08D1012003903B2046494870E5
:1018C000012088710290A0E0002C08D10120039033
:1018D0003B2041494870002088710120029094E02B
:1018E0003F48401C864216D1012C08D101200390AC
:1018F0003B203949487001208871029085E0002C16
:1019000008D1012003903B203349487000208871A2
:101910000120029079E03248801C864216D1012CC9
:1019200008D1012003903B202B4948700120887189
:1019300002906AE0002C68D1012003903B202649E8
:10194000487000208871012002905EE02448C01C8D
:10195000864216D1012C08D1012003903B201E495C
:1019600048700120887102904FE0002C4DD1012079
:1019700003903B2018494870002088710120029094
:1019800043E01748001D864217D1012C09D10120E0
:1019900003903B201049487001208871029034E088
:1019A0002CE0002C31D1012003903B200A494870E3
:1019B000002088710120029027E00948401D8642DE
:1019C00023D1012C0ED1012003903B200249487005
:1019D00001208871029018E069020020E0FF0200F7
:1019E00000FFFF00002C10D1012003903B20FB4999
:1019F0004870002088710120029006E00498702849
:101A000003D1F6494870022003900398012829D198
:101A100000200390AA20F1490870300E8870FF2042
:101A200000043040000CC870FF2000023040000A63
:101A300008714E71CC210298801DE84A115433215F
:101A40000298C01D1154C3210298083011543C2142
:101A500002980930115402980A30C0B20190012056
:101A6000009014E00398022811D1AA20DB490870E5
:101A700020128870CC70CC20087133204871C320AC
:101A800088713C20C87108200190012000900098C6
:101A900001280CD100200090002505E0CF49485DC9
:101AA00001F058FB681CC5B201988542F6DB0020A6
:101AB00007B0F0BDF8B505460E46174600243F2096
:101AC000C749087008464570002088700846C670EF
:101AD000DD2008713D20487100BF05E0C049085D68
:101AE00001F027FB601CC4B2062CF7DB0020F8BD18
:101AF000F0B585B00446BB49601C085C04900498AE
:101B0000772879D1A01CB8490840B649085C00285C
:101B100073D1E01CB4490840B249085C0828F7D1E9
:101B2000A01D085CB1490870AE49E01D085CAF49D2
:101B30004870AC49601D085C03900398123803009C
:101B400002F076FB0D08951E95359547955C956FCF
:101B500095829500A648006800280DD1A3484078DA
:101B6000A4490870A1484278A3493D20FFF736FBFD
:101B70000120A249086002E000209C49487077E0FB
:101B80009B48006801280ED19848407899494870D0
:101B9000964842789849891C3D20FFF71FFB00209A
:101BA0009649086002E000209049487060E08F4844
:101BB0004078904988708D4842788F490A393D2095
:101BC000FFF70CFB894842788D494420FFF706FB5C
:101BD0004EE0864840788749C870844842788649F4
:101BE00008393D20FFF7FAFA804842788449091DF8
:101BF0004420FFF7F3FA3BE021E13EE07B484078E8
:101C00007C490871794842787B49891F3D20FFF75C
:101C1000E5FA764842787A4908314420FFF7DEFA3F
:101C200026E072484078734948717048427872499A
:101C3000091F3D20FFF7D2FA6C48427870490C31F9
:101C40004420FFF7CBFA13E068484078694988716F
:101C5000664842786849891E3D20FFF7BFFA63480D
:101C60004278674910314420FFF7B8FA00E000BF1E
:101C700000BF20460C300290A0E3A01C5A49084047
:101C80005849085C0028F7D1E01C574908405549DD
:101C9000085C0228F0D1201D534908405149085CD6
:101CA000FF28E9D1601D0D5CF02D5CD006DCE02D35
:101CB00009D0E42D1DD0E82D1AD137E0F42D70D0D5
:101CC000F82DF9D1A4E04F480068002801D1012087
:101CD00000E000204B49086000224B493B20FFF701
:101CE0007DFA4A480278454801780120FFF7E2FE74
:101CF000A4E044484068002801D1012000E0002011
:101D00004049486000224049491C3B20FFF766FAE1
:101D100001223D49891C3B20FFF760FA3B480278CD
:101D2000364801780020FFF7C5FE87E03548806817
:101D3000002801D1012000E0002032498860002203
:101D40003149891C3B20FFF749FA01222E49C91C61
:101D50003B20FFF743FA2D480278284801780020FD
:101D6000FFF7A8FE6AE02748C068002801D10120DB
:101D700000E000202349C86000222349C91C3B2001
:101D8000FFF72CFA01222049091D3B20FFF726FA14
:101D90001E480278194801780120FFF78BFE4DE0BC
:101DA000FFE718480069002801D1012000E0002069
:101DB0001449086100221449091D3B20FFF70EFA5F
:101DC00001221149491D3B20FFF708FA0F4802780C
:101DD0000A4801780020FFF76DFE2FE0690200201D
:101DE0002402002010070020FF4F0000CE01002039
:101DF000F8010020D00100200E000800D8010020CA
:101E0000E4FF0200E406002000FFFF00E0010020E4
:101E1000F7484069002801D1012000E00020F44982
:101E200048610022F3493B20FFF7D8F9F2480278D5
:101E3000F24801780120FFF73DFE00BFBEE20498A2
:101E4000782879D1EE49E01C0D5C201D0E5C002D38
:101E500029D1002E02D0012E24D11FE00220E94911
:101E60000860002280214220FFF7B8F90022FF21FC
:101E700001314220FFF7B2F92022E3493D20FFF76C
:101E8000ADF90122032109024220FFF7A7F901223F
:101E90000721C9014220FFF7A1F903E00120D94938
:101EA000086000BF80E2012D7ED1330002F0C0F94E
:101EB0000BEA43430745B8D1689143FB4300012037
:101EC000D24908600020D24908600122CE492C3155
:101ED0003D20FFF783F90022CB492E313D20FFF74B
:101EE0007DF9C5480278C54801780020FFF7E2FD7A
:101EF000C8480068002809D1C74840783C214843B9
:101F00000246C6494420FFF769F902E00020C149B2
:101F100008600122B749491F3B20FFF75FF9012202
:101F2000FF2181314220FFF759F901220521C90122
:101F30004220FFF753F9C6E03CE20120B4490860B3
:101F40000020B24908600022AF492C313D20FFF744
:101F500045F90122AC492E313D20FFF73FF9A64853
:101F60000278A64801780120FFF7A4FD0022A149CC
:101F7000491F3B20FFF732F90120A6490860A2E083
:101F80000120A74908600020A649086001229E4957
:101F900030313D20FFF722F900229B4932313D20AC
:101FA000FFF71CF9944800E08EE0006801280FD18B
:101FB0000020914908600846027890480178022084
:101FC000FFF778FD01220521C9014220FFF706F93C
:101FD00079E00020924908600120924908600122BE
:101FE000894932313D20FFF7F9F800228649303126
:101FF0003D20FFF7F3F880480068002809D1012050
:102000007D490860084602787C4801780220FFF785
:1020100051FD00220521C9014220FFF7DFF852E0FF
:10202000012081490860002080490860012276492A
:1020300034313D20FFF7D2F80022734936313D207C
:10204000FFF7CCF86D48017801220220FFF732FD3E
:1020500039E00120754908600020734908600122B9
:10206000694936313D20FFF7B9F80022664934311D
:102070003D20FFF7B3F86148017800220220FFF706
:1020800019FD20E000206A49086001225E492831DC
:102090003D20FFF7A3F800225B492A313D20FFF7DE
:1020A0009DF810E0FFE701206149086001225649D0
:1020B0002A313D20FFF792F80022534928313D2074
:1020C000FFF78CF800BF6FE1022D76D1330002F0EC
:1020D000AFF807C1B9C105305B75C1000120554992
:1020E0000860002054490860012247493C313D20E6
:1020F000FFF774F8002244493E313D20FFF76EF8A7
:102100003D4802783D4801780020FFF7D3FC38486D
:102110004068002801D1012000E0002034494860D7
:102120000846808882B23349091F3B20FFF756F8E2
:1021300090E000203F49086001203F4908600022EC
:1021400031493C313D20FFF749F801222E493E310B
:102150003D20FFF743F828480278284801780120FD
:10216000FFF7A8FC00270CE0B80021490858012817
:1021700006D12048401F391800223B20FFF72EF8D7
:102180007F1C052FF0DB65E001202C490860002052
:102190002B49086001221C4938313D20FFF71EF809
:1021A000002219493A313D20FFF718F81348017809
:1021B00001220220FFF77EFC4CE04CE000201F498A
:1021C000086001201E49086000220F4938313D2077
:1021D000FFF704F801220C493A313D20FEF7FEFFDB
:1021E0000648017800220220FFF764FC32E000007C
:1021F000E406002005FFFF00E0010020D8010020D8
:1022000010070020EC01002002000800FC01002063
:1022100000020020F4010020CE010020E0FF0200B7
:1022200004020020080200200C02002010020020FE
:10223000F801002014020020180200201C020020D7
:1022400020020020F7480278F74801780120FFF7C4
:1022500031FC00BFA8E0032DFCD1701F030001F08A
:10226000E7FF0705192E4358A16DA200EF4800684B
:10227000002801D1012000E00020EC490860002086
:10228000EB490860E948008882B2EA493D20FEF740
:10229000A5FF88E0E5484068002801D1012000E062
:1022A0000020E24948600120E1490860DF48808859
:1022B00082B2E049891C3D20FEF790FF73E0DB48C5
:1022C0008068002801D1012000E00020D749886003
:1022D0000220D7490860D548008982B2D549091D36
:1022E0003D20FEF77BFF5EE0D048C068002801D1AA
:1022F000012000E00020CD49C8600320CC490860DF
:10230000CA48808982B2CB49891D3D20FEF766FF0D
:1023100049E0C6480069002801D1012000E0002002
:10232000C24908610420C2490860C048008A82B2DC
:10233000C04908313D20FEF751FF34E0002700205E
:102340000190009013E0B800B849085801280DD159
:102350000098401C0090781C01998900B64A5050A2
:1023600005210198401C01F0D9FC01917F1C052F2B
:10237000E9DB009804E000218200AF4B9950401C3B
:102380000528F8DBAC48008882B280214220FEF7A5
:1023900025FFA948808882B2FF2101314220FEF743
:1023A0001DFF00E000BF00BF20460930A3490840E0
:1023B000029003E0601CA14908400290029805B019
:1023C000F0BDFEB59E4804689E480568A54203D24C
:1023D000012080022F1800E02F460020019000BF4E
:1023E0009948005D00900098AA287CD19649601C0D
:1023F0000E5C772E40D1381B0B283AD3204608308C
:10240000085CCC2815D120460930085C332810D14F
:1024100020460A30085CC3280BD120460B30085CEC
:102420003C2806D12046FFF763FB85490860012060
:102430000190854920460A30085CCC2816D12046F8
:102440000B30085C332811D120460C30085CC328BF
:102450000CD120460D30085C3C2807D12046FFF700
:1024600047FB774908600120019040E0022001907D
:102470003DE0032001903AE0782E22D1381B082855
:102480001CD37149601D085CCC2814D1A01D085CC8
:10249000332810D1E01D085CC3280CD12046083039
:1024A000085C3C2807D12046FFF722FB64490860FE
:1024B000012001901BE00220019018E00320019010
:1024C00015E0432E08D12046FFF712FB5C49086057
:1024D000012001900BE006E0002E08D0601C574957
:1024E0000840044603E0601C544908400446AC42DE
:1024F00003D00198002800D172E70198002802D08B
:102500000198022801D14E480560FEBD0EB54FA2CC
:1025100007CA0292019100904F4800684F49086035
:102520000EBDF7B584B00D4614460026002002907B
:102530000190002703900090049844282DD148482A
:10254000854213D1442047494870200E8871FF20EE
:1025500000042040000CC871FF2000022040000A47
:1025600008724C7204260120039016E03C48001DBE
:10257000854212D144203B494870200E8871FF20CB
:1025800000042040000CC871FF2000022040000A17
:1025900008724C720426012003900398012824D16C
:1025A00000200390AA202F490870280E8870FF2071
:1025B00000042840000CC870FF2000022840000AD8
:1025C00008714D71CC21B01D264A11543321F01DE4
:1025D0001154C321401C11543C21401C1154401C77
:1025E000C0B202900120019015E00398022812D198
:1025F000AA201C4908702004000E8870CC70CC20E2
:10260000087133204871C32088713C20C8710820AC
:10261000029001200190019801282ED10020019004
:10262000002727E0E0010020D8010020D00600208C
:10263000F001002020000800FC060020FF4F0000F1
:1026400030020020340200201007002000010205A3
:102650003F55CC33CD0000003C0200203802002062
:10266000E0FF0200690200203749C85D00F072FDFA
:10267000781CC7B202988742F6DB002007B0F0BD95
:1026800010B501F006F9314908700A212F48007889
:1026900001F044FB052908DB0A212C4800780A30A8
:1026A00001F03CFB2949087006E00A212748007820
:1026B00001F034FB254908702448027824493D2064
:1026C000FEF78CFD10BD70B505460C46022C06D1F8
:1026D00000202049087048708870C87006E0A8780B
:1026E0001C490870002048708870C8701A484470EF
:1026F0000821184800F03FFD184908600846007896
:1027000014498870154800880004000EC870022023
:102710001349088000201349088010E011480188FF
:102720000088401C0F4A10800A48415C0A480C4A45
:10273000128881540A480088401C094908800848CA
:1027400000880628EADB70BD69020020BC01002079
:1027500000080800B8010020C8010020C4010020C2
:10276000BE010020C0010020C020DF494862DF48D0
:10277000DF49086000BFDE48006801218907084082
:102780000028F8D1C320D8494862DA4800680321FC
:1027900089038843012189030843D6490860084614
:1027A0000068032189038843D2490860084600680D
:1027B000032109038843012109030843CD49086027
:1027C0000846C069032109028843FF2101310843FB
:1027D000C849C8610846C069400840000121084353
:1027E000C449C8610846C06904218843C149C86119
:1027F0000846C069082188430843BE49C8610846A5
:10280000C06970218843BB49C8610846006A30210D
:10281000884310210843B749086200BFB648006AE0
:1028200089158843B449086200BF0020B249403985
:102830008969F8229143B04A403A91611146896909
:102840000143916100BF00BFAB48006A5115884346
:10285000A949086200BF0020114689691F22D202DF
:102860009143A54A403A9161114689690202114398
:10287000A14A403A916100BF0320002805DBC2064F
:10288000D20E012191409D4A116000BF0320002813
:1028900005DBC206D20E01219140994A116000BFAA
:1028A000704710B500F012F9002870D100F015F94A
:1028B00000287ED193480068012820D19248006802
:1028C00000280BD191480078401CC0B28F49087095
:1028D00002468F493D20FEF781FCF0E08A480068FF
:1028E0000128FAD189484078401CC0B28749487015
:1028F00002468749891C3D20FEF770FCDFE08148D5
:1029000000680228E9D18348006800280CD17F487C
:102910008078401CC0B27D49887002467C490A39E3
:102920003D20FEF75BFCCAE07A48006801280CD124
:102930007648C078401CC0B27449C87002467449D9
:1029400008393D20FEF74AFCB9E0724800680228C9
:102950000CD16E480079401CC0B26C490871024627
:102960006B49891F3D20FEF739FCA8E069480068E3
:1029700003280DD165484079401CC0B263494871B5
:1029800002466349091F3D20FEF728FC97E010E04E
:10299000604800680428A0D15C488079401CC0B21F
:1029A0005A49887102465A49891E3D20FEF716FC95
:1029B00085E000F08BF8FF21013188427FD100F0E3
:1029C0008CF800287BD14F48006801281FD14E4861
:1029D000006800280BD14D480078401EC0B24B491A
:1029E000087002464A493D20FEF7F8FB0FE04648D2
:1029F000006801280BD145484078401EC0B24349C9
:102A0000487002464249891C3D20FEF7E7FB3D48DD
:102A10000068022853D13F48006800280CD13B4889
:102A20008078401EC0B239498870024638490A3958
:102A30003D20FEF7D3FB42E03648006801280CD168
:102A40003248C078401EC0B23049C8700246304992
:102A500008393D20FEF7C2FB31E02E48006802280D
:102A60000CD12A480079401EC0B22849087102469C
:102A70002749891F3D20FEF7B1FB20E0254800686B
:102A800003280CD121484079401EC0B21F4948712B
:102A900002461F49091F3D20FEF7A0FB0FE01D481D
:102AA000006804280BD119488079401EC0B217492C
:102AB000887102461649891E3D20FEF78FFB0D489E
:102AC0004069802188430B49486110BD0A4840385D
:102AD000406AFF2101310840704707484038406A8A
:102AE0000121490208407047000001400004F03F06
:102AF00000030140000601404002044080E200E083
:102B000000E100E0EC010020F8010020D0010020ED
:102B10000E000800F00100208020114909691F22E1
:102B2000D20291430E4A1161114609690202114312
:102B30000B4A116100BF00BF114609691F22D20470
:102B40009143074A11611146096902041143044A7D
:102B5000116100BF00BF04201146486000BF7047EC
:102B60000000044010B500F04DF900F05DF8FEF7EC
:102B7000CFFAC0202549486204202549086125482C
:102B80000860C3202149486200F0D6FC00F015FD22
:102B900000F06EFD152000F02FF8152000F023F84E
:102BA000162000F029F8162000F01DF8FFF7DCFDD4
:102BB000FFF7B2FF10BD00BF17481849486000BFBB
:102BC0008020096949014909144A116111460969BE
:102BD00002061143114A116100BF00BF08201146CF
:102BE000486000BF7047002805DBC206D20E0121F5
:102BF00091400B4A11607047002805DBC206D20ED7
:102C000001219140074A1160704700000000014017
:102C1000000301400004F03F0200020000000440F5
:102C200000E100E080E200E010B5C020FE4948620B
:102C3000FE48006908210843FC490861FC48086017
:102C400000BFFA4800680121890708400028F8D130
:102C5000C320F5494862B820F6490969F822914332
:102C6000F44A1161114609690143116100BF002056
:102C7000114609691F22D2029143EE4A11611146A1
:102C8000096902021143EB4A116100BF0920C00625
:102C9000C068032108430921C906C86008460069C5
:102CA0000321890388430121C90308430921C90677
:102CB000086108460069800A8002DF49084309214B
:102CC000C90608610846C069032108430921C906ED
:102CD000C861084640690321090288430921C906E1
:102CE0004861084640691F218902884309218902F9
:102CF00008434904486108464069D0490840032117
:102D0000090408430921C90648610846406B0221AD
:102D1000884308430921C90648630846406B0321DC
:102D200009028843911508430921C90648630846EA
:102D3000406B3F2109048843072109040843092106
:102D4000C90648630846406B0F21090688430721DE
:102D5000090608430921C90648630846806B032118
:102D600089028843111508430921C906886308466A
:102D7000806B9115884308430921C906886308467A
:102D8000C06B40084000012108430921C906C863FF
:102D90000846C06B022188430921C906C86308465A
:102DA000C06B1F2109028843092109020843C90495
:102DB000C863A34880680121490388430843A049A8
:102DC00088600846006800090001022108439C4908
:102DD0000860084600680321090288439849086092
:102DE00008460068090288430843954908609548E9
:102DF0000921C90688610B2000F00EFA0B2000F0B3
:102E000002FA10BD10B5C0208749486287480069A2
:102E100008210843854908618548086000BF834848
:102E200000680121890708400028F8D1C3207E49A5
:102E30004862B8207F4909691F22D20491437D4A24
:102E4000116111460969020411437A4A116100BFF8
:102E500000201146096949014909116111460969B2
:102E600002061143734A116100BF7748C069C00868
:102E7000C000012108437449C8610846C0690121A6
:102E800008437149C8610846C068032108436E4978
:102E9000C860084600690321890388430121C903EA
:102EA00008436949086108460069800A800262494E
:102EB00008436549086108464069032109028843BF
:102EC00061494861084640691F21890288430921F8
:102ED000890208435C4948610846406957490840EF
:102EE000032109040843584948610846406B022100
:102EF00088430843544948630846406B032109024C
:102F0000884391150843504948630846406B3F2168
:102F1000090488430721090408434B4948630846CC
:102F2000406B0F21090688430721090608434649DB
:102F300048630846806B03218902884311150843C2
:102F4000414988630846806B9115884308433E4990
:102F500088630846C06B40084000012108433A4995
:102F6000C8630846C06B022188433749C8630846D6
:102F7000C06B1F2109028843092109020843324915
:102F8000C8633148403080680121490388430843C1
:102F90002D4940318860084600680009000102217F
:102FA00008432949403108600846006803210902A6
:102FB000884325494031086008460068012189039B
:102FC0008843084320494031086020481E498861F1
:102FD0000C2000F021F90C2000F015F910BD184864
:102FE0008068012189030840800B002842D01448E2
:102FF000C06888431249C860084640691449154AA8
:10300000126888540E4840691349088011480068C6
:10301000401C104908600846006801218902884266
:103020001DD300200B4919E00000014000030140BE
:103030000004F03F000104404E020000FFFF00FCCE
:1030400040000048222202000002004833330300FF
:1030500010070020340200204202002008600020F7
:10306000724908707248C068400840000121084356
:103070006F49C86070476F48806801218903084024
:10308000800B002827D06B48C06888436949C86016
:10309000084640696849694A126888546548406929
:1030A0006749088065480068401C64490860084614
:1030B000006801218902884202D300205F4908602C
:1030C0000020604908706048C06840084000012145
:1030D00008435D49C860704710B55448007801281E
:1030E00007D15A4800685A490968884201D0FFF759
:1030F00068F910BD10B553480078012807D155482C
:1031000000684E490968884201D0FFF7FFF910BDF9
:1031100000BF484989680122520311400029F8D0B4
:103120004449C9681143434AD1604249403108606B
:10313000704700BF3F4989680122520311400029AE
:10314000F8D03C49C96811433A4AD1603949403105
:103150004860704700BF404989680122520311400E
:103160000029F8D03C49C96811433B4AD1603A492B
:1031700040314860704770B502460B463748002121
:1031800013E0555C684000240BE0C507ED0F002DEF
:1031900004D04508324E7540284600E04008651CC2
:1031A000ECB2082CF1DB4D1CE9B29942E9DB70BDB1
:1031B00000B585B0034600202A49087009E03F2188
:1031C000684601800121418026480078401C25493D
:1031D0000870244800780928F1DB00202149087094
:1031E0000BE02049097849006A46505AFFF790FFE2
:1031F0001C480078401C1B4908701A4800780A28AF
:10320000EFDB05B000BD002805DBC206D20E0121B0
:103210009140154A11607047002805DBC206D20EA6
:1032200001219140114A1160704700002C020020DA
:103230000001044840020048100B00203C0200201E
:10324000420200202D02002000020448300200202B
:10325000340200203802002040000048FFFF000038
:1032600001A00000BE01002000E100E080E200E0DB
:10327000704700208F49088024E000208E49088094
:1032800017E08C480088192148438C4940188A4926
:103290000988405C8749098832225143884A891845
:1032A000854A12885200885283480088401C82490F
:1032B0000880814800881928E3DB7E480088401C8C
:1032C0007C4908807B4800880428D6DB704710B50D
:1032D00000F066FB0A227949002000F0F3FB15227A
:1032E00076491931774800F0EDFB152273493231E8
:1032F0007448153800F0E6FB152270494B317148CF
:103300002A3800F0DFFBFFF7B4FF10BD10B5202214
:1033100091033D20FDF762FF00226B494420FDF739
:103320005DFF002269493B20FDF758FF00226549F7
:1033300023313D20FDF752FF0022624925313D2017
:10334000FDF74CFF00225F4941313D20FDF746FF6C
:1033500000225C493F313D20FDF740FF0122FF2163
:1033600081314220FDF73AFF01220521C9014220A7
:10337000FDF734FF2022534917313D20FDF72EFF82
:103380000122032109024220FDF728FF0122072123
:10339000C9014220FDF722FF002280214220FDF7D3
:1033A0001DFF012211024220FDF718FF01224549AD
:1033B00019313D20FDF712FF012242491B313D200A
:1033C000FDF70CFF01223F491D313D20FDF706FFAF
:1033D00001223C491F313D20FDF700FF0122394900
:1033E00021313D20FDF7FAFE0122364935313D20DD
:1033F000FDF7F4FE0022334937313D20FDF7EEFEA4
:103400000122304939313D20FDF7E8FE00222D49E7
:103410003B313D20FDF7E2FE01222A493D313D20AE
:10342000FDF7DCFE002228494420FDF7D7FE2022CC
:103430002549091D4420FDF7D1FE202222490831EB
:103440004420FDF7CBFE20221F490C314420FDF71C
:10345000C5FE20221C4910314420FDF7BFFE20226A
:10346000194914314420FDF7B9FE002217493B20C9
:10347000FDF7B4FE00221549491C3B20FDF7AEFEC6
:1034800000221249891C3B20FDF7A8FE00220F49AB
:10349000C91C3B20FDF7A2FE00220C49091D3B2060
:1034A000FDF79CFE00220949491D3B20FDF796FED1
:1034B00010BD0000BE010020C001002069060020F0
:1034C0001A140020EBFF0700E0FF020000FFFF00DE
:1034D0008A48006AC007C00F002812D08748006BD6
:1034E0000121084385490863012085490870834804
:1034F0008038006940084000012108437F49803935
:10350000086170477F48006AC007C00F002812D0CA
:103510007C48006B012108437A49086301207A49FD
:103520000870764880300069400840000121084357
:1035300072498031086170477448C068FF210131C9
:10354000884308437149C8606C488038406A000964
:1035500000010A2108436949803948620846406BE6
:10356000000C0004322108436449803948636748ED
:103570000069400840000121084364490861084689
:10358000C06840084000012108436049C8605B48AA
:10359000406A4008400001210843584948620846F3
:1035A000806A80088000886254488038006940083A
:1035B000400052498039086170475448C068FF2173
:1035C0000131884308435149C8604C488030406A03
:1035D000000900010A210843484980314862084631
:1035E000406B000C00043221084344498031486399
:1035F0004648006910218843084344490861084649
:10360000C0680221884308434049C8603D48406A79
:1036100040084000012108433A4948620846806A50
:103620008008800001210843364988623348803091
:103630000069400840000121084330498031086199
:1036400070473348006AC007C00F00280FD03048C9
:10365000006B012108432E4908632A488030006925
:103660004008400001210843264980310861704725
:103670002648C068FF210131884308432349C860B8
:1036800020488030406A00090001032108431D4999
:10369000803148620846406B000C00040121084359
:1036A00018498031486319480069FF210131884376
:1036B0000843164908610846C06804218843084346
:1036C0001249C8601248406A40084000012108437E
:1036D0000F4948620846806A80088000012108433B
:1036E0000B4988620748803000694008400001218A
:1036F0000843044980310861704700008001044894
:103700002C020020800204482D0200200000044802
:103710008003044810B50024102000F0F2F800BF28
:103720008248406AC007C00F8149086004E0601CFD
:10373000C4B2012000F006F900BF7E48406AC0070D
:10374000C00F002801D0C82CF1DBC82C01DB012000
:1037500010BD002404E0601CC4B2012000F0F2F8A7
:1037600000BF7448406AC007C00F002801D1F02C88
:10377000F1DBF02C01DB0120EAE709206E4908703B
:103780000020E5E710B5802000F0BBF800F0C8F895
:103790006A4800F0D7F800F0BFF80F2000F0D2F828
:1037A00010BD10B500BF63484030006A40084000BB
:1037B00060494031086200BF802000F0A2F800F0AC
:1037C000ABF8FFF7DFFFFFF7A5FF10BD10B58020B6
:1037D00000F097F800F0A4F8022000F0B3F800F031
:1037E0009BF8102000F08DF80C2000F0ABF800BF23
:1037F0005048406AC007C00F002801D0012400E0F3
:103800000024322000F09EF8204610BD70B500263E
:10381000012508E0FFF7DAFF0446E00171100843D4
:10382000C6B2681CC5B2082DF4DD304670BD70B557
:103830000446802000F065F801251BE0E607F60F3E
:103840006410002E0AD000F06BF8022000F07AF825
:1038500000F062F83C2000F075F809E000F060F834
:103860003C2000F06FF800F057F8022000F06AF8F2
:10387000681CC5B2082DE1DD70BD10B5FFF782FFF1
:10388000FFF748FFCC20FFF7D2FF4420FFF7CFFF20
:1038900010BDF0B585B0FFF7F0FFFFF773FFFFF73E
:1038A00039FFCC20FFF7C3FFBE20FFF7C0FFFFF7B3
:1038B000ADFF0746FFF7AAFF0446072C05DDE043EE
:1038C000C4B2F843C7B2002600E00126254628020C
:1038D00005B2E81905B2284600F01DFB0022184B7E
:1038E0000191009000F022FB0391029000F0BCFADD
:1038F00005B2002E02D0284605B0F0BD684200B2E5
:10390000FAE70C490969F82291430A4A1161114604
:1039100009690143116170470120064948607047F9
:103920000120000403494860704700000000044083
:103930004C0200200002044050020020EE02000071
:103940000000E43F002101E000BF491C8142FBDB95
:10395000704730B5034600240AE0002503E001204B
:10396000FFF7F0FF6D1C7D20C0008542F7DB641C73
:103970009C42F2DB30BD0948C0684008400001218C
:1039800008430649C860704700B50246002302E0BC
:10399000FFF7F1FF5B1C9342FADB00BD0003044814
:1039A00010B500F0B1F810BD70B50446002600F067
:1039B000BFF8A02000F028F900F0E0F8201200F095
:1039C00023F900F0DBF82546E117090E4919091221
:1039D0000902611AC8B200F017F900F0CFF800F040
:1039E000A7F8A12000F010F900F0C8F8002000F0BE
:1039F0003AF9064600F0AFF8304670BD70B504469F
:103A00000E4600F095F8A02000F0FEF800F0B6F8A1
:103A1000201200F0F9F800F0B1F82546E117090E80
:103A2000491909120902611AC8B200F0EDF800F054
:103A3000A5F8304600F0E8F800F0A0F800F08BF8A8
:103A40000A20FFF786FF70BDF8B505460E461746FB
:103A5000002409E0E2003346D340D9B22A1990B2DB
:103A6000FFF7CCFF601CC4B2BC42F3DBF8BDF8B575
:103A700007460C460026002509E036023919491B85
:103A8000491E88B2FFF790FF8619681CC5B2A5428F
:103A9000F3DB3046F8BD10B5FF20FFF785FF044685
:103AA000552C01D1002010BD5521FF20FFF7A6FFA6
:103AB000FF20FFF779FF0446552C01D10020F2E7E3
:103AC0000120F0E770B506460C46154608E0314681
:103AD000761C88B2FFF768FF2070641C681E85B2F0
:103AE000002DF4D170BD70B504460D46164605E0B4
:103AF0002978A0B2FFF782FF641C6D1C3046711E4E
:103B00008EB20028F4D170BD10B580207C490969BF
:103B1000F82291437A4A1161114609690143116102
:103B200000BF00F0D0F800F0C5F800F0DAF810BDE2
:103B300010B5802000F0C7F800F0D3F800F0BAF814
:103B40000420FFF7FFFE00F0D1F80420FFF7FAFE93
:103B500000F0B4F810BD10B5802000F0B4F800F00B
:103B6000ADF800F0C3F80420FFF7ECFE00F0A2F877
:103B700000F0B7F80420FFF7E5FE10BD10B50024F3
:103B8000102000F0A0F800F0ACF80120FFF7DAFEFA
:103B900000F090F80120FFF7D5FE07E0601CC4B2EA
:103BA000FA2C03DDFFF7D7FF012010BD00F0A3F8CA
:103BB0000028F3D100F082F80020F6E710B500F0FD
:103BC0007DF8802000F07FF800F090F80220FFF7E9
:103BD000B9FE00F06FF80220FFF7B4FE00F06EF8B7
:103BE00010BD10B500F06AF8802000F06CF800F00D
:103BF00078F80220FFF7A6FE00F05CF80220FFF73D
:103C0000A1FE00F05BF810BD70B50446802000F006
:103C10005AF800F053F8002522E080202040C0111F
:103C20003849087008460078002802D100F05EF894
:103C300005E034480078012801D100F052F8600610
:103C4000040E0220FFF77EFE00F034F80220FFF79A
:103C500079FE00F033F80220FFF774FE681CC5B24D
:103C6000082DDADB70BD70B505460024102000F089
:103C70002AF8002613E000F021F80220FFF762FE88
:103C800000F018F86006040E00F035F8002801D0A6
:103C9000601CC4B20120FFF755FE701CC6B2082E8E
:103CA000E9DB002D02D1FFF79CFF01E0FFF786FF63
:103CB000204670BD01201249486070470120000471
:103CC0000F49486070470E4909691F22D20291438B
:103CD0000B4A11611146096902021143084A116138
:103CE00070470220064948600120704701204004C7
:103CF0000349486070470248406A02210840704703
:103D00000000044052020020002203098B422CD301
:103D1000030A8B4211D300239C464EE003460B431B
:103D20003CD4002243088B4231D303098B421CD37D
:103D3000030A8B4201D394463FE0C3098B4201D36F
:103D4000CB01C01A524183098B4201D38B01C01AA7
:103D5000524143098B4201D34B01C01A524103091E
:103D60008B4201D30B01C01A5241C3088B4201D3CD
:103D7000CB00C01A524183088B4201D38B00C01A7A
:103D8000524143088B4201D34B00C01A5241411AA1
:103D900000D201465241104670475DE0CA0F00D084
:103DA0004942031000D34042534000229C4603097D
:103DB0008B422DD3030A8B4212D3FC22890112BA03
:103DC000030A8B420CD3890192118B4208D38901DB
:103DD00092118B4204D389013AD0921100E08909F3
:103DE000C3098B4201D3CB01C01A524183098B42D4
:103DF00001D38B01C01A524143098B4201D34B01BD
:103E0000C01A524103098B4201D30B01C01A52411F
:103E1000C3088B4201D3CB00C01A524183088B42A6
:103E200001D38B00C01A5241D9D243088B4201D32F
:103E30004B00C01A5241411A00D20146634652411A
:103E40005B10104601D34042002B00D54942704719
:103E500063465B1000D3404201B50020C046C04617
:103E600002BD70477047704730B50346CA02400D27
:103E70001043164D164C0A1502D02043002A06DBCB
:103E8000AA1A002A12DDD040FF2A0BDC30BD5205F1
:103E9000520D01D140004008AA1A07D4D040404238
:103EA000FF2A01DD002030BD0028FCDD4A00002B88
:103EB00001D0012000E00020101801225205D0425C
:103EC000F0D8C817C043604030BD00001E04000099
:103ED000000000801F22030C02D10F22000402D038
:103EE000030E03D004E00020014670470002083AA8
:103EF000030F01D10001121F830F01D18000921E18
:103F0000002801DB4000521E120551184205C01264
:103F1000411810467047C10FC90700D04042012226
:103F200092071143D6E701218907D3E7F0B58B4CFF
:103F30000F09254689B0BD437BD01D092646AE43F7
:103F4000FAD00E465E402740F60F3E43254071D022
:103F500024012142FBD0FF24AD19A4042D1B03959D
:103F600001252D05DB02DB0AC9022B43C90A2943BF
:103F70001E010901040F130F050121431701880BCE
:103F8000820391432D098C46A90B1E438A03954356
:103F9000B30B9A0396433F09BA0B9403A7430296C7
:103FA0002E467E430497B6464E19D7190C46019605
:103FB000544305977E43371B7646BF1B3601B646F2
:103FC000BE0B361900967646BC043719009C01D307
:103FD000641C00946400002F01D001263443029E2B
:103FE000049F754366467E430496760034196E003E
:103FF00034190094029C019E1C196643751BAE4641
:10400000069465464519059C05956C4359437546CC
:104010000891691A0191049E01465143A41B049121
:10402000611A009C0791E10605D061090122114344
:1040300002E072E06EE06109089D00272C0A2D065F
:104040006918049D7C412A0A2D066918019D624168
:10405000AC0DAD026D185441079A910D920255199D
:104060006141029A644658435443069B059A5A4359
:10407000121A131B9A0E9B015B187A41010B000563
:10408000C3185141220A200644195A419A4200D2CB
:10409000491C01204002814203D315230226F64326
:1040A00002E014230326F6432020C51AA940174630
:1040B000AF40DA400A4320460399D84009147318E8
:1040C00019055118039A3843D2075140AC4009D022
:1040D0000122944006D30022401C5141002C01D102
:1040E000400840001E4A934212D3012203989206D0
:1040F000904207DB0520400709181A480143C01207
:10410000414004E0032040070818C10FC907002000
:1041100009B0F0BD0020F107FAE705180C464C4144
:1041200011486D42A04115D394181A465A410E48C1
:10413000644290410ED301204A004005824209D3D7
:104140005A00824206D35940C90F084AC9070020C5
:104150001143DDE700200649DAE700000000FF0711
:10416000FE070000FFFFFF7F0000E0FF0000F07F80
:104170000000F87F754600F025F8AE460500694658
:104180005346C008C000854618B020B5FCF7A2FF12
:1041900060BC00274908B6460026C0C5C0C5C0C5DA
:1041A000C0C5C0C5C0C5C0C5C0C5403D49008D46DD
:1041B000704710B50446C046C0462046FCF769FF6C
:1041C00010BD000000487047E41400200149182089
:1041D000ABBEFEE726000200704770B58C1805786C
:1041E000401C6B075B0F01D10378401C2A1106D1DC
:1041F0000278401C03E00678401C0E70491C5B1ED0
:10420000F9D12B0705D40023521E0DD40B70491C85
:10421000FAE70378401CCB1A921C03E01D780D705E
:10422000491C5B1C521EF9D5A142D8D3002070BD99
:1042300030B47446641E2578641CAB4204D3635DBD
:104240005B00E31830BC18471D46F8E76C420010CD
:104250000000002054020000DA4100100C4300105E
:1042600054020020F41800005C1000108D2F48FE4E
:10427000E70411CA4710E904A920290C09220409FE
:104280002A2C0924041A20045A2E04413201320235
:1042900013C31033100432053206320732083209D4
:1042A000320A1AC520320C320D1AC70C13B72B1B59
:1042B00010CB086904CBA3281029043218690C1309
:1042C000DF2F0C1010773024E90413D134141005BB
:1042D000350C1C1043362841580BBACDC3E6B9B48F
:1042E000BFECCBD90B5BC2FD0B7BCDB0163BCDB089
:1042F0001617CEDEB2D9D7F7058DD4DDCDA3480889
:0C430000010203040506070C2201000066
:0400000510001019BE
:00000001FF
