:020000041000EA
:10100000D81A0020A110001000000000000000000D
:10101000000000800000008000F002F800F030F8CE
:101020000CA030C8083824182D18A246671EAB46FD
:1010300054465D46AC4201D100F022F87E460F3E98
:101040000FCCB6460126334200D0FB1AA246AB466F
:101050003343184798390000B839000000230024B2
:1010600000250026103A01D378C1FBD8520700D3DF
:1010700030C100D50B6070471FB51FBD10B510BD46
:1010800003F048FC1146FFF7F7FF00F06DF803F09E
:1010900060FC03B4FFF7F2FF03BC03F067FC000041
:1010A0000F4885460F49104A30200A600431401E1F
:1010B000FBD10E4880470E4880470E48004700008D
:1010C000FEE7FEE7FEE7FEE7FEE7FEE700BF70474C
:1010D0000120704708480949094A0A4B7047000037
:1010E000D81A00200000002000BFFEE70911001000
:1010F000CD10001019100010D8140020D81A0020AC
:10110000D8160020D816002010B5FFF7E1FF10BD5B
:10111000FEB512480768FF2000023840050AFEB2FB
:10112000002D17D0002E05D129460D4803F0BCF93B
:10113000044610E02802801901907D2040060199A4
:1011400003F0B2F900907D21C9000098484304469D
:10115000640A00E0024C03480460FEBD0003014045
:101160000048E8017C01002002F002F902F0E8FFEB
:1011700002F0AEFC02F0B9FC02F0AAFC02F0BFFEE5
:1011800002F0BCFF07E002F0D3FB02F0DFFB01F04E
:1011900094FE02F0C2FFF6E700BF0922D206926B6E
:1011A00080231A40002AF8D1FE4AD2689B011A43D4
:1011B000FC4BDA60020207231B021A40CBB21A432F
:1011C000F84B40331A60704700BFF6488068012131
:1011D000C9030840002805D1F2488068491008403A
:1011E0000028F2D0EF48C068032189030843ED4985
:1011F000C860084640697047F7B584B00E4614468B
:101200000020029001900090002503900027049890
:10121000422878D1E4494870802E75D14870230067
:1012200003F0D6FB070517293B4D5F7385000625A4
:1012300008E03846791CCFB2DC49085CDA494855E9
:10124000681CC5B20D2DF4DB01200390072002902D
:101250006EE0062508E03846791CCFB2D449085C18
:10126000D1494855681CC5B2112DF4DB012003900B
:101270000B2002905CE0062508E03846791CCFB2CE
:10128000CC49085CC8494855681CC5B2112DF4DB2F
:10129000012003900B2002904AE0062508E0384622
:1012A000791CCFB2C449085CBF494855681CC5B217
:1012B0000B2DF4DB012003900520029038E0062579
:1012C00008E03846791CCFB2BC49085CB64948559D
:1012D000681CC5B2112DF4DB012003900B20029095
:1012E00026E0062508E03846791CCFB2B449085CF0
:1012F000AD494855681CC5B2112DF4DB012003909F
:101300000B20029014E029E113E0062508E038469E
:10131000791CCFB2A549085CA3494855681CC5B2E1
:101320000D2DF4DB012003900720029000E000BFA8
:1013300079E3FF200130864278D142209A494870F3
:10134000230003F045FB060416283A4C5E7106257F
:1013500008E03846791CCFB29449085C9249485558
:10136000681CC5B20D2DF4DB01200390072002900C
:101370005BE0062508E03846791CCFB28C49085C52
:1013800089494855681CC5B2112DF4DB0120039032
:101390000B20029049E0062508E03846791CCFB2C0
:1013A0008449085C80494855681CC5B2112DF4DB9E
:1013B000012003900B20029037E0062508E0384614
:1013C000791CCFB27C49085C77494855681CC5B286
:1013D0000B2DF4DB012003900520029025E006256B
:1013E00008E03846791CCFB27449085C6E4948550C
:1013F000681CC5B2112DF4DB012003900B20029074
:1014000013E0062508E03846791CCFB26C49085C29
:1014100065494855681CC5B2112DF4DB01200390C5
:101420000B20029001E001E000BFFCE2FF208130D0
:1014300086421DD142205C494870012C0AD1BF2050
:101440008871AA20C8710020087203200290012030
:101450000390E8E2002CE8D1B92053498871D820E4
:10146000C871002008720320029001200390DAE284
:101470000520C001864225D142204B494870012CED
:101480000ED1D5208871FD20C871D7200872AA20FE
:101490004872002088720520029001200390C2E269
:1014A000002CC2D1B72040498871B420C871D72020
:1014B0000872AA204872002088720520029001203C
:1014C0000390B0E20320000286421DD1422036493B
:1014D0004870012C0AD1BF208871AA20C871002051
:1014E000087203200290012003909CE2002C9CD102
:1014F000B9202D498871D820C871002008720320B6
:101500000290012003908EE20720C00186428CD118
:10151000422025494870012C0ED1D5208871FD202C
:10152000C871D7200872AA2048720020887205204E
:1015300002900120039076E2002C8AD1B7201A494C
:101540008871B420C871D7200872AA204872002080
:101550008872032002900120039064E204983D28E1
:1015600072D1114948701749701A8E426DD036DC1D
:101570001549701A8E4269D00BDC1448301A0300EA
:1015800003F026FA0B3E9CA79CB09CB99CC29CCB56
:101590009C00162876D01DDC02283AD0042841D0C1
:1015A000142815E040000048A90A0020AC010020E2
:1015B000800100208B010020B30100209601002053
:1015C000A1010020280008000C000800000008000D
:1015D00074D1B4E0182872D01A28F9D1CAE0801E5C
:1015E000030003F0F5F91728FE34FE3DFE46FE50D9
:1015F000FE59FE62FE6DFED9FEE2FEEBFEF5FE0038
:101600002012FC498871CC710220029001200390C5
:10161000E8E02012F7498871CC7102200290012085
:101620000390DFE02012F3498871CC710220029010
:1016300001200390D6E02012EE498871CC7102207F
:10164000029001200390CDE0CDE09CE06EE02012FE
:10165000E8498871CC710220029001200390C1E01A
:101660002012E4498871CC7102200290012003907D
:10167000B8E02012DF498871CC710220029001206D
:101680000390AFE064E02012DA498871CC71022047
:10169000029001200390A5E02012D6498871CC71F8
:1016A00002200290012003909CE02012D149887111
:1016B000CC71022002900120039093E091E050E071
:1016C0002012CC498871CC71022002900120039035
:1016D00088E02012C7498871CC7102200290012055
:1016E00003907FE02012C3498871CC7102200290E0
:1016F0000120039076E02012BE498871CC7102204F
:101700000290012003906DE02012BA498871CC71DB
:10171000022002900120039064E02012B5498871F4
:10172000CC7102200290012003905BE02012B149AD
:101730008871CC71022002900120039052E02012A7
:10174000AC498871CC71022002900120039049E0DD
:101750002012A8498871CC710220029001200390C8
:1017600040E02012A3498871CC7102200290012030
:10177000039037E020129F498871CC7102200290BB
:10178000012003902EE020129A498871CC7102202A
:1017900002900120039025E0201296498871CC71B7
:1017A00002200290012003901CE0201291498871D0
:1017B000CC71022002900120039013E020128D4989
:1017C0008871CC7102200290012003900AE0FFE7AB
:1017D000201288498871CC71022002900120039068
:1017E00000E000BF1FE1049844286AD18248864285
:1017F0000DD144207F49487000208871C8712012A3
:1018000008724C7204200290012003900BE17A4888
:10181000001D86420DD14420764948700020887111
:10182000C871201208724C720420029001200390AB
:10183000F9E07148083086420DD144206D49487066
:1018400000208871C871201208724C720420029026
:1018500001200390E7E068480C3086420DD1442017
:101860006449487000208871C871201208724C7257
:101870000420029001200390D5E05F48103086429A
:101880000DD144205B49487000208871C871201236
:1018900008724C720420029001200390C3E0564865
:1018A000143086429ED144205249487000208871ED
:1018B000C871201208724C7204200290012003901B
:1018C000B1E004983B2879D14C48864216D1012CCE
:1018D00008D1012003903B204649487001208871BF
:1018E0000290A0E0002C08D1012003903B20414948
:1018F0004870002088710120029094E03F48401C0D
:10190000864216D1012C08D1012003903B20394991
:10191000487001208871029085E0002C08D10120D8
:1019200003903B20334948700020887101200290C9
:1019300079E03248801C864216D1012C08D1012062
:1019400003903B202B4948700120887102906AE087
:10195000002C68D1012003903B20264948700020CC
:101960008871012002905EE02448C01C864216D196
:10197000012C08D1012003903B201E494870012012
:10198000887102904FE0002C4DD1012003903B2044
:1019900018494870002088710120029043E01748E0
:1019A000001D864217D1012C09D1012003903B2054
:1019B0001049487001208871029034E02CE0002C1E
:1019C00031D1012003903B200A49487000208871E2
:1019D0000120029027E00948401D864223D1012CB6
:1019E0000ED1012003903B200249487001208871EC
:1019F000029018E0A90A0020E0FF020000FFFF00AB
:101A0000002C10D1012003903B20FE49487000209B
:101A100088710120029006E00498702803D1F949EA
:101A20004870022003900398012829D100200390D8
:101A3000AA20F4490870300E8870FF20000430405E
:101A4000000CC870FF2000023040000A08714E717F
:101A5000CC210298801DEB4A115433210298C01DFD
:101A60001154C3210298083011543C2102980930C6
:101A7000115402980A30C0B201900120009014E085
:101A80000398022811D1AA20DE490870201288701C
:101A9000CC70CC20087133204871C32088713C2061
:101AA000C8710820019001200090009801280CD1F5
:101AB00000200090002505E0D249485D01F076FF46
:101AC000681CC5B201988542F6DB002007B0F0BD66
:101AD000F3B581B00D46002400200090CA4901985A
:101AE000487001983F2877D0632873D0722872D14C
:101AF0000F27052D29D1C548007841308870302046
:101B0000C870087148718871C14800784130C87147
:101B10003020087248728872C872012406E0BA4800
:101B2000015D009808180090601CC4B20B2CF6DD13
:101B30000098C6B230113030B34908733007000F37
:101B4000303048730D20887342E0002D40D10F27BC
:101B5000AE4800784130AC498870AC4840783030AD
:101B6000C870AA48807830300871A848C0783030F2
:101B70004871A648007930308871A5480078413016
:101B8000C871A348407830300872A148807830305E
:101B900048729F48C078303088729D480079303054
:101BA000C872012406E09848015D0098081800906A
:101BB000601CC4B20B2CF6DD0098C6B23011303078
:101BC000914908733007000F303048730D20887337
:101BD0002FE001E023E02BE03F208B4948700846CE
:101BE00085700627722D06D14220C87031200871F9
:101BF0000D20487112E0662D07D141208249C8703E
:101C0000352008710D20487108E0692D06D141206A
:101C10007D49C870382008710D20487109E03620D0
:101C2000794988703320C8700D200871052700E0BD
:101C300000BF00BF7E2074490870002405E072498F
:101C4000085D01F0A2FE601CC4B2BC42F7DB0020BC
:101C5000FEBDF0B585B004466E49601C085C04907A
:101C6000049877287BD1A01C6B4908406949085C1F
:101C7000002875D1E01C684908406649085C0828BE
:101C8000F7D1A01D085C654908706249E01D085C39
:101C9000624948705F49601D085C039003981238E0
:101CA000030002F095FE0D08E924E940E95EE97BB6
:101CB000E998E9CCE900002259493D20FFF79CFA58
:101CC0005848006800280ED154484078564908709A
:101CD00052484278524920393D20FFF78DFA0120C1
:101CE0005249086002E000204C494870C5E00022DB
:101CF0004B493D20FFF780FA4A48006801280ED181
:101D000046484078484948704448427844491E391A
:101D10003D20FFF771FA00204449086002E00020EE
:101D20003E494870A9E03D4840783F4988703B48AB
:101D300042783B492A393D20FFF75EFA3A488078DD
:101D40003C21484302463A494420FFF755FA012214
:101D50003249491C3248383802F095FA8DE0C6E124
:101D600090E02E4840783049C8702C4842782C4981
:101D700028393D20FFF740FA2B48C0783C214843E2
:101D800002462B49091D4420FFF736FA0122234958
:101D9000491C2348363802F076FA6EE01F48407836
:101DA000214908711D4842781D4926393D20FFF719
:101DB00023FA1D4800793C21484302461C4908315A
:101DC0004420FFF719FA01221449491C14483438F9
:101DD00002F059FA51E011484078134948710F4810
:101DE00042780F4924393D20FFF706FA0E48407922
:101DF0003C21484302460E490C314420FFF7FCF9D0
:101E0000012217E0A90A0020500F00202402002020
:101E10002902002094020020FF4F0000CE01002084
:101E20002E000800F8010020D0010020D801002079
:101E3000E4FF0200FC49FD4802F025FA1DE0FA48E3
:101E4000401E4078FA498871F748401E4278F749A9
:101E500010313D20FFF7D0F9F54880793C21484307
:101E60000246F4494420FFF7C7F90122EE49EF4842
:101E7000801C02F008FA00E000BF00BF20460C30D2
:101E80000290E9E3A01CEC490840EC49085C0028FA
:101E9000F7D1E01CE8490840E849085C0228F0D185
:101EA000201DE5490840E549085CFF28E9D1601D8F
:101EB0000D5CEC2D77D006DCE02D09D0E42D26D08A
:101EC000E82D23D171E0F02D6ED0F42DF9D1F0E0A2
:101ED000DB480068002801D1012000E00020D8493B
:101EE00008600022D7493B20FFF786F90022CF493E
:101EF00032313D20FFF780F90122CC4934313D20B9
:101F0000FFF77AF905217220FFF7E2FDEEE00120EC
:101F1000CD4908600022CB49491C3B20FFF76CF9F2
:101F2000CA484068002806D00122C649891C3B20C7
:101F3000FFF762F91FE0C5488068002806D001223B
:101F4000C049C91C3B20FFF757F914E0BF48C068DF
:101F5000002806D00122BB49091D3B20FFF74CF9A0
:101F600009E0BA480069002805D00122B549491D99
:101F70003B20FFF741F9032280214220FFF73CF983
:101F80000522FF2101314220FFF736F90020B04938
:101F900048708870C870A648C07808710021722007
:101FA000FFF796FDA2E02EE063E00220A64908605C
:101FB0000022A449891C3B20FFF71EF9A348806832
:101FC000002806D001229F49C91C3B20FFF714F9C5
:101FD00014E09E48C068002806D001229949091DD6
:101FE0003B20FFF709F909E098480069002805D06F
:101FF00001229449491D3B20FFF7FEF8052172207C
:10200000FFF766FD72E003208F49086000228D49CA
:10201000C91C3B20FFF7F0F88C48C068002806D0A8
:1020200001228849091D3B20FFF7E6F809E08748AF
:102030000069002805D001228249491D3B20FFF795
:10204000DBF8052280214220FFF7D6F80022FF218D
:1020500001314220FFF7D0F800207D494870887098
:10206000C87073484079087100217220FFF730FD75
:102070003CE004207449086000227249091D3B209D
:10208000FFF7BAF871480069002805D001226D49B0
:10209000491D3B20FFF7B0F800206D49487088705B
:1020A000C87063488079087100217220FFF710FD25
:1020B0001CE000206449086000226249491D3B2061
:1020C000FFF79AF86348808982B280214220FFF7A7
:1020D00093F86048008882B2FF2101314220FFF767
:1020E0008BF805217220FFF7F3FC00BFC9E60498C6
:1020F00078287DD15149E01C0D5C201D0E5C002D1F
:1021000077D1002E02D0012E74D1A9E002205249CD
:102110000860002280214220FFF76EF80022FF2194
:1021200001314220FFF768F820224049891D3D20F7
:10213000FFF762F80122032109024220FFF75CF851
:1021400001220721C9014220FFF756F843480278CF
:10215000364908313D20FFF74FF8404800783C21D0
:1021600048430246334910394420FFF745F83B48BD
:1021700000782F498870394882782C490A313D20EF
:10218000FFF73AF8354880783C2148430246294910
:102190000C394420FFF730F8304880782449C87063
:1021A0002E48027921490C313D20FFF725F82B48B4
:1021B00000793C21484302461E4908394420FFF774
:1021C0001BF8264800791A49087124488279174972
:1021D0000E313D20FFF710F8204880793C2148431C
:1021E00002461449091F4420FFF706F81B4802E085
:1021F000D5E35CE05AE080790D4948711748027ACE
:102200000A4910313D20FEF7F7FF1448007A3C21BF
:102210004843024607494420FEF7EEFF0F48007A84
:102220000349887142E00000CF010020FCFF070055
:10223000D0010020F4FF0200FF4F000094020020B4
:10224000240F002000FFFF0030020020100F0020AC
:10225000240200203C0F0020EC0100206A14002022
:102260000120FE490860FE480278FE493D20FEF745
:10227000C3FFFB488278FB49891C3D20FEF7BCFF69
:10228000F7480278F7493D20FEF7B6FFF44800789A
:10229000F5490870F2488278F249891C3D20FEF722
:1022A000ABFFEF488078F049487000BF71E3012D23
:1022B00070D1330002F08CFB0BFD83830784E7FCB5
:1022C000A3C5FBFA83000120E84908600020E84923
:1022D00008600122E34920313D20FEF78DFF0022F6
:1022E000E04922313D20FEF787FF0122DE49DD482B
:1022F0001C3801F0C8FF0122DB49491CD9481A38B3
:1023000001F0C1FFDB48006800280FD1DA494870AE
:102310008870C870D448007808710020D749487088
:102320008870C870D048007808710FE00020D2494A
:1023300048708870C870CC48407808710020CF4938
:1023400048708870C870C8484078087100217220B1
:10235000FFF7BEFBCA48006800281CD1C5480068CA
:10236000002809D1C04800783C2148430246C549AD
:102370004420FEF741FF11E0BE48006801280DD15E
:10238000B94840783C2148430246BE494420FEF704
:1023900033FF03E01BE10020B94908600122BA497C
:1023A0003B20FEF729FF0122FF2181314220FEF769
:1023B00023FF01220521C9014220FEF71DFF05E18F
:1023C0000120AB4908600020A84908600022A54907
:1023D00020313D20FEF710FF0122A24922313D208D
:1023E000FEF70AFF05217220FFF772FB0022A649C3
:1023F0003B20FEF701FF0120A1490860E6E0012033
:10240000A24908600020A2490860012295492431B0
:102410003D20FEF7F1FE0022924926313D20FEF7D5
:10242000EBFE00209B490860934908700021722050
:10243000FFF74EFB01220521C9014220FEF7DCFE19
:10244000C4E0002091490860012091490860012200
:10245000844926313D20FEF7CFFE002281492431F8
:102460003D20FEF7C9FE01208A49086082490870B4
:1024700000217220FFF72CFB00220521C901422018
:10248000FEF7BAFEA2E001208349086000208349DC
:1024900008600122734928313D20FEF7ADFE00227D
:1024A00070492A313D20FEF7A7FE03E034E043E007
:1024B00008E021E000207149087000217220FFF738
:1024C00007FB83E00120754908600020724908601D
:1024D000012264492A313D20FEF78EFE0022614927
:1024E00028313D20FEF788FE012064490870002154
:1024F0007220FFF7EDFA69E000205E4908600122D2
:1025000058491C313D20FEF777FE002255491E3107
:102510003D20FEF771FE59E0012056490860012276
:1025200050491E313D20FEF767FE00224D491C3107
:102530003D20FEF761FE49E0002252494420FEF7AB
:102540005BFE002250493B20FEF756FE052172201B
:10255000FFF7BEFA0022434920313D20FEF74CFE32
:102560000022404922313D20FEF746FE00223D492F
:1025700024313D20FEF740FE00223A4926313D201D
:10258000FEF73AFE0022374928313D20FEF734FE9F
:10259000002234492A313D20FEF72EFE0022314927
:1025A0001C313D20FEF728FE00222E491E313D2021
:1025B000FEF722FE00222B493D20FEF71DFE0022E1
:1025C0002849891C3D20FEF717FE00BFE1E1022DDE
:1025D00043D1330002F0FCF907CDCC75057698B2F3
:1025E000750001202E49086000202E490860012254
:1025F0001C4930313D20FEF7FFFD002219493231E0
:102600003D20FEF7F9FD012280214220FEF7F4FD76
:102610000322FF2101314220FEF7EEFD0020164982
:10262000087048708870C8700F4880780871002062
:10263000124948708870C8700B4880780871002172
:102640007220FFF745FA17480068012834D1164870
:1026500000680D4A521C29E0A5E1EFE0EC010020E2
:10266000840200200E000800D0010020FC010020A0
:1026700000020020F801002024020020290200208E
:10268000F4010020E0FF020000FFFF000402002030
:1026900008020020E00100200C02002010020020AF
:1026A00014020020180200203002002081180122AC
:1026B0003B20FEF7A1FD04E00122FA493B20FEF792
:1026C0009BFDBAE00020F84908600120F749086046
:1026D0000022F7493D20FEF78FFD0122F449891CB5
:1026E0003D20FEF789FD05217220FFF7F1F9002753
:1026F00007E0EC48401E391800223B20FEF77CFD25
:102700007F1C052FF5DB98E00120EA4908600020D6
:10271000E94908600122E649091F3D20FEF76CFDEA
:102720000022E349891E3D20FEF766FD0020E349B3
:10273000087000217220FFF7CBF97EE00020DD4910
:1027400008600120DC4908600022D949091F3D20AA
:10275000FEF752FD0122D649891E3D20FEF74CFDB1
:102760000120D649087000217220FFF7B1F964E01A
:1027700063E0002280214220FEF73EFD0022FF217F
:1027800001314220FEF738FD05217220FFF7A0F944
:10279000012707E0C348401E391800223B20FEF7FE
:1027A0002BFD7F1C052FF5DB0022C1493D20FEF7E4
:1027B00023FD0022BE49891C3D20FEF71DFD00229D
:1027C000BB49091F3D20FEF717FD0022B849891EAD
:1027D0003D20FEF711FDBA4880783C21484302466F
:1027E000B8494420FEF708FDB548C0783C2148436D
:1027F0000246B449091D4420FEF7FEFCB0480079AA
:102800003C2148430246AF4908314420FEF7F4FC1E
:10281000AB4840793C2148430246AA490C31442048
:10282000FEF7EAFCA64880793C2148430246A549C8
:1028300010314420FEF7E0FC00BFAAE0032D71D167
:10284000701F030002F0C4F807051A2F4459A36F44
:10285000A4009D480068002801D1012000E000206C
:10286000994908600020994908609748008882B219
:102870008F491E393D20FEF7BFFC89E09248406831
:10288000002801D1012000E000208F49486001208C
:102890008E4908608C48808882B285491C393D2069
:1028A000FEF7AAFC74E088488068002801D1012066
:1028B00000E0002084498860022084490860824842
:1028C000008982B27A491A393D20FEF795FC5FE013
:1028D0007D48C068002801D1012000E000207A492D
:1028E000C8600320794908607748808982B27049BE
:1028F00018393D20FEF780FC4AE073480069002843
:1029000001D1012000E000206F49086104206F49D7
:1029100008606D48008A82B2654916393D20FEF78D
:102920006BFC35E035E0002700200190009013E0BB
:10293000B8006549085801280DD10098401C009046
:10294000781C01998900624A505005210198401C69
:1029500001F0B4FD01917F1C052FE9DB009804E034
:10296000002182005A4B9950401C0528F8DB58483A
:10297000008882B280214220FEF73EFC54488088C5
:1029800082B2FF2101314220FEF736FC00E000BF99
:1029900000BF204609304F490840029003E0601C08
:1029A0004C4908400290029805B0F0BDFEB54A4877
:1029B00004684A480568A54203D2012080022F1806
:1029C00000E02F460020019000BF4548005D0090C8
:1029D0000098AA2864D14249601C0E5C772E40D131
:1029E000381B0B283AD320460830085CCC2815D178
:1029F00020460930085C332810D120460A30085C94
:102A0000C3280BD120460B30085C3C2806D1204659
:102A1000FFF71FF930490860012001903049204636
:102A20000A30085CCC2816D120460B30085C3328CD
:102A300011D120460C30085CC3280CD120460D3043
:102A4000085C3C2807D12046FFF703F922490860BB
:102A50000120019061E0022001905EE003200190DE
:102A60005BE0782E44D1381B08283ED31C49601DFA
:102A7000085CCC2836D1A01D085C332832D1E01D7B
:102A8000085CC3282ED120460830085C3C2829D198
:102A90002046FFF7DEF810490860012001903CE075
:102AA00037E0000001FFFF001402002018020020A0
:102AB0003E0008001C020020200200202902002005
:102AC000D0010020E4FF0200100F0020F0010020E0
:102AD0003C0F0020FF4F0000400200204402002075
:102AE000940200200220019017E00320019014E0DE
:102AF000432E07D12046FFF7ACF8FE4908600120BD
:102B000001900AE0002E08D0601CFB4908400446F2
:102B100003E0601CF84908400446AC4203D0019829
:102B2000002800D151E70198002802D0019802281E
:102B300001D1F0480560FEBDF8B50446EF49601CC0
:102B40000F5C6F2F04D10830EB49084006466DE05A
:102B50003F2F3ED1E949E01C085C4138E849087044
:102B6000E649201D085CE6494870E449601D085CA0
:102B7000E3498870E149A01D085CE149C870DF495C
:102B8000E01D085CDE490871DC4920460830085C1D
:102B90004138DC490870D94920460930085CD949D8
:102BA0004870D64920460A30085CD6498870D34917
:102BB00020460B30085CD349C870D04920460C3001
:102BC000085CD049087120460930CB4908400646C8
:102BD0002CE0662F24D103251BE0C848405D312836
:102BE00015D100216320FEF773FFE81E030001F0FA
:102BF000EFFE0805060708090A0B0C0D06E005E0C4
:102C000004E003E002E001E000E000BF00BF681C58
:102C1000C5B20B2DE1DB601CB7490840064605E054
:102C2000882F03D0601CB449084006463046F8BDE2
:102C3000F0B585B0B4480468B4480668A64203D22B
:102C400001208002371800E037460020039000BFC3
:102C5000AA48005D029002987E287DD1A749601C99
:102C60000D5C6F2D14D1381B06280ED3601D085C37
:102C70000D2807D12046FFF75FFF9E49086001201D
:102C800003909AE00220039097E00320039094E0E1
:102C90003F2D40D1381B10283AD301209C49088091
:102CA0000BE096489A490988415C01980818019000
:102CB00097480088401C96490880954800880D2850
:102CC000EFDB0198C0B20090924920460D30095CBC
:102CD00000983030F0221040814216D18D492046B4
:102CE0000E30095C00980007000F81420DD1894920
:102CF00020460F30085C0D2807D12046FFF71CFF47
:102D00007C4908600120039057E00220039054E0C2
:102D10000320039051E0662D42D1381B0E283CD38E
:102D200001207B4908800BE0744879490988415C9F
:102D300001980818019076480088401C7449088062
:102D4000734800880B28EFDB0198C0B200907149EE
:102D500020460C30095C00E02BE000983030F02277
:102D60001040814216D16B4920460D30095C009815
:102D70000007000F81420DD1664920460E30085CE5
:102D80000D2807D12046FFF7D7FE5A4908600120D9
:102D9000039012E0022003900FE0032003900CE068
:102DA000882D0AD0002D08D0601C534908400446E5
:102DB00003E0601C504908400446B44203D0039825
:102DC000002800D144E70398002802D00398022885
:102DD00001D14848066005B0F0BD10B501F007F913
:102DE0004D4908700A214C48007801F067FB05291D
:102DF00008DB0A21484800780A3001F05FFB4649A9
:102E0000087006E00A214448007801F057FB424967
:102E100008704148027841493D20FEF7EDF910BDA8
:102E200070B505460C46022C06D100203C490870BE
:102E300048708870C87006E0A8783949087000208A
:102E400048708870C870374844700821344800F0D2
:102E5000BEFD35490860084600783149887032481F
:102E600000880004000EC870022029490880002054
:102E70002E49088010E02D4801880088401C2B4A0C
:102E800010802748415C2748214A128881542048F5
:102E90000088401C1E4908801D4800880628EADB7F
:102EA00070BD10B572213F20FEF712FE10BD10B5A7
:102EB00066213F20FEF70CFE10BD10B57D21C90034
:102EC0001B48006801F0FAFA00293DD16421194835
:102ED000006801F0F3FA002903D1FFF7E2FFFFF7E2
:102EE000E6FF14480068144988422ADA114800684D
:102EF000401C23E040020020FF4F00009406002009
:102F00002402002029020020480200204C02002058
:102F1000BE01002094020020BC010020000808002F
:102F2000B8010020C8010020C4010020C001002019
:102F3000340200203802002050C300000A49086013
:102F400002E00020084908600848006808498842F3
:102F500005DA06480068401C0449086002E00020C9
:102F60000249086010BD0000380200203402002031
:102F700050C30000C020DF494862DF48DF490860D5
:102F800000BFDE4800680121890708400028F8D109
:102F9000C320D8494862DA4800680321890388437E
:102FA000012189030843D6490860084600680321C7
:102FB00089038843D2490860084600680321090351
:102FC0008843012109030843CD4908600846C069C8
:102FD000032109028843FF2101310843C849C86120
:102FE0000846C0694008400001210843C449C8613F
:102FF0000846C06904218843C149C8610846C069C0
:10300000082188430843BE49C8610846C069702149
:103010008843BB49C8610846006A302188431021B3
:103020000843B749086200BFB648006A891588435B
:10303000B449086200BF0020B24940398969F822CA
:103040009143B04A403A91611146896901439161C7
:1030500000BF00BFAB48006A51158843A949086208
:1030600000BF0020114689691F22D2029143A54A60
:10307000403A91611146896902021143A14A403ADE
:10308000916100BF0320002805DBC206D20E01219A
:1030900091409D4A116000BF0320002805DBC20655
:1030A000D20E01219140994A116000BF704710B5BE
:1030B00000F012F9002870D100F015F900287ED137
:1030C00093480068012820D19248006800280BD15D
:1030D00091480078401CC0B28F49087002468F4961
:1030E0003D20FEF789F8F0E08A4800680128FAD10F
:1030F00089484078401CC0B28749487002468749D9
:10310000891C3D20FEF778F8DFE08148006802283E
:10311000E9D18348006800280CD17F488078401CA2
:10312000C0B27D49887002467C490A393D20FEF7CD
:1031300063F8CAE07A48006801280CD17648C07864
:10314000401CC0B27449C8700246744908393D2019
:10315000FEF752F8B9E07248006802280CD16E48B8
:103160000079401CC0B26C49087102466B49891F46
:103170003D20FEF741F8A8E06948006803280DD11A
:1031800065484079401CC0B26349487102466349B2
:10319000091F3D20FEF730F897E010E06048006816
:1031A0000428A0D15C488079401CC0B25A4988717B
:1031B00002465A49891E3D20FEF71EF885E000F0C0
:1031C0008BF8FF21013188427FD100F08CF8002874
:1031D0007BD14F48006801281FD14E480068002865
:1031E0000BD14D480078401EC0B24B4908700246D2
:1031F0004A493D20FEF700F80FE0464800680128E4
:103200000BD145484078401EC0B243494870024641
:103210004249891C3D20FDF7EFFF3D480068022828
:1032200053D13F48006800280CD13B488078401EAD
:10323000C0B239498870024638490A393D20FDF745
:10324000DBFF42E03648006801280CD13248C078E4
:10325000401EC0B23049C8700246304908393D208E
:10326000FDF7CAFF31E02E48006802280CD12A4839
:103270000079401EC0B22849087102462749891FBB
:103280003D20FDF7B9FF20E02548006803280CD158
:1032900021484079401EC0B21F49487102461F496B
:1032A000091F3D20FDF7A8FF0FE01D480068042816
:1032B0000BD119488079401EC0B217498871024667
:1032C0001649891E3D20FDF797FF0D484069802172
:1032D00088430B49486110BD0A484038406AFF21C5
:1032E00001310840704707484038406A01214902CF
:1032F00008407047000001400004F03F0003014017
:10330000000601404002044080E200E000E100E0ED
:10331000EC010020F8010020D00100200E00080080
:10332000F00100208020114909691F22D202914337
:103330000E4A116111460969020211430B4A1161DB
:1033400000BF00BF114609691F22D2049143074AFA
:1033500011611146096902041143044A116100BF59
:1033600000BF04201146486000BF704700000440C1
:1033700010B500F04DF900F05DF8FDF7C9FEC02072
:103380002549486204202549086125480860C32072
:103390002149486200F07EFC00F0BDFC00F016FD03
:1033A000152000F02FF8152000F023F8162000F06B
:1033B00029F8162000F01DF8FFF7DCFDFFF7B2FF3B
:1033C00010BD00BF17481849486000BF8020096938
:1033D00049014909144A116111460969020611435C
:1033E000114A116100BF00BF08201146486000BFAC
:1033F0007047002805DBC206D20E012191400B4A1E
:1034000011607047002805DBC206D20E01219140F1
:10341000074A1160704700000000014000030140AE
:103420000004F03F020002000000044000E100E060
:1034300080E200E010B5C020FE494862FE48006905
:1034400008210843FC490861FC48086000BFFA48AD
:1034500000680121890708400028F8D1C320F549F8
:103460004862B820F6490969F8229143F44A11618B
:10347000114609690143116100BF00201146096925
:103480001F22D2029143EE4A1161114609690202DC
:103490001143EB4A116100BF0920C006C068032137
:1034A00008430921C906C860084600690321890349
:1034B00088430121C90308430921C9060861084658
:1034C0000069800A8002DF4908430921C9060861B2
:1034D0000846C069032108430921C906C861084696
:1034E00040690321090288430921C9064861084649
:1034F00040691F2189028843092189020843490440
:10350000486108464069D04908400321090408433E
:103510000921C90648610846406B022188430843D7
:103520000921C90648630846406B03210902884304
:10353000911508430921C90648630846406B3F219D
:10354000090488430721090408430921C90648637F
:103550000846406B0F2109068843072109060843E6
:103560000921C90648630846806B03218902884304
:10357000111508430921C90688630846806B911517
:10358000884308430921C90688630846C06B400880
:103590004000012108430921C906C8630846C06BE1
:1035A000022188430921C906C8630846C06B1F2150
:1035B00009028843092109020843C904C863A348D2
:1035C00080680121490388430843A0498860084670
:1035D000006800090001022108439C490860084670
:1035E000006803210902884398490860084600687A
:1035F0000902884308439549086095480921C9068E
:1036000088610B2000F034FA0B2000F028FA10BD7E
:1036100010B5C020874948628748006908210843DF
:10362000854908618548086000BF8348006801211A
:10363000890708400028F8D1C3207E494862B82095
:103640007F4909691F22D20491437D4A11611146C5
:103650000969020411437A4A116100BF0020114632
:1036600009694901490911611146096902061143B5
:10367000734A116100BF7748C069C008C0000121CA
:1036800008437449C8610846C0690121084371496B
:10369000C8610846C068032108436E49C8600846EF
:1036A000006903218903884301218903084369498B
:1036B000086108460069800A80027321C900084336
:1036C0006449086108464069032109028843614949
:1036D0004861084640691F21890288430321890205
:1036E00008435C49486108464069574908405949C0
:1036F00048610846406B02218843084355494863A6
:103700000846406B0321090288439115084351493B
:1037100048630846406B3F21090488430721090498
:1037200008434C4948630846406B0F21090688430B
:10373000072109060843474948630846806B03216F
:103740008902884311150843424988630846806B03
:103750009115884308433F4988630846C06B400879
:103760004000012108433B49C8630846C06B022161
:1037700088433849C8630846C06B1F210902884343
:103780000921090208433349C86332484030806840
:1037900001214903884308432E4940318860084687
:1037A000006800090001022108432A4940310860ED
:1037B0000846006803210902884326494031086011
:1037C00008460068012189038843084321494031A4
:1037D000086021481F4988610C2000F049F90C203D
:1037E00000F03DF910BD19488068012189030840A7
:1037F000800B002857D01548C06888431349C8601B
:10380000084640691549164A126888540846144902
:103810000968405C0D2804D012480068401C11491A
:1038200008600A484069104908800D480068401C3B
:103830000B491BE000000140000301400004F03F81
:10384000000104404E020000FFFF00FC4000004861
:1038500022220200000200483333030094020020B9
:10386000440200205C02002052020020086008464A
:10387000006801218902884202D300208149086042
:10388000814800680C2803D101208049087002E0BB
:1038900000207E4908707E48C06840084000012131
:1038A00008437B49C86070477A48806801218903D2
:1038B0000840800B00283AD07648C0688843754994
:1038C000C860084640697449744A126888540846BA
:1038D00072490968405C0D2804D071480068401C9A
:1038E0006F4908606B4840696E4908806B48006802
:1038F000401C6A4908600846006801218902884224
:1039000002D3002065490860654800680F2803D18C
:1039100001206349086002E00020634908706348A1
:10392000C06840084000012108436049C8607047F2
:1039300010B556480078012807D15D480068514904
:103940000968884201D0FFF731F810BD10B556481C
:103950000078012807D15748006850490968884213
:1039600001D0FFF765F910BD00BF4A4989680122FF
:10397000520311400029F8D04649C9681143454A0D
:10398000D160444940310860704700BF41498968AF
:103990000122520311400029F8D03E49C968114361
:1039A0003C4AD1603B4940314860704700BF4249C2
:1039B00089680122520311400029F8D03E49C968A4
:1039C00011433D4AD1603C4940314860704770B571
:1039D00002460B463948002113E0555C684000243C
:1039E0000BE0C507ED0F002D04D04508344E75409F
:1039F000284600E04008651CECB2082CF1DB4D1CA9
:103A0000E9B29942E9DB70BD00B585B003460020FC
:103A10002C49087009E03F2168460180012141805E
:103A200028480078401C2749087026480078092853
:103A3000F1DB0020234908700BE022490978490096
:103A40006A46505AFFF790FF1E480078401C1D49F7
:103A500008701C4800780A28EFDB05B000BD00287C
:103A600005DBC206D20E01219140174A1160704752
:103A7000002805DBC206D20E01219140134A1160D5
:103A800070470000440200205C0200203C0200203D
:103A90000001044840020048940600204C02002027
:103AA00060020020520200203D0200200002044873
:103AB000400200204802002040000048FFFF0000B4
:103AC00001A00000BE01002000E100E080E200E073
:103AD00010B504224F49504800F0C4FB0A224F4958
:103AE0004D48001D00F0BEFB10BD10B52022910313
:103AF0003D20FDF781FB002249494420FDF77CFB76
:103B0000002248493B20FDF777FB002242493A3129
:103B10003D20FDF771FB00223F4938313D20FDF784
:103B20006BFB0122FF2181314220FDF765FB012261
:103B30000521C9014220FDF75FFB202236491031E3
:103B40003D20FDF759FB0122032109024220FDF728
:103B500053FB01220721C9014220FDF74DFB002242
:103B600080214220FDF748FB012211024220FDF78F
:103B700043FB012228492E313D20FDF73DFB01206A
:103B8000294908600022244930313D20FDF734FBEB
:103B90000122214932313D20FDF72EFB012022492F
:103BA000886000221C4934313D20FDF725FB0122AD
:103BB000194936313D20FDF71FFB01201A490861E4
:103BC000002217494420FDF717FB002215493B202E
:103BD000FDF712FB00221349491C3B20FDF70CFBAB
:103BE00000221049891C3B20FDF706FB00220D49ED
:103BF000C91C3B20FDF700FB00220A49091D3B20A0
:103C0000FDF7FAFA00220749491D3B20FDF7F4FAB7
:103C100010BD000084020020F2FF07006A1400209B
:103C2000E0FF020000FFFF00100F00208A48006A3A
:103C3000C007C00F002812D08748006B012108433D
:103C400085490863012085490870834880380069E8
:103C500040084000012108437F49803908617047CE
:103C60007F48006AC007C00F002812D07C48006B54
:103C7000012108437A49086301207A49087076488F
:103C800080300069400840000121084372498031BA
:103C9000086170477448C068FF21013188430843B8
:103CA0007149C8606C488038406A000900010A21E7
:103CB00008436949803948620846406B000C00049B
:103CC00032210843644980394863674800694008E5
:103CD000400001210843644908610846C068400863
:103CE0004000012108436049C8605B48406A4008C1
:103CF000400001210843584948620846806A80080C
:103D00008000886254488038006940084000524969
:103D10008039086170475448C068FF2101318843E9
:103D200008435149C8604C488030406A000900018E
:103D30000A2108434849803148620846406B000C1C
:103D400000043221084344498031486346480069F1
:103D5000102188430843444908610846C06802218D
:103D6000884308434049C8603D48406A40084000D5
:103D7000012108433A4948620846806A8008800069
:103D80000121084336498862334880300069400881
:103D900040000121084330498031086170473348B1
:103DA000006AC007C00F00280FD03048006B012107
:103DB00008432E4908632A488030006940084000C3
:103DC0000121084326498031086170472648C068B0
:103DD000FF210131884308432349C86020488030CF
:103DE000406A00090001032108431D4980314862EF
:103DF0000846406B000C000401210843184980313B
:103E0000486319480069FF21013188430843164976
:103E100008610846C0680421884308431249C86005
:103E20001248406A40084000012108430F49486297
:103E30000846806A80088000012108430B49886297
:103E400007488030006940084000012108430449C8
:103E50008031086170470000800104483C02002066
:103E6000800204483D02002000000448800304480A
:103E700010B50024102000F0F2F800BF8248406A1C
:103E8000C007C00F8149086004E0601CC4B2012073
:103E900000F006F900BF7E48406AC007C00F002846
:103EA00001D0C82CF1DBC82C01DB012010BD00249F
:103EB00004E0601CC4B2012000F0F2F800BF7448B6
:103EC000406AC007C00F002801D1F02CF1DBF02CB4
:103ED00001DB0120EAE709206E4908700020E5E7D0
:103EE00010B5802000F0BBF800F0C8F86A4800F078
:103EF000D7F800F0BFF80F2000F0D2F810BD10B5D1
:103F000000BF63484030006A4008400060494031CB
:103F1000086200BF802000F0A2F800F0ABF8FFF7C5
:103F2000DFFFFFF7A5FF10BD10B5802000F097F868
:103F300000F0A4F8022000F0B3F800F09BF8102085
:103F400000F08DF80C2000F0ABF800BF5048406A3C
:103F5000C007C00F002801D0012400E00024322057
:103F600000F09EF8204610BD70B50026012508E03F
:103F7000FFF7DAFF0446E00171100843C6B2681C7F
:103F8000C5B2082DF4DD304670BD70B50446802002
:103F900000F065F801251BE0E607F60F6410002E1F
:103FA0000AD000F06BF8022000F07AF800F062F816
:103FB0003C2000F075F809E000F060F83C2000F0CB
:103FC0006FF800F057F8022000F06AF8681CC5B2DC
:103FD000082DE1DD70BD10B5FFF782FFFFF748FF48
:103FE000CC20FFF7D2FF4420FFF7CFFF10BDF0B584
:103FF00085B0FFF7F0FFFFF773FFFFF739FFCC2025
:10400000FFF7C3FFBE20FFF7C0FFFFF7ADFF074676
:10401000FFF7AAFF0446072C05DDE043C4B2F843CE
:10402000C7B2002600E001262546280205B2E8199D
:1040300005B2284600F03FFB0022184B019100908A
:1040400000F044FB0391029000F0DEFA05B2002E6E
:1040500002D0284605B0F0BD684200B2FAE70C492C
:104060000969F82291430A4A11611146096901431D
:104070001161704701200649486070470120000423
:104080000349486070470000000004408C02002093
:104090000002044090020020EE0200000000E43F15
:1040A000002101E000BF491C8142FBDB704730B5B5
:1040B000034600240AE0002503E00120FFF7F0FF9B
:1040C0006D1C7D20C0008542F7DB641C9C42F2DB46
:1040D00030BD0948C0684008400001210843064936
:1040E000C860704700B50246002302E0FFF7F1FF09
:1040F0005B1C9342FADB00BD000304480C480069D6
:104100000121490208430A4908610120094908615F
:10411000C01E48610848486070470648C0680549A5
:104120000969884202D30548024988607047000047
:10413000000301400000024001FF0000FECAADABD9
:1041400010B500F0B1F810BD70B50446002600F0BF
:10415000BFF8A02000F028F900F0E0F8201200F0ED
:1041600023F900F0DBF82546E117090E4919091279
:104170000902611AC8B200F017F900F0CFF800F098
:10418000A7F8A12000F010F900F0C8F8002000F016
:104190003AF9064600F0AFF8304670BD70B50446F7
:1041A0000E4600F095F8A02000F0FEF800F0B6F8FA
:1041B000201200F0F9F800F0B1F82546E117090ED9
:1041C000491909120902611AC8B200F0EDF800F0AD
:1041D000A5F8304600F0E8F800F0A0F800F08BF801
:1041E0000A20FFF764FF70BDF8B505460E46174676
:1041F000002409E0E2003346D340D9B22A1990B234
:10420000FFF7CCFF601CC4B2BC42F3DBF8BDF8B5CD
:1042100007460C460026002509E036023919491BDD
:10422000491E88B2FFF790FF8619681CC5B2A542E7
:10423000F3DB3046F8BD10B5FF20FFF785FF0446DD
:10424000552C01D1002010BD5521FF20FFF7A6FFFE
:10425000FF20FFF779FF0446552C01D10020F2E73B
:104260000120F0E770B506460C46154608E03146D9
:10427000761C88B2FFF768FF2070641C681E85B248
:10428000002DF4D170BD70B504460D46164605E00C
:104290002978A0B2FFF782FF641C6D1C3046711EA6
:1042A0008EB20028F4D170BD10B580207C49096918
:1042B000F82291437A4A116111460969014311615B
:1042C00000BF00F0D0F800F0C5F800F0DAF810BD3B
:1042D00010B5802000F0C7F800F0D3F800F0BAF86D
:1042E0000420FFF7DDFE00F0D1F80420FFF7D8FE30
:1042F00000F0B4F810BD10B5802000F0B4F800F064
:10430000ADF800F0C3F80420FFF7CAFE00F0A2F8F1
:1043100000F0B7F80420FFF7C3FE10BD10B500246D
:10432000102000F0A0F800F0ACF80120FFF7B8FE74
:1043300000F090F80120FFF7B3FE07E0601CC4B264
:10434000FA2C03DDFFF7D7FF012010BD00F0A3F822
:104350000028F3D100F082F80020F6E710B500F055
:104360007DF8802000F07FF800F090F80220FFF741
:1043700097FE00F06FF80220FFF792FE00F06EF853
:1043800010BD10B500F06AF8802000F06CF800F065
:1043900078F80220FFF784FE00F05CF80220FFF7B7
:1043A0007FFE00F05BF810BD70B50446802000F081
:1043B0005AF800F053F8002522E080202040C01178
:1043C0003849087008460078002802D100F05EF8ED
:1043D00005E034480078012801D100F052F8600669
:1043E000040E0220FFF75CFE00F034F80220FFF715
:1043F00057FE00F033F80220FFF752FE681CC5B2EA
:10440000082DDADB70BD70B505460024102000F0E1
:104410002AF8002613E000F021F80220FFF740FE02
:1044200000F018F86006040E00F035F8002801D0FE
:10443000601CC4B20120FFF733FE701CC6B2082E08
:10444000E9DB002D02D1FFF79CFF01E0FFF786FFBB
:10445000204670BD012012494860704701200004C9
:104460000F49486070470E4909691F22D2029143E3
:104470000B4A11611146096902021143084A116190
:10448000704702200649486001207047012040041F
:104490000349486070470248406A0221084070475B
:1044A0000000044092020020002203098B422CD31A
:1044B000030A8B4211D300239C464EE003460B4374
:1044C0003CD4002243088B4231D303098B421CD3D6
:1044D000030A8B4201D394463FE0C3098B4201D3C8
:1044E000CB01C01A524183098B4201D38B01C01A00
:1044F000524143098B4201D34B01C01A5241030977
:104500008B4201D30B01C01A5241C3088B4201D325
:10451000CB00C01A524183088B4201D38B00C01AD2
:10452000524143088B4201D34B00C01A5241411AF9
:1045300000D201465241104670475DE0CA0F00D0DC
:104540004942031000D34042534000229C460309D5
:104550008B422DD3030A8B4212D3FC22890112BA5B
:10456000030A8B420CD3890192118B4208D3890133
:1045700092118B4204D389013AD0921100E089094B
:10458000C3098B4201D3CB01C01A524183098B422C
:1045900001D38B01C01A524143098B4201D34B0115
:1045A000C01A524103098B4201D30B01C01A524178
:1045B000C3088B4201D3CB00C01A524183088B42FF
:1045C00001D38B00C01A5241D9D243088B4201D388
:1045D0004B00C01A5241411A00D201466346524173
:1045E0005B10104601D34042002B00D54942704772
:1045F00063465B1000D3404201B50020C046C04670
:1046000002BD70477047704730B50346CA02400D7F
:104610001043164D164C0A1502D02043002A06DB23
:10462000AA1A002A12DDD040FF2A0BDC30BD520549
:10463000520D01D140004008AA1A07D4D040404290
:10464000FF2A01DD002030BD0028FCDD4A00002BE0
:1046500001D0012000E00020101801225205D042B4
:10466000F0D8C817C043604030BD00001E040000F1
:10467000000000801F22030C02D10F22000402D090
:10468000030E03D004E00020014670470002083A00
:10469000030F01D10001121F830F01D18000921E70
:1046A000002801DB4000521E120551184205C012BD
:1046B000411810467047C10FC90700D0404201227F
:1046C00092071143D6E701218907D3E7F0B58B4C58
:1046D0000F09254689B0BD437BD01D092646AE4350
:1046E000FAD00E465E402740F60F3E43254071D07B
:1046F00024012142FBD0FF24AD19A4042D1B0395F6
:1047000001252D05DB02DB0AC9022B43C90A294317
:104710001E010901040F130F050121431701880B26
:10472000820391432D098C46A90B1E438A039543AE
:10473000B30B9A0396433F09BA0B9403A74302961F
:104740002E467E430497B6464E19D7190C4601965D
:10475000544305977E43371B7646BF1B3601B6464A
:10476000BE0B361900967646BC043719009C01D35F
:10477000641C00946400002F01D001263443029E83
:10478000049F754366467E430496760034196E0096
:1047900034190094029C019E1C196643751BAE4699
:1047A000069465464519059C05956C435943754625
:1047B0000891691A0191049E01465143A41B04917A
:1047C000611A009C0791E10605D06109012211439D
:1047D00002E072E06EE06109089D00272C0A2D06B8
:1047E0006918049D7C412A0A2D066918019D6241C1
:1047F000AC0DAD026D185441079A910D92025519F6
:104800006141029A644658435443069B059A5A43B1
:10481000121A131B9A0E9B015B187A41010B0005BB
:10482000C3185141220A200644195A419A4200D223
:10483000491C01204002814203D315230226F6437E
:1048400002E014230326F6432020C51AA940174688
:10485000AF40DA400A4320460399D8400914731840
:1048600019055118039A3843D2075140AC4009D07A
:104870000122944006D30022401C5141002C01D15A
:10488000400840001E4A934212D301220398920628
:10489000904207DB0520400709181A480143C0125F
:1048A000414004E0032040070818C10FC907002059
:1048B00009B0F0BD0020F107FAE705180C464C419D
:1048C00011486D42A04115D394181A465A410E481A
:1048D000644290410ED301204A004005824209D330
:1048E0005A00824206D35940C90F084AC90700201E
:1048F0001143DDE700200649DAE700000000FF076A
:10490000FE070000FFFFFF7F0000E0FF0000F07FD8
:104910000000F87F754600F025F8AE4605006946B0
:104920005346C008C000854618B020B5FCF7D2FB3E
:1049300060BC00274908B6460026C0C5C0C5C0C532
:10494000C0C5C0C5C0C5C0C5C0C5403D49008D4635
:10495000704710B50446C046C0462046FCF799FB98
:1049600010BD000000487047741400200149182051
:10497000ABBEFEE726000200704770B58C180578C4
:10498000401C6B075B0F01D10378401C2A1106D134
:104990000278401C03E00678401C0E70491C5B1E28
:1049A000F9D12B0705D40023521E0DD40B70491CDE
:1049B000FAE70378401CCB1A921C03E01D780D70B7
:1049C000491C5B1C521EF9D5A142D8D3002070BDF2
:1049D00030B47446641E2578641CAB4204D3635D16
:1049E0005B00E31830BC18471D46F8E70C4A00107E
:1049F00000000020940200007A490010AC4A001028
:104A000094020020441800005C1000108D2F48FE16
:104A1000E70411CA4710E904A920290C0922040956
:104A20002A2C0924041A20045A2E0441320132028D
:104A300013C310331004320532063207320832092C
:104A4000320A1AC520320C320D1AC70C13C3331B9D
:104A500010CB086904CBAF301029043218690C134D
:104A6000E7370C1010A93824E904132D3C1B106102
:104A7000040B1C9F3D2841580BBACDC3E6B9B4BF07
:104A8000ECCBD90B5BC2FD0B7BCDB0163BCDB0168A
:104A900017CEDEB2D9D7F7059DD4DDCDA3080834F3
:0C4AA000010203040506073C220100008F
:0400000510001019BE
:00000001FF
