:020000041000EA
:10100000C01A0020A1100010000000000000000025
:10101000000000800000008000F002F800F030F8CE
:101020000CA030C8083824182D18A246671EAB46FD
:1010300054465D46AC4201D100F022F87E460F3E98
:101040000FCCB6460126334200D0FB1AA246AB466F
:1010500033431847C4360000E43600000023002460
:1010600000250026103A01D378C1FBD8520700D3DF
:1010700030C100D50B6070471FB51FBD10B510BD46
:1010800003F0DEFA1146FFF7F7FF00F06DF803F00A
:10109000F6FA03B4FFF7F2FF03BC03F0FDFA000019
:1010A0000F4885460F49104A30200A600431401E1F
:1010B000FBD10E4880470E4880470E48004700008D
:1010C000FEE7FEE7FEE7FEE7FEE7FEE700BF70474C
:1010D0000120704708480949094A0A4B7047000037
:1010E000C01A00200000002000BFFEE70911001018
:1010F000CD10001019100010C0140020C01A0020DC
:10110000C0160020C016002010B5FFF7E1FF10BD8B
:10111000FEB512480768FF2000023840050AFEB2FB
:10112000002D17D0002E05D129460D4803F052F8A6
:10113000044610E02802801901907D2040060199A4
:1011400003F048F800907D21C90000984843044608
:10115000640A00E0024C03480460FEBD0003014045
:101160000048E8017C01002001F07EFF02F07EFED5
:1011700002F000FB02F03CFB02F0FCFA02F055FD2D
:1011800002F052FE09E002F029FA02F035FA3F219E
:10119000084600F09FFC02F056FEF4E700BF09226B
:1011A000D206926B80231A40002AF8D1FE4AD268F8
:1011B0009B011A43FC4BDA60020207231B021A4010
:1011C000CBB21A43F84B40331A60704700BFF64861
:1011D00080680121C9030840002805D1F2488068D1
:1011E000491008400028F2D0EF48C0680321890365
:1011F0000843ED49C860084640697047F7B584B0B8
:101200000E461446002002900190009000250390A5
:1012100000270498422878D1E4494870802E75D17F
:101220004870230003F06AFA070517293B4D5F73E6
:101230008500062508E03846791CCFB2DC49085CF9
:10124000DA494855681CC5B20D2DF4DB0120039026
:10125000072002906EE0062508E03846791CCFB2E0
:10126000D449085CD1494855681CC5B2112DF4DB3E
:10127000012003900B2002905CE0062508E0384630
:10128000791CCFB2CC49085CC8494855681CC5B226
:10129000112DF4DB012003900B2002904AE006257B
:1012A00008E03846791CCFB2C449085CBF494855AC
:1012B000681CC5B20B2DF4DB0120039005200290C1
:1012C00038E0062508E03846791CCFB2BC49085CF6
:1012D000B6494855681CC5B2112DF4DB01200390B6
:1012E0000B20029026E0062508E03846791CCFB294
:1012F000B449085CAD494855681CC5B2112DF4DBF2
:10130000012003900B20029014E029E113E0062550
:1013100008E03846791CCFB2A549085CA349485576
:10132000681CC5B20D2DF4DB01200390072002904C
:1013300000E000BF79E3FF200130864278D14220EF
:101340009A494870230003F0D9F9060416283A4C4C
:101350005E71062508E03846791CCFB29449085CD6
:1013600092494855681CC5B20D2DF4DB012003904D
:10137000072002905BE0062508E03846791CCFB2D2
:101380008C49085C89494855681CC5B2112DF4DBAD
:10139000012003900B20029049E0062508E0384622
:1013A000791CCFB28449085C80494855681CC5B295
:1013B000112DF4DB012003900B20029037E006256D
:1013C00008E03846791CCFB27C49085C774948551B
:1013D000681CC5B20B2DF4DB0120039005200290A0
:1013E00025E0062508E03846791CCFB27449085C30
:1013F0006E494855681CC5B2112DF4DB01200390DD
:101400000B20029013E0062508E03846791CCFB285
:101410006C49085C65494855681CC5B2112DF4DB60
:10142000012003900B20029001E001E000BFFCE2EC
:10143000FF20813086421DD142205C494870012C3A
:101440000AD1BF208871AA20C87100200872032029
:10145000029001200390E8E2002CE8D1B920534922
:101460008871D820C87100200872032002900120E2
:101470000390DAE20520C001864225D142204B4983
:101480004870012C0ED1D5208871FD20C871D7205D
:101490000872AA204872002088720520029001205C
:1014A0000390C2E2002CC2D1B72040498871B42019
:1014B000C871D7200872AA204872002088720520BF
:1014C000029001200390B0E20320000286421DD169
:1014D000422036494870012C0AD1BF208871AA20C9
:1014E000C8710020087203200290012003909CE242
:1014F000002C9CD1B9202D498871D820C8710020BA
:10150000087203200290012003908EE20720C001A0
:1015100086428CD1422025494870012C0ED1D5201D
:101520008871FD20C871D7200872AA204872002057
:101530008872052002900120039076E2002C8AD167
:10154000B7201A498871B420C871D7200872AA2020
:10155000487200208872032002900120039064E208
:1015600004983D2872D1114948701749701A8E426B
:101570006DD036DC1549701A8E4269D00BDC1448E8
:10158000301A030003F0BAF80B3E9CA79CB09CB93C
:101590009CC29CCB9C00162876D01DDC02283AD039
:1015A000042841D0142815E040000048950A002086
:1015B000AC010020800100208B010020B30100203D
:1015C00096010020A1010020280008000C0008005E
:1015D0000000080074D1B4E0182872D01A28F9D19C
:1015E000CAE0801E030003F089F81728FE34FE3D90
:1015F000FE46FE50FE59FE62FE6DFED9FEE2FEEB97
:10160000FEF5FE002012FC498871CC710220029088
:1016100001200390E8E02012F7498871CC71022084
:10162000029001200390DFE02012F3498871CC7111
:101630000220029001200390D6E02012EE4988712A
:10164000CC710220029001200390CDE0CDE09CE01F
:101650006EE02012E8498871CC71022002900120CE
:101660000390C1E02012E4498871CC7102200290FD
:1016700001200390B8E02012DF498871CC7102206C
:10168000029001200390AFE064E02012DA498871F3
:10169000CC710220029001200390A5E02012D649CF
:1016A0008871CC7102200290012003909CE02012EE
:1016B000D1498871CC71022002900120039093E0FF
:1016C00091E050E02012CC498871CC710220029048
:1016D0000120039088E02012C7498871CC71022054
:1016E0000290012003907FE02012C3498871CC71E1
:1016F000022002900120039076E02012BE498871FA
:10170000CC7102200290012003906DE02012BA49B2
:101710008871CC71022002900120039064E02012B5
:10172000B5498871CC7102200290012003905BE0E2
:101730002012B1498871CC710220029001200390DF
:1017400052E02012AC498871CC7102200290012035
:10175000039049E02012A8498871CC7102200290C0
:101760000120039040E02012A3498871CC7102202F
:1017700002900120039037E020129F498871CC71BC
:1017800002200290012003902EE020129A498871D5
:10179000CC71022002900120039025E0201296498E
:1017A0008871CC7102200290012003901CE020126D
:1017B00091498871CC71022002900120039013E0BE
:1017C00020128D498871CC71022002900120039073
:1017D0000AE0FFE7201288498871CC71022002904C
:1017E0000120039000E000BF1FE1049844286AD163
:1017F000824886420DD144207F494870002088717C
:10180000C871201208724C720420029001200390CB
:101810000BE17A48001D86420DD14420764948707C
:1018200000208871C871201208724C720420029046
:1018300001200390F9E07148083086420DD1442020
:101840006D49487000208871C871201208724C726E
:101850000420029001200390E7E068480C308642A3
:101860000DD144206449487000208871C87120124D
:1018700008724C720420029001200390D5E05F486A
:10188000103086420DD144205B4948700020887199
:10189000C871201208724C7204200290012003903B
:1018A000C3E05648143086429ED1442052494870C5
:1018B00000208871C871201208724C7204200290B6
:1018C00001200390B1E004983B2879D14C4886422E
:1018D00016D1012C08D1012003903B2046494870C5
:1018E000012088710290A0E0002C08D10120039013
:1018F0003B2041494870002088710120029094E00B
:101900003F48401C864216D1012C08D1012003908B
:101910003B203949487001208871029085E0002CF5
:1019200008D1012003903B20334948700020887182
:101930000120029079E03248801C864216D1012CA9
:1019400008D1012003903B202B4948700120887169
:1019500002906AE0002C68D1012003903B202649C8
:10196000487000208871012002905EE02448C01C6D
:10197000864216D1012C08D1012003903B201E493C
:1019800048700120887102904FE0002C4DD1012059
:1019900003903B2018494870002088710120029074
:1019A00043E01748001D864217D1012C09D10120C0
:1019B00003903B201049487001208871029034E068
:1019C0002CE0002C31D1012003903B200A494870C3
:1019D000002088710120029027E00948401D8642BE
:1019E00023D1012C0ED1012003903B2002494870E5
:1019F00001208871029018E0950A0020E0FF0200A3
:101A000000FFFF00002C10D1012003903B20FE4975
:101A10004870002088710120029006E00498702828
:101A200003D1F9494870022003900398012829D175
:101A300000200390AA20F4490870300E8870FF201F
:101A400000043040000CC870FF2000023040000A43
:101A500008714E71CC210298801DEB4A115433213C
:101A60000298C01D1154C3210298083011543C2122
:101A700002980930115402980A30C0B20190012036
:101A8000009014E00398022811D1AA20DE490870C2
:101A900020128870CC70CC20087133204871C3208C
:101AA00088713C20C87108200190012000900098A6
:101AB00001280CD100200090002505E0D249485DA6
:101AC00001F0CAFD681CC5B201988542F6DB002012
:101AD00007B0F0BDF3B581B00D460024CB490198A5
:101AE000487001983F286DD063287AD0722879D148
:101AF000052D2BD1C6480078413088700020C87071
:101B0000087148718871C34800784130C87100205D
:101B1000087248728872C872012406E0BB48015DF1
:101B2000009808180090601CC4B2F01EA042F5DCBA
:101B30000098C7B238463030F0210840B3490873E6
:101B40003807000F48730D20887339E0B0480078DB
:101B50004130AE498870AE484078C870AC48807853
:101B60000871AB48C0784871A94800798871A948C4
:101B700000784130C871A74840780872A54880783D
:101B80004872A448C0788872A2480079C8720124BB
:101B900006E09E48015D009808180090601CC4B2E1
:101BA000F01EA042F5DC0098C7B238463030F02174
:101BB0000840964908733807000F48730D20887352
:101BC0000E262EE03F209149487008468570062673
:101BD000722D08D14220C870312008710D20487143
:101BE00014E014E01CE0662D07D141208749C8703D
:101BF000352008710D20487108E0692D06D141207B
:101C00008249C870382008710D20487109E03620DB
:101C10007E4988703320C8700D200871052600E0C9
:101C200000BF00BF7E2079490870002405E0774995
:101C3000085D01F000FD601CC4B2B442F7DB002077
:101C4000FEBDF0B585B004467349601C085C049085
:101C5000049877287ED1A01C704908406E49085C22
:101C6000002878D1E01C6D4908406B49085C0828C1
:101C7000F7D1A01D085C6A4908706749E01D085C3F
:101C8000674948706449601D085C039003981238E6
:101C9000030002F033FD0D08D11ED135D14ED16BBA
:101CA000D185D19FD1005F48006800280DD15C48E4
:101CB00040785D4908705A4842785C493D20FFF7FA
:101CC0009DFA01205A49086002E0002054494870FA
:101CD000B3E05448006801280ED151484078524979
:101CE00048704F4842785149891C3D20FFF786FAD9
:101CF00000204F49086002E00020494948709CE0FC
:101D000047484078484988704548427847490A39E9
:101D10003D20FFF773FA4248427846494420FFF7D6
:101D20006DFA01223E49491C4048183802F041F939
:101D300083E03B4840783C49C870394842783B4989
:101D400008393D20FFF75AFA354842783949091DCC
:101D5000442001E045E175E0FFF750FA01223049E7
:101D6000491C3248163802F024F966E02C484078C5
:101D70002D4908712A4842782C49891F3D20FFF7D8
:101D80003DFA274842782B4908314420FFF736FABC
:101D900001222349491C2548143802F00AF94CE075
:101DA0001F484078204948711D4842781F49091F43
:101DB0003D20FFF723FA1A4842781E490C3144208F
:101DC000FFF71CFA01221649491C1848123802F084
:101DD000F0F832E012484078134988711048427890
:101DE0001249891E3D20FFF709FA0D484278114932
:101DF00010314420FFF702FA01220949491C0B481F
:101E0000103802F0D6F818E0950A00203C0F0020A8
:101E1000240200202902002080020020FF4F000041
:101E2000CE010020F8010020D00100200E000800A3
:101E3000D8010020E4FF020000BF00BF20460C30A4
:101E40000290D7E3A01CFE490840FE49085C002828
:101E5000F7D1E01CFA490840FA49085C0228F0D1A1
:101E6000201DF7490840F749085CFF28E9D1601DAB
:101E70000D5CF02D5BD006DCE02D09D0E42D1AD0EE
:101E8000E82D17D139E0F42D74D0F82DF9D193E075
:101E9000ED480068002801D1012000E00020EA4957
:101EA00008600022E9493B20FFF7A8F905217220CC
:101EB000FFF710FE94E0E4484068002801D10120BB
:101EC00000E00020E04948600022E049491C3B2036
:101ED000FFF794F90122DD49891C3B20FFF78EF9B9
:101EE0000020DB4948708870C870DA48C0780871F3
:101EF00000217220FFF7EEFD72E0D34880680028D1
:101F000001D1012000E00020CF4988600022CF49A4
:101F1000891C3B20FFF772F90122CC49C91C3B20E8
:101F2000FFF76CF905217220FFF7D4FD58E0C64891
:101F3000C068002801D1012000E00020C249C8602B
:101F40000022C249C91C3B20FFF758F90122BF49B2
:101F5000091D3B20FFF752F90020BD4948708870E9
:101F6000C870BC484079087100217220FFF7B2FDAB
:101F700036E0FFE7B4480069002801D1012000E005
:101F80000020B14908610022B049091D3B20FFF73C
:101F900035F90122AD49491D3B20FFF72FF90020FB
:101FA000AB4948708870C870AA48807908710021D0
:101FB0007220FFF78FFD13E0A3484069002801D18C
:101FC000012000E00020A049486100229F49491DEE
:101FD0003B20FFF713F905217220FFF77BFD00BFBF
:101FE00008E30498782870D19649E01C0D5C201D08
:101FF0000E5C002D29D1002E02D0012E24D11FE02D
:10200000022095490860002280214220FFF7F6F85F
:102010000022FF2101314220FFF7F0F820228F49F2
:102020003D20FFF7EBF80122032109024220FFF7D0
:10203000E5F801220721C9014220FFF7DFF803E09C
:1020400001208549086000BFCAE2012D75D1330027
:1020500002F054FB0BF472720774DFF393B972F25F
:10206000720001207E49086000207E49086001223C
:102070007A492C313D20FFF7C1F8002277492E31F3
:102080003D20FFF7BBF8012272497448103801F077
:1020900090FF01226F49491C70480E3801F089FFFA
:1020A00071480068012811D1002069494870887082
:1020B000C87068480078087100206C4948708870C2
:1020C000C87064480078087110E08FE20020604911
:1020D00048708870C8705F48407808710020634974
:1020E00048708870C8705B48407808710021722081
:1020F000FFF7F0FC5E480068002809D15D48407891
:102100003C21484302465C494420FFF777F802E04F
:1021100000205749086001224C493B20FFF76EF828
:102120000122FF2181314220FFF768F801220521B9
:10213000C9014220FFF762F8EBE0EBE001204949DA
:102140000860002046490860002244492C313D20A7
:10215000FFF754F8012241492E313D20FFF74EF898
:1021600005217220FFF7B6FC002238493B20FFF71B
:1021700045F801203E490860CBE001203F49086056
:1021800000203F4908600122344930313D20FFF7EB
:1021900035F80022314932313D20FFF72FF8394818
:1021A000006801280ED100203649086028490870CF
:1021B00000217220FFF78EFC01220521C901422077
:1021C000FFF71CF8A5E000202C49086001202C49ED
:1021D00008600122214932313D20FFF70FF800222B
:1021E0001E4930313D20FFF709F8264800680028D5
:1021F00008D10120234908601549087000210220F8
:10220000FFF768FC00220521C9014220FEF7F6FF16
:102210007FE001201C49086000201C490860012261
:102220000E4934313D20FEF7E9FF00220B493631DB
:102230003D20FEF7E3FF2BE05BE031E049E00000EA
:10224000FF4F000080020020100F002000FFFF0061
:1022500024020020D0010020EC0100200200080030
:10226000FC01002000020020D801002029020020EB
:10227000F4010020CE010020E0FF02000402002053
:1022800008020020E00100200C02002010020020C3
:102290000020FE49087000217220FFF71BFC38E087
:1022A0000120FB4908600020FA4908600122FA4930
:1022B0003D20FEF7A3FF0022F749891E3D20FEF7CF
:1022C0009DFF0120F149087000217220FFF702FCF8
:1022D0001FE00020F14908600122EF490E393D203E
:1022E000FEF78CFF0022EC490C393D20FEF786FFFB
:1022F0000FE00120E94908600122E7490C393D203F
:10230000FEF77CFF0022E4490E393D20FEF776FF00
:1023100000BF65E1022D72D1330002F0EFF907B67C
:10232000B5B60558819BB6000120DD490860002044
:10233000DC4908600122D849891D3D20FEF75EFF77
:102340000022D54908313D20FEF758FF0122D64929
:10235000D148423801F02DFE0122D349491CCE4814
:10236000403801F026FE0122CF49891CCA483E3878
:1023700001F01FFE0122CC49C91CC7483C3801F0BE
:1023800018FE0122C849091DC3483A3801F011FE60
:102390000020C649087048708870C870C248801E06
:1023A0008078087100217220FFF794FBC0484068D4
:1023B000002801D1012000E00020BD494860084606
:1023C000808882B2BB493B20FEF718FF5DE0002009
:1023D000B34908600120B34908600022AE49891D55
:1023E0003D20FEF70BFF0122AB4908313D20FEF7EF
:1023F00005FF05217220FFF76DFB00270DE045E08A
:10240000B800AB490858012806D1AA48401E39181F
:1024100000223B20FEF7F2FE7F1C052FF0DB34E0AC
:102420000120A54908600020A449086001229A49BA
:10243000891C3D20FEF7E2FE00229749091D3D2040
:10244000FEF7DCFE00209149087000217220FFF7A2
:1024500041FB1AE000209849086001209749086074
:1024600000228D49891C3D20FEF7C8FE01228A49C1
:10247000091D3D20FEF7C2FE01208449087000219D
:102480007220FFF727FB00E000BFA9E0032DFCD17D
:10249000701F030002F032F907051A2F4459A26E8B
:1024A000A30087480068002801D1012000E0002037
:1024B000834908600020834908608148008882B20F
:1024C000754918393D20FEF799FE88E07C48406840
:1024D000002801D1012000E0002079494860012056
:1024E000784908607648808882B26B4916393D2069
:1024F000FEF784FE73E072488068002801D1012055
:1025000000E000206E49886002206E4908606C4837
:10251000008982B2604914393D20FEF76FFE5EE00B
:102520006748C068002801D1012000E0002064490C
:10253000C8600320634908606148808982B25649B7
:1025400012393D20FEF75AFE49E05D480069002837
:1025500001D1012000E000205949086104205949B7
:1025600008605748008A82B24B4910393D20FEF777
:1025700045FE34E0002700200190009013E0B800F1
:102580004F49085801280DD10098401C0090781C34
:10259000019989004C4A505005210198401C01F0D6
:1025A00023FE01917F1C052FE9DB009804E0002148
:1025B0008200454B9950401C0528F8DB42480088B2
:1025C00082B280214220FEF719FE3F48808882B205
:1025D000FF2101314220FEF711FE00E000BF00BFE5
:1025E0002046093039490840029003E0601C374911
:1025F00008400290029805B0F0BDFEB5344804686A
:1026000034480568A54203D2012080022F1800E05B
:102610002F460020019000BF2F48005D00900098D9
:10262000AA286ED12C49601C0E5C772E6BD1381B0A
:102630000B2863D320460830085CCC2815D12046EF
:102640000930085C332810D120460A30085CC328C2
:102650000BD120460B30085C3C2806D12046FFF702
:10266000F0FA1B490860012001901B4920460A30FE
:10267000085CCC283FD120460B30085C33283AD187
:1026800020460C30085CC32835D127E02902002001
:10269000100200200C02002038000800F801002081
:1026A0001402002018020020D20100202402002081
:1026B000100F002001FFFF001C020020200200205C
:1026C000FC0E0020F0010020280F0020FF4F00002A
:1026D00034020020380200208002002020460D3005
:1026E000085C3C2807D12046FFF7ABFAFE4908609A
:1026F0000120019041E0022001903EE00320019082
:102700003BE036E0FFE7782E22D1381B08281CD3A7
:10271000F649601D085CCC2814D1A01D085C332844
:1027200010D1E01D085CC3280CD120460830085C9D
:102730003C2807D12046FFF784FAEB4908600120C6
:1027400001901AE00220019017E00320019014E0AC
:10275000432E07D12046FFF774FAE34908600120B1
:1027600001900AE0002E08D0601CE14908400446B0
:1027700003E0601CDE4908400446AC4203D00198E7
:10278000002800D148E70198002802D001980228CB
:1027900001D1D5480560FEBDF8B50446D549601C99
:1027A0000F5C6F2F04D10830D149084006466DE018
:1027B0003F2F3ED1CF49E01C085C4138CE4908701C
:1027C000CC49201D085CCC494870CA49601D085C92
:1027D000C9498870C749A01D085CC749C870C54968
:1027E000E01D085CC4490871C24920460830085CF5
:1027F0004138C2490870BF4920460930085CBF49CA
:102800004870BC4920460A30085CBC498870B94908
:1028100020460B30085CB949C870B64920460C30D8
:10282000085CB649087120460930B149084006469F
:102830002CE0662F24D103251BE0AE48405D3128F3
:1028400015D100216320FFF745F9E81E030001F0D0
:1028500055FF0805060708090A0B0C0D06E005E000
:1028600004E003E002E001E000E000BF00BF681CFC
:10287000C5B20B2DE1DB601C9D490840064605E012
:10288000882F03D0601C9A49084006463046F8BDA0
:10289000F0B585B09A4804689A480668A64203D203
:1028A00001208002371800E037460020039000BF67
:1028B0009048005D029002987E287DD18D49601C71
:1028C0000D5C6F2D14D1381B06280ED3601D085CDB
:1028D0000D2807D12046FFF75FFF834908600120DC
:1028E00003909AE00220039097E00320039094E085
:1028F0003F2D40D1381B10283AD30120824908804F
:102900000BE07C4880490988415C019808180190D7
:102910007D480088401C7C4908807B4800880D2841
:10292000EFDB0198C0B20090704920460D30095C81
:1029300000983030F0221040814216D16B49204679
:102940000E30095C00980007000F81420DD16749E5
:1029500020460F30085C0D2807D12046FFF71CFFEA
:10296000614908600120039057E00220039054E081
:102970000320039051E0662D42D1381B0E283CD332
:102980000120614908800BE05A485F490988415C91
:102990000198081801905C480088401C5A4908803A
:1029A000594800880B28EFDB0198C0B200904F49CE
:1029B00020460C30095C00E02BE000983030F0221B
:1029C0001040814216D1494920460D30095C0098DB
:1029D0000007000F81420DD1444920460E30085CAB
:1029E0000D2807D12046FFF7D7FE3F490860012098
:1029F000039012E0022003900FE0032003900CE00C
:102A0000882D0AD0002D08D0601C394908400446A2
:102A100003E0601C364908400446B44203D00398E2
:102A2000002800D144E70398002802D00398022828
:102A300001D12D48066005B0F0BDF7B584B00D4654
:102A40001446002600200290019000270390009079
:102A5000049844282DD12D48854213D144202C4977
:102A60004870200E8871FF2000042040000CC871BF
:102A7000FF2000022040000A08724C720426012048
:102A8000039016E02148001D854212D144202049C0
:102A90004870200E8871FF2000042040000CC8718F
:102AA000FF2000022040000A08724C720426012018
:102AB0000390039801283BD100200390AA201449D9
:102AC0000870280E8870FF2000042840000CC87091
:102AD000FF2000022840000A08714D71CC21B01D72
:102AE0000B4A1154332115E03402002080020020EB
:102AF000FF4F000080060020240200202902002051
:102B00003C02002040020020BE010020E0FF020045
:102B1000950A0020F01D1154C321401C11543C2182
:102B2000401C1154401CC0B202900120019015E0DD
:102B30000398022812D1AA20444908702004000EEC
:102B40008870CC70CC20087133204871C320887104
:102B50003C20C871082002900120019001980128B2
:102B60000CD100200190002705E03849C85D00F035
:102B700073FD781CC7B202988742F6DB002007B0CD
:102B8000F0BD10B501F0C9F8314908700A2130488C
:102B9000007801F029FB052908DB0A212C48007880
:102BA0000A3001F021FB2A49087006E00A21284872
:102BB000007801F019FB264908702548027825495C
:102BC0003D20FEF71BFB10BD70B505460C46022CE0
:102BD00006D100202049087048708870C87006E04F
:102BE000A8781D490870002048708870C8701B487C
:102BF00044700821184800F040FD19490860084653
:102C0000007815498870164800880004000EC870C6
:102C100002201449088000201349088010E012485F
:102C200001880088401C104A10800B48415C0B480A
:102C30000C4A128881540B480088401C09490880BE
:102C4000084800880628EADB70BD0000950A0020CD
:102C5000BC01002000080800B8010020C8010020C5
:102C6000C4010020BE010020C0010020C020DF49B7
:102C70004862DF48DF49086000BFDE480068012184
:102C8000890708400028F8D1C320D8494862DA48AB
:102C90000068032189038843012189030843D64939
:102CA000086008460068032189038843D249086008
:102CB00008460068032109038843012109030843EA
:102CC000CD4908600846C069032109028843FF21F5
:102CD00001310843C849C8610846C069400840003E
:102CE00001210843C449C8610846C06904218843DA
:102CF000C149C8610846C069082188430843BE49E4
:102D0000C8610846C06970218843BB49C86108464C
:102D1000006A3021884310210843B749086200BF88
:102D2000B648006A89158843B449086200BF00208C
:102D3000B24940398969F8229143B04A403A9161D9
:102D4000114689690143916100BF00BFAB48006A29
:102D500051158843A949086200BF002011468969BE
:102D60001F22D2029143A54A403A916111468969D6
:102D700002021143A14A403A916100BF032000289A
:102D800005DBC206D20E012191409D4A116000BFB1
:102D90000320002805DBC206D20E01219140994A8A
:102DA000116000BF704710B500F012F9002870D113
:102DB00000F015F900287ED193480068012820D141
:102DC0009248006800280BD191480078401CC0B29E
:102DD0008F49087002468F493D20FEF70FFAF0E058
:102DE0008A4800680128FAD189484078401CC0B25E
:102DF0008749487002468749891C3D20FEF7FEF945
:102E0000DFE0814800680228E9D183480068002893
:102E10000CD17F488078401CC0B27D498870024642
:102E20007C490A393D20FEF7E9F9CAE07A48006892
:102E300001280CD17648C078401CC0B27449C870D3
:102E40000246744908393D20FEF7D8F9B9E07248C6
:102E5000006802280CD16E480079401CC0B26C4951
:102E6000087102466B49891F3D20FEF7C7F9A8E0AB
:102E70006948006803280DD165484079401CC0B2FC
:102E80006349487102466349091F3D20FEF7B6F9C0
:102E900097E010E0604800680428A0D15C48807981
:102EA000401CC0B25A49887102465A49891E3D20C9
:102EB000FEF7A4F985E000F08BF8FF21013188428C
:102EC0007FD100F08CF800287BD14F4800680128A2
:102ED0001FD14E48006800280BD14D480078401E95
:102EE000C0B24B49087002464A493D20FEF786F9B8
:102EF0000FE04648006801280BD145484078401E45
:102F0000C0B24349487002464249891C3D20FEF741
:102F100075F93D480068022853D13F4800680028F1
:102F20000CD13B488078401EC0B2394988700246B7
:102F300038490A393D20FEF761F942E03648006819
:102F400001280CD13248C078401EC0B23049C87048
:102F50000246304908393D20FEF750F931E02E484D
:102F6000006802280CD12A480079401EC0B22849C6
:102F7000087102462749891F3D20FEF73FF920E0EE
:102F80002548006803280CD121484079401EC0B272
:102F90001F49487102461F49091F3D20FEF72EF9BF
:102FA0000FE01D48006804280BD119488079401EA5
:102FB000C0B21749887102461649891E3D20FEF7A6
:102FC0001DF90D484069802188430B49486110BDB7
:102FD0000A484038406AFF210131084070470748DD
:102FE0004038406A01214902084070470000014012
:102FF0000004F03F0003014000060140400204408D
:1030000080E200E000E100E0EC010020F801002097
:10301000D00100200E000800F0010020802011499E
:1030200009691F22D20291430E4A116111460969B2
:10303000020211430B4A116100BF00BF114609692A
:103040001F22D2049143074A116111460969020403
:103050001143044A116100BF00BF042011464860BB
:1030600000BF70470000044010B500F04DF900F0BB
:103070005DF8FEF74DF8C020254948620420254937
:10308000086125480860C3202149486200F098FC87
:1030900000F0D7FC00F030FD152000F02FF81520CF
:1030A00000F023F8162000F029F8162000F01DF893
:1030B000FFF7DCFDFFF7B2FF10BD00BF174818494E
:1030C000486000BF8020096949014909144A11611B
:1030D0001146096902061143114A116100BF00BF80
:1030E00008201146486000BF7047002805DBC20673
:1030F000D20E012191400B4A11607047002805DB78
:10310000C206D20E01219140074A116070470000AB
:1031100000000140000301400004F03F02000200F3
:103120000000044000E100E080E200E010B5C020B3
:10313000FE494862FE48006908210843FC490861CD
:10314000FC48086000BFFA48006801218907084070
:103150000028F8D1C320F5494862B820F64909692A
:10316000F8229143F44A1161114609690143116142
:1031700000BF0020114609691F22D2029143EE4A86
:1031800011611146096902021143EB4A116100BF46
:103190000920C006C068032108430921C906C86088
:1031A000084600690321890388430121C9030843B4
:1031B0000921C906086108460069800A8002DF49C2
:1031C00008430921C90608610846C069032108436C
:1031D0000921C906C86108464069032109028843DC
:1031E0000921C9064861084640691F2189028843B0
:1031F0000921890208434904486108464069D049C9
:1032000008400321090408430921C906486108460A
:10321000406B0221884308430921C90648630846D8
:10322000406B032109028843911508430921C9060F
:1032300048630846406B3F2109048843072109047D
:1032400008430921C90648630846406B0F21090657
:1032500088430721090608430921C906486308462F
:10326000806B032189028843111508430921C9068F
:1032700088630846806B9115884308430921C90675
:1032800088630846C06B40084000012108430921BB
:10329000C906C8630846C06B022188430921C906D4
:1032A000C8630846C06B1F2109028843092109022F
:1032B0000843C904C863A3488068012149038843BF
:1032C0000843A049886008460068000900010221FF
:1032D00008439C49086008460068032109028843A6
:1032E00098490860084600680902884308439549E0
:1032F000086095480921C90688610B2000F00EFA84
:103300000B2000F002FA10BD10B5C02087494862BA
:103310008748006908210843854908618548086095
:1033200000BF834800680121890708400028F8D1C0
:10333000C3207E494862B8207F4909691F22D20410
:1033400091437D4A116111460969020411437A4A89
:10335000116100BF00201146096949014909116145
:103360001146096902061143734A116100BF77488B
:10337000C069C008C000012108437449C8610846FB
:10338000C069012108437149C8610846C06803212A
:1033900008436E49C86008460069032189038843D1
:1033A0000121C90308436949086108460069800A88
:1033B0008002624908436549086108464069032163
:1033C0000902884361494861084640691F21890212
:1033D00088430921890208435C49486108464069DD
:1033E00057490840032109040843584948610846E1
:1033F000406B022188430843544948630846406BA8
:10340000032109028843911508435049486308463F
:10341000406B3F21090488430721090408434B49B5
:1034200048630846406B0F210906884307210906B7
:103430000843464948630846806B03218902884354
:1034400011150843414988630846806B91158843EC
:1034500008433E4988630846C06B4008400001218C
:1034600008433A49C8630846C06B0221884337497C
:10347000C8630846C06B1F2109028843092109025D
:1034800008433249C863314840308068012149030C
:10349000884308432D494031886008460068000988
:1034A00000010221084329494031086008460068AC
:1034B0000321090288432549403108600846006815
:1034C000012189038843084320494031086020488E
:1034D0001E4988610C2000F021F90C2000F015F93C
:1034E00010BD18488068012189030840800B00281E
:1034F00042D01448C06888431249C86008464069F1
:103500001449154A126888540E48406913490880C6
:1035100011480068401C10490860084600680121F5
:10352000890288421DD300200B4919E000000140A8
:10353000000301400004F03F000104404E0200007F
:10354000FFFF00FC40000048222202000002004869
:10355000333303008002002038020020460200209E
:1035600008600020724908707248C0684008400036
:10357000012108436F49C86070476F488068012186
:1035800089030840800B002827D06B48C068884317
:103590006949C860084640696849694A12688854A0
:1035A000654840696749088065480068401C64496F
:1035B00008600846006801218902884202D3002081
:1035C0005F4908600020604908706048C068400892
:1035D0004000012108435D49C860704710B5544858
:1035E0000078012807D15A4800685A49096888427A
:1035F00001D0FFF702F810BD10B55348007801283C
:1036000007D1554800684E490968884201D0FFF744
:103610003FF910BD00BF484989680122520311409B
:103620000029F8D04449C9681143434AD16042494E
:1036300040310860704700BF3F498968012252034A
:1036400011400029F8D03C49C96811433A4AD16079
:10365000394940314860704700BF404989680122BC
:10366000520311400029F8D03C49C96811433B4A34
:10367000D1603A4940314860704770B502460B4608
:103680003748002113E0555C684000240BE0C50773
:10369000ED0F002D04D04508324E7540284600E05D
:1036A0004008651CECB2082CF1DB4D1CE9B29942D4
:1036B000E9DB70BD00B585B0034600202A490870DB
:1036C00009E03F21684601800121418026480078B9
:1036D000401C25490870244800780928F1DB0020A7
:1036E000214908700BE02049097849006A46505A80
:1036F000FFF790FF1C480078401C1B4908701A48CF
:1037000000780A28EFDB05B000BD002805DBC20603
:10371000D20E01219140154A11607047002805DB47
:10372000C206D20E01219140114A1160704700007B
:1037300030020020000104484002004880060020BA
:10374000400200204602002031020020000204480E
:1037500034020020380200203C02002040000048D3
:10376000FFFF000001A00000BE01002000E100E01A
:1037700080E200E010B504227249734800F008FCB2
:103780000A2272497048001D00F002FC6D48027860
:103790006D491C313D20FDF731FD6A4882786A4948
:1037A0001E313D20FDF72AFD684802786649123136
:1037B0003D20FDF723FD65488278634914313D20A3
:1037C000FDF71CFD614802795F4916313D20FDF788
:1037D00015FD5E4882795C4918313D20FDF70EFDEC
:1037E0005A48027A58491A313D20FDF707FD10BDAD
:1037F00010B5202291033D20FDF700FD0022544921
:103800004420FDF7FBFC002252493B20FDF7F6FC6B
:1038100000224D493A313D20FDF7F0FC00224A4993
:1038200038313D20FDF7EAFC0122FF2181314220A1
:10383000FDF7E4FC01220521C9014220FDF7DEFC71
:103840002022414910313D20FDF7D8FC01220321FF
:1038500009024220FDF7D2FC01220721C9014220C2
:10386000FDF7CCFC002280214220FDF7C7FC01229D
:1038700011024220FDF7C2FC012233492E313D20C6
:10388000FDF7BCFC0022304930313D20FDF7B6FC8D
:1038900001222D4932313D20FDF7B0FC00222A499A
:1038A00034313D20FDF7AAFC0122274936313D2065
:1038B000FDF7A4FC002226494420FDF79FFC2022AE
:1038C0002349091D4420FDF799FC20222049083195
:1038D0004420FDF793FC20221D490C314420FDF7C4
:1038E0008DFC20221A4910314420FDF787FC20224C
:1038F000174914314420FDF781FC002215493B2073
:10390000FDF77CFC00221349491C3B20FDF776FCA7
:1039100000221049891C3B20FDF770FC00220D4954
:10392000C91C3B20FDF76AFC00220A49091D3B2007
:10393000FDF764FC00220749491D3B20FDF75EFCB2
:1039400010BD000070020020F2FF07005614002096
:10395000E0FF020000FFFF008A48006AC007C00FB6
:10396000002812D08748006B01210843854908636D
:10397000012085490870834880380069400840006C
:10398000012108437F498039086170477F48006AF8
:10399000C007C00F002812D07C48006B01210843EB
:1039A0007A49086301207A490870764880300069B6
:1039B0004008400001210843724980310861704786
:1039C0007448C068FF210131884308437149C860C9
:1039D0006C488038406A000900010A21084369499F
:1039E000803948620846406B000C000432210843CD
:1039F00064498039486367480069400840000121F4
:103A00000843644908610846C06840084000012135
:103A100008436049C8605B48406A40084000012193
:103A20000843584948620846806A800880008862D6
:103A30005448803800694008400052498039086184
:103A400070475448C068FF210131884308435149F9
:103A5000C8604C488030406A000900010A210843D0
:103A60004849803148620846406B000C000432210E
:103A7000084344498031486346480069102188431F
:103A80000843444908610846C06802218843084346
:103A90004049C8603D48406A400840000121084351
:103AA0003A4948620846806A80088000012108433C
:103AB000364988623348803000694008400001215F
:103AC000084330498031086170473348006AC007B5
:103AD000C00F00280FD03048006B012108432E4949
:103AE00008632A48803000694008400001210843EB
:103AF00026498031086170472648C068FF2101319E
:103B0000884308432349C86020488030406A000940
:103B10000001032108431D49803148620846406B7B
:103B2000000C0004012108431849803148631948FA
:103B30000069FF210131884308431649086108469E
:103B4000C0680421884308431249C8601248406A8B
:103B500040084000012108430F4948620846806A36
:103B600080088000012108430B49886207488030A3
:103B70000069400840000121084304498031086180
:103B80007047000080010448300200208002044891
:103B900031020020000004488003044810B50024CE
:103BA000102000F0F2F800BF8248406AC007C00F42
:103BB0008149086004E0601CC4B2012000F006F9ED
:103BC00000BF7E48406AC007C00F002801D0C82C43
:103BD000F1DBC82C01DB012010BD002404E0601CD7
:103BE000C4B2012000F0F2F800BF7448406AC00778
:103BF000C00F002801D1F02CF1DBF02C01DB0120FB
:103C0000EAE709206E4908700020E5E710B580203A
:103C100000F0BBF800F0C8F86A4800F0D7F800F0F0
:103C2000BFF80F2000F0D2F810BD10B500BF6348F8
:103C30004030006A4008400060494031086200BFDF
:103C4000802000F0A2F800F0ABF8FFF7DFFFFFF7ED
:103C5000A5FF10BD10B5802000F097F800F0A4F883
:103C6000022000F0B3F800F09BF8102000F08DF86F
:103C70000C2000F0ABF800BF5048406AC007C00FEE
:103C8000002801D0012400E00024322000F09EF83A
:103C9000204610BD70B50026012508E0FFF7DAFFC9
:103CA0000446E00171100843C6B2681CC5B2082D75
:103CB000F4DD304670BD70B50446802000F065F834
:103CC00001251BE0E607F60F6410002E0AD000F075
:103CD0006BF8022000F07AF800F062F83C2000F067
:103CE00075F809E000F060F83C2000F06FF800F093
:103CF00057F8022000F06AF8681CC5B2082DE1DD13
:103D000070BD10B5FFF782FFFFF748FFCC20FFF72B
:103D1000D2FF4420FFF7CFFF10BDF0B585B0FFF70D
:103D2000F0FFFFF773FFFFF739FFCC20FFF7C3FF6A
:103D3000BE20FFF7C0FFFFF7ADFF0746FFF7AAFF62
:103D40000446072C05DDE043C4B2F843C7B20026A1
:103D500000E001262546280205B2E81905B22846EA
:103D600000F03FFB0022184B0191009000F044FB53
:103D70000391029000F0DEFA05B2002E02D0284630
:103D800005B0F0BD684200B2FAE70C490969F822B3
:103D900091430A4A11611146096901431161704753
:103DA000012006494860704701200004034948602B
:103DB0007047000000000440780200200002044028
:103DC0007C020020EE0200000000E43F002101E040
:103DD00000BF491C8142FBDB704730B5034600241D
:103DE0000AE0002503E00120FFF7F0FF6D1C7D20B5
:103DF000C0008542F7DB641C9C42F2DB30BD094801
:103E0000C06840084000012108430649C860704767
:103E100000B50246002302E0FFF7F1FF5B1C93426E
:103E2000FADB00BD000304480C4800690121490287
:103E300008430A490861012009490861C01E486118
:103E40000848486070470648C068054909698842C3
:103E500002D3054802498860704700000003014012
:103E60000000024001FF0000FECAADAB10B500F03B
:103E7000B1F810BD70B50446002600F0BFF8A020D0
:103E800000F028F900F0E0F8201200F023F900F02B
:103E9000DBF82546E117090E491909120902611AD2
:103EA000C8B200F017F900F0CFF800F0A7F8A12091
:103EB00000F010F900F0C8F8002000F03AF90646CA
:103EC00000F0AFF8304670BD70B504460E4600F005
:103ED00095F8A02000F0FEF800F0B6F8201200F0EF
:103EE000F9F800F0B1F82546E117090E4919091251
:103EF0000902611AC8B200F0EDF800F0A5F83046EA
:103F000000F0E8F800F0A0F800F08BF80A20FFF7C6
:103F100064FF70BDF8B505460E461746002409E05B
:103F2000E2003346D340D9B22A1990B2FFF7CCFF52
:103F3000601CC4B2BC42F3DBF8BDF8B507460C46C2
:103F40000026002509E036023919491B491E88B2AE
:103F5000FFF790FF8619681CC5B2A542F3DB304617
:103F6000F8BD10B5FF20FFF785FF0446552C01D1A1
:103F7000002010BD5521FF20FFF7A6FFFF20FFF70F
:103F800079FF0446552C01D10020F2E70120F0E72B
:103F900070B506460C46154608E03146761C88B2D8
:103FA000FFF768FF2070641C681E85B2002DF4D1F5
:103FB00070BD70B504460D46164605E02978A0B2DE
:103FC000FFF782FF641C6D1C3046711E8EB2002804
:103FD000F4D170BD10B580207C490969F822914365
:103FE0007A4A1161114609690143116100BF00F06D
:103FF000D0F800F0C5F800F0DAF810BD10B5802058
:1040000000F0C7F800F0D3F800F0BAF80420FFF78A
:10401000DDFE00F0D1F80420FFF7D8FE00F0B4F880
:1040200010BD10B5802000F0B4F800F0ADF800F03D
:10403000C3F80420FFF7CAFE00F0A2F800F0B7F8BA
:104040000420FFF7C3FE10BD10B50024102000F0BF
:10405000A0F800F0ACF80120FFF7B8FE00F090F8EF
:104060000120FFF7B3FE07E0601CC4B2FA2C03DDA9
:10407000FFF7D7FF012010BD00F0A3F80028F3D10F
:1040800000F082F80020F6E710B500F07DF88020FF
:1040900000F07FF800F090F80220FFF797FE00F0A4
:1040A0006FF80220FFF792FE00F06EF810BD10B519
:1040B00000F06AF8802000F06CF800F078F8022038
:1040C000FFF784FE00F05CF80220FFF77FFE00F0AF
:1040D0005BF810BD70B50446802000F05AF800F07F
:1040E00053F8002522E080202040C0113849087094
:1040F00008460078002802D100F05EF805E0344858
:104100000078012801D100F052F86006040E022068
:10411000FFF75CFE00F034F80220FFF757FE00F0D6
:1041200033F80220FFF752FE681CC5B2082DDADB17
:1041300070BD70B505460024102000F02AF8002656
:1041400013E000F021F80220FFF740FE00F018F81D
:104150006006040E00F035F8002801D0601CC4B2DF
:104160000120FFF733FE701CC6B2082EE9DB002DDC
:1041700002D1FFF79CFF01E0FFF786FF204670BDEC
:104180000120124948607047012000040F4948602F
:1041900070470E4909691F22D20291430B4A1161EF
:1041A0001146096902021143084A11617047022051
:1041B00006494860012070470120400403494860D7
:1041C00070470248406A02210840704700000440DE
:1041D0007E020020002203098B422CD3030A8B426B
:1041E00011D300239C464EE003460B433CD40022EF
:1041F00043088B4231D303098B421CD3030A8B4201
:1042000001D394463FE0C3098B4201D3CB01C01ACE
:10421000524183098B4201D38B01C01A5241430999
:104220008B4201D34B01C01A524103098B4201D387
:104230000B01C01A5241C3088B4201D3CB00C01AF4
:10424000524183088B4201D38B00C01A524143086C
:104250008B4201D34B00C01A5241411A00D2014691
:104260005241104670475DE0CA0F00D0494203102A
:1042700000D34042534000229C4603098B422DD379
:10428000030A8B4212D3FC22890112BA030A8B4221
:104290000CD3890192118B4208D3890192118B4270
:1042A00004D389013AD0921100E08909C3098B42F5
:1042B00001D3CB01C01A524183098B4201D38B0138
:1042C000C01A524143098B4201D34B01C01A5241DB
:1042D00003098B4201D30B01C01A5241C3088B4220
:1042E00001D3CB00C01A524183088B4201D38B000B
:1042F000C01A5241D9D243088B4201D34B00C01A95
:104300005241411A00D20146634652415B101046A9
:1043100001D34042002B00D54942704763465B10F1
:1043200000D3404201B50020C046C04602BD7047E0
:104330007047704730B50346CA02400D1043164D12
:10434000164C0A1502D02043002A06DBAA1A002ABE
:1043500012DDD040FF2A0BDC30BD5205520D01D1D9
:1043600040004008AA1A07D4D0404042FF2A01DD8D
:10437000002030BD0028FCDD4A00002B01D00120C8
:1043800000E00020101801225205D042F0D8C817D2
:10439000C043604030BD00001E04000000000080EB
:1043A0001F22030C02D10F22000402D0030E03D0FF
:1043B00004E00020014670470002083A030F01D1D3
:1043C0000001121F830F01D18000921E002801DB23
:1043D0004000521E120551184205C01241181046E5
:1043E0007047C10FC90700D0404201229207114314
:1043F000D6E701218907D3E7F0B58B4C0F09254695
:1044000089B0BD437BD01D092646AE43FAD00E4687
:104410005E402740F60F3E43254071D024012142E3
:10442000FBD0FF24AD19A4042D1B039501252D05F8
:10443000DB02DB0AC9022B43C90A29431E01090119
:10444000040F130F050121431701880B82039143C9
:104450002D098C46A90B1E438A039543B30B9A037F
:1044600096433F09BA0B9403A74302962E467E4318
:104470000497B6464E19D7190C4601965443059732
:104480007E43371B7646BF1B3601B646BE0B361938
:1044900000967646BC043719009C01D3641C009436
:1044A0006400002F01D001263443029E049F75430F
:1044B00066467E430496760034196E0034190094E3
:1044C000029C019E1C196643751BAE460694654608
:1044D0004519059C05956C43594375460891691A21
:1044E0000191049E01465143A41B0491611A009C52
:1044F0000791E10605D061090122114302E072E053
:104500006EE06109089D00272C0A2D066918049D9C
:104510007C412A0A2D066918019D6241AC0DAD024D
:104520006D185441079A910D920255196141029AF2
:10453000644658435443069B059A5A43121A131B68
:104540009A0E9B015B187A41010B0005C31851417B
:10455000220A200644195A419A4200D2491C0120DD
:104560004002814203D315230226F64302E01423BE
:104570000326F6432020C51AA9401746AF40DA406B
:104580000A4320460399D840091473181905511895
:10459000039A3843D2075140AC4009D001229440DD
:1045A00006D30022401C5141002C01D1400840009C
:1045B0001E4A934212D3012203989206904207DBCF
:1045C0000520400709181A480143C012414004E081
:1045D000032040070818C10FC907002009B0F0BD2B
:1045E0000020F107FAE705180C464C4111486D42CE
:1045F000A04115D394181A465A410E48644290417E
:104600000ED301204A004005824209D35A0082425B
:1046100006D35940C90F084AC90700201143DDE7F6
:1046200000200649DAE700000000FF07FE0700004F
:10463000FFFFFF7F0000E0FF0000F07F0000F87F39
:10464000754600F025F8AE46050069465346C00899
:10465000C000854618B020B5FCF73CFD60BC0027C3
:104660004908B6460026C0C5C0C5C0C5C0C5C0C53E
:10467000C0C5C0C5C0C5403D49008D46704710B596
:104680000446C046C0462046FCF703FD10BD0000AE
:10469000004870476014002001491820ABBEFEE7B7
:1046A00026000200704770B58C180578401C6B0717
:1046B0005B0F01D10378401C2A1106D10278401CFF
:1046C00003E00678401C0E70491C5B1EF9D12B07D5
:1046D00005D40023521E0DD40B70491CFAE7037851
:1046E000401CCB1A921C03E01D780D70491C5B1C0A
:1046F000521EF9D5A142D8D3002070BD30B4744603
:10470000641E2578641CAB4204D3635D5B00E31830
:1047100030BC18471D46F8E738470010000000205D
:1047200080020000A6460010D8470010800200203A
:10473000401800005C1000108D2F48FEE70411CADD
:104740004710E904A920290C092204092A2C09246C
:10475000041A20045A2E04413201320213C31033CA
:10476000100432053206320732083209320A1AC5FD
:1047700020320C320D1AC70C13BB301B10CB08694A
:1047800004CBA72D1029043218690C13E3340C1044
:10479000107B3524E9041359391B108D040B1CCBF5
:1047A0003A2841580BBACDC3E6B9B4BFECCBD90B0C
:1047B0005BC2FD0B7BCDB0163BCDB01617CEDEB283
:1047C000D9D7F70591D4DDCDA308082C0102030445
:0847D000050607342201000078
:0400000510001019BE
:00000001FF
