:020000041000EA
:10100000C81A0020A110001000000000000000001D
:10101000000000800000008000F002F800F030F8CE
:101020000CA030C8083824182D18A246671EAB46FD
:1010300054465D46AC4201D100F022F87E460F3E98
:101040000FCCB6460126334200D0FB1AA246AB466F
:1010500033431847FC3700001C38000000230024ED
:1010600000250026103A01D378C1FBD8520700D3DF
:1010700030C100D50B6070471FB51FBD10B510BD46
:1010800003F07AFB1146FFF7F7FF00F06DF803F06D
:1010900092FB03B4FFF7F2FF03BC03F099FB0000DF
:1010A0000F4885460F49104A30200A600431401E1F
:1010B000FBD10E4880470E4880470E48004700008D
:1010C000FEE7FEE7FEE7FEE7FEE7FEE700BF70474C
:1010D0000120704708480949094A0A4B7047000037
:1010E000C81A00200000002000BFFEE70911001010
:1010F000CD10001019100010C8140020C81A0020CC
:10110000C8160020C816002010B5FFF7E1FF10BD7B
:10111000FEB512480768FF2000023840050AFEB2FB
:10112000002D17D0002E05D129460D4803F0EEF80A
:10113000044610E02802801901907D2040060199A4
:1011400003F0E4F800907D21C9000098484304466C
:10115000640A00E0024C03480460FEBD0003014045
:101160000048E8017C01002001F0DAFF02F01AFFDC
:1011700002F060FB02F0CDFB02F05CFB02F0F1FD3F
:1011800002F0EEFE05E002F08AFA02F096FA02F0B2
:10119000F6FEF8E700BF0922D206926B80231A40C0
:1011A000002AF8D1FE4AD2689B011A43FC4BDA6050
:1011B000020207231B021A40CBB21A43F84B4033FA
:1011C0001A60704700BFF64880680121C9030840D3
:1011D000002805D1F2488068491008400028F2D064
:1011E000EF48C068032189030843ED49C8600846F9
:1011F00040697047F7B584B00E461446002002904F
:10120000019000900025039000270498422878D18F
:10121000E4494870802E75D14870230003F00AFB22
:10122000070517293B4D5F738500062508E0384602
:10123000791CCFB2DC49085CDA494855681CC5B254
:101240000D2DF4DB01200390072002906EE00625AF
:1012500008E03846791CCFB2D449085CD1494855DA
:10126000681CC5B2112DF4DB012003900B20029005
:101270005CE0062508E03846791CCFB2CC49085C12
:10128000C8494855681CC5B2112DF4DB01200390F4
:101290000B2002904AE0062508E03846791CCFB2C0
:1012A000C449085CBF494855681CC5B20B2DF4DB26
:1012B000012003900520029038E0062508E038461A
:1012C000791CCFB2BC49085CB6494855681CC5B208
:1012D000112DF4DB012003900B20029026E006255F
:1012E00008E03846791CCFB2B449085CAD4948558E
:1012F000681CC5B2112DF4DB012003900B20029075
:1013000014E029E113E0062508E03846791CCFB245
:10131000A549085CA3494855681CC5B20D2DF4DBEE
:10132000012003900720029000E000BF79E3FF2036
:101330000130864278D142209A494870230003F058
:1013400079FA060416283A4C5E71062508E03846FC
:10135000791CCFB29449085C92494855681CC5B2C3
:101360000D2DF4DB01200390072002905BE00625A1
:1013700008E03846791CCFB28C49085C8949485549
:10138000681CC5B2112DF4DB012003900B200290E4
:1013900049E0062508E03846791CCFB28449085C4C
:1013A00080494855681CC5B2112DF4DB012003901B
:1013B0000B20029037E0062508E03846791CCFB2B2
:1013C0007C49085C77494855681CC5B20B2DF4DB95
:1013D000012003900520029025E0062508E038460C
:1013E000791CCFB27449085C6E494855681CC5B277
:1013F000112DF4DB012003900B20029013E0062551
:1014000008E03846791CCFB26C49085C65494855FC
:10141000681CC5B2112DF4DB012003900B20029053
:1014200001E001E000BFFCE2FF20813086421DD1D7
:1014300042205C494870012C0AD1BF208871AA2043
:10144000C871002008720320029001200390E8E296
:10145000002CE8D1B92053498871D820C8710020E8
:1014600008720320029001200390DAE20520C001F7
:10147000864225D142204B494870012C0ED1D520FF
:101480008871FD20C871D7200872AA2048720020F8
:1014900088720520029001200390C2E2002CC2D184
:1014A000B72040498871B420C871D7200872AA209B
:1014B0004872002088720520029001200390B0E25B
:1014C0000320000286421DD1422036494870012C7B
:1014D0000AD1BF208871AA20C87100200872032099
:1014E0000290012003909CE2002C9CD1B9202D4950
:1014F0008871D820C8710020087203200290012052
:1015000003908EE20720C00186428CD142202549FB
:101510004870012C0ED1D5208871FD20C871D720CC
:101520000872AA20487200208872052002900120CB
:10153000039076E2002C8AD1B7201A498871B42032
:10154000C871D7200872AA20487200208872032030
:1015500002900120039064E204983D2872D1114961
:1015600048701749701A8E426DD036DC1549701AD2
:101570008E4269D00BDC1448301A030003F05AF98C
:101580000B3E9CA79CB09CB99CC29CCB9C0016288F
:1015900076D01DDC02283AD0042841D0142815E06A
:1015A00040000048990A0020AC0100208001002082
:1015B0008B010020B301002096010020A101002032
:1015C000280008000C0008000000080074D1B4E0F6
:1015D000182872D01A28F9D1CAE0801E030003F03F
:1015E00029F91728FE34FE3DFE46FE50FE59FE62E4
:1015F000FE6DFED9FEE2FEEBFEF5FE002012FC4978
:101600008871CC710220029001200390E8E0201242
:10161000F7498871CC710220029001200390DFE02D
:101620002012F3498871CC710220029001200390AE
:10163000D6E02012EE498871CC7102200290012080
:101640000390CDE0CDE09CE06EE02012E849887187
:10165000CC710220029001200390C1E02012E449E5
:101660008871CC710220029001200390B8E0201212
:10167000DF498871CC710220029001200390AFE015
:1016800064E02012DA498871CC71022002900120B6
:101690000390A5E02012D6498871CC7102200290F7
:1016A000012003909CE02012D1498871CC71022066
:1016B00002900120039093E091E050E02012CC4989
:1016C0008871CC71022002900120039088E02012E2
:1016D000C7498871CC7102200290012003907FE0FD
:1016E0002012C3498871CC7102200290012003901E
:1016F00076E02012BE498871CC7102200290012050
:1017000003906DE02012BA498871CC7102200290DA
:101710000120039064E02012B5498871CC71022049
:101720000290012003905BE02012B1498871CC71D6
:10173000022002900120039052E02012AC498871EF
:10174000CC71022002900120039049E02012A849A8
:101750008871CC71022002900120039040E0201299
:10176000A3498871CC71022002900120039037E0D8
:1017700020129F498871CC710220029001200390B1
:101780002EE020129A498871CC710220029001202B
:10179000039025E0201296498871CC7102200290B6
:1017A000012003901CE0201291498871CC71022025
:1017B00002900120039013E020128D498871CC71B2
:1017C00002200290012003900AE0FFE720128849DE
:1017D0008871CC71022002900120039000E000BFCC
:1017E0001FE1049844286AD1824886420DD14420E2
:1017F0007F49487000208871C871201208724C72AD
:1018000004200290012003900BE17A48001D8642DB
:101810000DD144207649487000208871C87120128B
:1018200008724C720420029001200390F9E0714884
:10183000083086420DD144206D49487000208871DF
:10184000C871201208724C7204200290012003908B
:10185000E7E068480C3086420DD144206449487066
:1018600000208871C871201208724C720420029006
:1018700001200390D5E05F48103086420DD144200E
:101880005B49487000208871C871201208724C7240
:101890000420029001200390C3E056481430864291
:1018A0009ED144205249487000208871C87120128E
:1018B00008724C720420029001200390B1E0049859
:1018C0003B2879D14C48864216D1012C08D1012001
:1018D00003903B2046494870012088710290A0E0A7
:1018E000002C08D1012003903B2041494870002082
:1018F00088710120029094E03F48401C864216D136
:10190000012C08D1012003903B2039494870012067
:101910008871029085E0002C08D1012003903B20C3
:1019200033494870002088710120029079E03248E4
:10193000801C864216D1012C08D1012003903B2047
:101940002B4948700120887102906AE0002C68D110
:10195000012003903B202649487000208871012017
:1019600002905EE02448C01C864216D1012C08D1AA
:10197000012003903B201E4948700120887102908D
:101980004FE0002C4DD1012003903B2018494870B6
:10199000002088710120029043E01748001D864214
:1019A00017D1012C09D1012003903B201049487028
:1019B00001208871029034E02CE0002C31D101200C
:1019C00003903B200A494870002088710120029052
:1019D00027E00948401D864223D1012C0ED1012069
:1019E00003903B200249487001208871029018E062
:1019F000990A0020E0FF020000FFFF00002C10D138
:101A0000012003903B20FD4948700020887101208F
:101A1000029006E00498702803D1F849487002202B
:101A200003900398012829D100200390AA20F349AC
:101A30000870300E8870FF2000043040000CC87021
:101A4000FF2000023040000A08714E71CC2102983C
:101A5000801DEA4A115433210298C01D1154C3213C
:101A60000298083011543C21029809301154029810
:101A70000A30C0B201900120009014E003980228BF
:101A800011D1AA20DD49087020128870CC70CC20BA
:101A9000087133204871C32088713C20C871082028
:101AA000019001200090009801280CD100200090A6
:101AB000002505E0D149485D01F02FFE681CC5B244
:101AC00001988542F6DB002007B0F0BDF3B581B088
:101AD0000D460024CA490198487001983F286DD0EE
:101AE00063287AD0722879D1052D2BD1C54800788A
:101AF000413088700020C870087148718871C248F0
:101B000000784130C8710020087248728872C8722B
:101B1000012406E0BA48015D009808180090601C96
:101B2000C4B2F01EA042F5DC0098C7B2384630308F
:101B3000F0210840B24908733807000F48730D20A0
:101B4000887339E0AF4800784130AD498870AD48BE
:101B50004078C870AB4880780871AA48C07848714E
:101B6000A84800798871A84800784130C871A64813
:101B700040780872A44880784872A348C078887278
:101B8000A1480079C872012406E09D48015D0098D3
:101B900008180090601CC4B2F01EA042F5DC00984A
:101BA000C7B238463030F0210840954908733807ED
:101BB000000F48730D2088730E262EE03F209049B9
:101BC0004870084685700626722D08D14220C870DC
:101BD000312008710D20487114E014E01CE0662DDE
:101BE00007D141208649C870352008710D20487101
:101BF00008E0692D06D141208149C870382008715C
:101C00000D20487109E036207D4988703320C87066
:101C10000D200871052600E000BF00BF7E20784936
:101C20000870002405E07649085D01F065FD601C40
:101C3000C4B2B442F7DB0020FEBDF0B587B0044665
:101C40007249601C085C0690069877287BD1A01C1E
:101C50006F4908406D49085C002875D1E01C6C494B
:101C600008406A49085C0828F7D1A01D085C69494A
:101C700008706649E01D085C664948706349601D4C
:101C8000085C049004981238030002F0D3FD0D089C
:101C9000EA24EA40EA5EEA7DEA9AEACFEA00002214
:101CA0005D493D20FFF7A6FA5C48006800280ED188
:101CB000584840785A490870564842785649203961
:101CC0003D20FFF797FA01205649086002E0002006
:101CD00050494870C6E000224F493D20FFF78AFA7C
:101CE0004E48006801280ED14A4840784C49487057
:101CF0004848427848491E393D20FFF77BFA0020CA
:101D00004849086002E0002042494870AAE0414882
:101D10004078434988703F4842783F492A393D20FE
:101D2000FFF768FA3B4840783C21484302463E4969
:101D30004420FFF75FFA01223649491C36483838FB
:101D400002F0D3F98EE0CFE191E032484078344997
:101D5000C87030484278304928393D20FFF74AFAA8
:101D60002C4840783C23584302462F4B1B1D0598B6
:101D7000C1184420FFF73EFA01222649491C264893
:101D8000363802F0B2F96DE02248407824490871F3
:101D900020484278204926393D20FFF72BFA1D487C
:101DA00040783C21484302461F4908314420FFF750
:101DB00021FA01221749491C1748343802F095F9D5
:101DC00050E0144840781649487112484278124948
:101DD00024393D20FFF70EFA0E4840783C21484355
:101DE000024611490C314420FFF704FA0122094947
:101DF000491C0948323802F078F933E0990A00208A
:101E0000400F00202402002029020020840200202C
:101E1000FF4F0000CE0100202E000800F801002036
:101E2000D0010020D8010020E4FF0200FB484078E8
:101E3000FB498871F9484278FA493D20FFF7DAF901
:101E4000F64840783C2148430246F7494420FFF7D2
:101E5000D1F90122F149491CF2480E3802F045F946
:101E600000E000BF00BF20460C300390F2E3A01C4E
:101E7000EE490840EE49085C0028F7D1E01CEB4928
:101E80000840EB49085C0228F0D1201DE7490840D2
:101E9000E749085CFF28E9D1601D0D5CF02D7BD07F
:101EA00006DCE02D09D0E42D26D0E82D23D175E005
:101EB000F42D72D0F82DF9D1F8E0DE480068002842
:101EC00001D1012000E00020DA4908600022DA494F
:101ED0003B20FFF78FF90022D24922313D20FFF746
:101EE00089F90122CF4924313D20FFF783F90521EB
:101EF0007220FFF7EBFDF6E00120D04908600022D8
:101F0000CD49491C3B20FFF775F9CD4840680028B2
:101F100006D00122C849891C3B20FFF76BF91FE05E
:101F2000C7488068002806D00122C349C91C3B204D
:101F3000FFF760F914E0C248C068002806D001220B
:101F4000BD49091D3B20FFF755F909E0BC48006970
:101F5000002805D00122B849491D3B20FFF74AF966
:101F6000B848808882B280214220FFF743F9B54803
:101F7000008982B2FF2101314220FFF73BF90020A6
:101F8000B14948708870C870A548C07808710021B0
:101F90007220FFF79BFDA6E02EE067E00220A74934
:101FA00008600022A449891C3B20FFF723F9A448BC
:101FB0008068002806D001229F49C91C3B20FFF7FA
:101FC00019F914E09E48C068002806D001229A49F9
:101FD000091D3B20FFF70EF909E099480069002828
:101FE00005D001229449491D3B20FFF703F9052143
:101FF0007220FFF76BFD76E0032090490860002215
:102000008D49C91C3B20FFF7F5F88D48C0680028B2
:1020100006D001228849091D3B20FFF7EBF809E0B3
:1020200087480069002805D001228349491D3B20CB
:10203000FFF7E0F88348008982B280214220FFF751
:10204000D9F88048808982B2FF2101314220FFF710
:10205000D1F800207C4948708870C8707048407979
:10206000087100217220FFF731FD3CE00420734924
:10207000086000227049091D3B20FFF7BBF870483B
:102080000069002805D001226B49491D3B20FFF75C
:10209000B1F800206C4948708870C8706048807939
:1020A000087100217220FFF711FD1CE00020634938
:1020B000086000226049491D3B20FFF79BF86148FA
:1020C000808982B280214220FFF794F85D48008821
:1020D00082B2FF2101314220FFF78CF805217220E6
:1020E000FFF7F4FC00BF06E30698782871D1504949
:1020F000E01C0D5C201D0E5C002D2AD1002E02D0AC
:10210000012E25D120E002205049086000228021C4
:102110004220FFF76FF80022FF2101314220FFF734
:1021200069F820223F490A393D20FFF763F8012270
:10213000032109024220FFF75DF801220721C901AE
:102140004220FFF757F803E001204049086000BF34
:10215000C7E2012D61D1330002F06CFB0BFD9898B2
:102160000799FCFBB7DD98FA980001203849086010
:1021700000203849086001222A4922313D20FFF71A
:1021800039F80022274924313D20FFF733F8012296
:10219000234924481A3801F0A8FF01222049491C8C
:1021A0002048183801F0A1FF2B480068012811D100
:1021B0000020254948708870C87019480078087157
:1021C0000020264948708870C8701548007808714A
:1021D00010E08CE200201C4948708870C8701048DC
:1021E0004078087100201D4948708870C8700C48FC
:1021F0004078087100217220FFF768FC18480068D9
:1022000000282FD1054840783C2148430246064922
:1022100014394420FEF7EEFF27E0FCE0CE01002059
:10222000D00100200C000800F4FF0200FF4F000066
:1022300084020020140F002000FFFF003002002065
:10224000000F00202C0F002024020020EC010020B1
:10225000FC01002000020020D801002029020020FB
:10226000F40100200020FC4908600122FB493B20CA
:10227000FEF7C0FF0122FF2181314220FEF7BAFFA5
:1022800001220521C9014220FEF7B4FFC2E001206E
:10229000F34908600020F34908600022F2493D201C
:1022A000FEF7A8FF0122F049891C3D20FEF7A2FF9E
:1022B00005217220FFF70AFC0022E8493B20FEF7C7
:1022C00099FF0120E4490860A4E00120E749086083
:1022D0000020E74908600122E349091D3D20FEF77F
:1022E00089FF0022E049891D3D20FEF783FFE14878
:1022F000006801280ED10020DE490860DE49087020
:1023000000217220FFF7E2FB01220521C9014220D2
:10231000FEF770FF7EE00020D44908600120D44918
:1023200008600122D049891D3D20FEF763FF00228D
:10233000CD49091D3D20FEF75DFFCE48006800280D
:102340000DD10120CB490860CB490870002103E082
:1023500050E025E00AE03DE00220FFF7B7FB002255
:102360000521C9014220FEF745FF53E00120C34982
:1023700008600020C24908600122BB4908313D20A5
:10238000FEF738FF0022B8490A313D20FEF732FF40
:102390000020BC49087000217220FFF797FB39E04C
:1023A0000120B74908600020B44908600122AE4905
:1023B0000A313D20FEF71EFF0022AB4908313D20C7
:1023C000FEF718FF0120AF49087000217220FFF7C7
:1023D0007DFB1FE00020AC4908600122A249091FD3
:1023E0003D20FEF707FF00229F49891E3D20FEF792
:1023F00001FF0FE00120A449086001229A49891ECB
:102400003D20FEF7F7FE00229749091F3D20FEF709
:10241000F1FE00BF65E1022D7DD1330002F00AFA22
:1024200007878687052E506A870001209749086034
:1024300000209749086001228B4910313D20FEF7AA
:10244000D9FE0022884912313D20FEF7D3FE00203C
:102450008949087048708870C8708E488078087103
:1024600000217220FFF732FB8B4800687B4A521C28
:10247000811801223B20FEF7BDFE58E00020834971
:1024800008600120824908600022774910313D2010
:10249000FEF7B0FE0122744912313D20FEF7AAFE7C
:1024A00005217220FFF712FB002706E06B48391860
:1024B00000223B20FEF79EFE7F1C052FF6DB36E058
:1024C00001207649086000207549086001226649AC
:1024D0000C313D20FEF78EFE002263490E313D2077
:1024E000FEF788FE00206749087000217220FFF780
:1024F000EDFA1CE000206949086001206849086085
:10250000002259490C313D20FEF774FE0122564944
:102510000E313D2000E00BE0FEF76CFE0120594932
:10252000087000217220FFF7D1FA00E000BFD8E068
:10253000032D71D1701F030002F07CF907051A2FDB
:102540004459D16FD20057480068002801D10120BA
:1025500000E00020534908600020534908605148BA
:10256000008882B240490E393D20FEF743FEB7E0B5
:102570004C484068002801D1012000E00020494972
:1025800048600120484908604648808882B2364940
:102590000C393D20FEF72EFEA2E04248806800285C
:1025A00001D1012000E000203E49886002203E4920
:1025B00008603C48008982B22B490A393D20FEF769
:1025C00019FE8DE03748C068002801D1012000E0E5
:1025D00000203449C86003203349086031488089AD
:1025E00082B2214908393D20FEF704FE78E02D48EB
:1025F0000069002801D1012000E00020294908617C
:102600000420294908602748008A82B21649891F98
:102610003D20FEF7EFFD63E063E00027002002901D
:10262000019013E0B8001F49085801280DD1019806
:10263000401C0190781C029989001C4A50500521C9
:102640000298401C01F06CFE02917F1C052FE9DB13
:10265000019832E04FE00000F401002000FFFF008D
:1026600000020020FC0100202E00080004020020CF
:1026700008020020E0010020240200200C020020BB
:102680001002002029020020F8010020140200207E
:1026900018020020D0010020300200201C0200207F
:1026A00020020020000F0020F00100202C0F00204D
:1026B00000218200FB4B9950401C0528F8DBF948AB
:1026C000008882B280214220FEF794FDF548808880
:1026D00082B2FF2101314220FEF78CFD00E000BFF5
:1026E00000BF20460930F0490840039003E0601C19
:1026F000ED4908400390039807B0F0BDFEB5EB48E4
:102700000468EB480568A54203D2012080022F1817
:1027100000E02F460020019000BFE648005D0090D9
:102720000098AA287CD1E349601C0E5C772E40D12A
:10273000381B0B283AD320460830085CCC2815D12A
:1027400020460930085C332810D120460A30085C46
:10275000C3280BD120460B30085C3C2806D120460C
:10276000FFF76BFAD149086001200190D14920465A
:102770000A30085CCC2816D120460B30085C332880
:1027800011D120460C30085CC3280CD120460D30F6
:10279000085C3C2807D12046FFF74FFAC349086080
:1027A0000120019040E0022001903DE003200190D3
:1027B0003AE0782E22D1381B08281CD3BD49601D71
:1027C000085CCC2814D1A01D085C332810D1E01D72
:1027D000085CC3280CD120460830085C3C2807D18F
:1027E0002046FFF72AFAB1490860012001901BE05A
:1027F0000220019018E00320019015E0432E08D13B
:102800002046FFF71AFAA9490860012001900BE061
:1028100006E0002E08D0601CA3490840044603E0EF
:10282000601CA14908400446AC4203D0019800282E
:1028300000D172E70198002802D00198022801D146
:102840009A480560FEBDF8B504469B49601C0F5CC4
:102850006F2F04D108309449084006466DE03F2FA1
:102860003ED19549E01C085C413894490870924972
:10287000201D085C914948708F49601D085C8F4994
:1028800088708D49A01D085C8C49C8708A49E01D7C
:10289000085C8A490871884920460830085C41383C
:1028A00087490870844920460930085C844948708B
:1028B000814920460A30085C814988707E4920465B
:1028C0000B30085C7E49C8707B4920460C30085CA0
:1028D0007B490871204609307349084006462CE0C0
:1028E000662F24D103251BE07348405D312815D1A4
:1028F00000216320FFF7EAF8E81E030001F09AFFC9
:102900000805060708090A0B0C0D06E005E004E0BF
:1029100003E002E001E000E000BF00BF681CC5B2B8
:102920000B2DE1DB601C60490840064605E0882F5E
:1029300003D0601C5C49084006463046F8BDF0B53F
:1029400085B06048046860480668A64203D201204A
:102950008002371800E037460020039000BF564839
:10296000005D029002987E287ED15349601C0D5C68
:102970006F2D14D1381B06280ED3601D085C0D285E
:1029800007D12046FFF75FFF484908600120039008
:10299000B1E002200390AEE003200390ABE03F2DB6
:1029A00040D1381B10283AD30120484908800BE059
:1029B000414846490988415C0198081801904348FC
:1029C0000088401C41490880404800880D28EFDB02
:1029D0000198C0B20090374920460D30095C00983C
:1029E0003030F0221040814216D1324920460E305C
:1029F000095C00980007000F81420DD12D49204647
:102A00000F30085C0D2807D12046FFF71CFF27492F
:102A10000860012003906EE0022003906BE0032029
:102A2000039068E0662D59D1381B0E2853D301203E
:102A3000264908800BE0204824490988415C019818
:102A40000818019021480088401C204908801F4830
:102A500000880B28EFDB0198C0B200901549204692
:102A60000C30095C009800E041E03030F02210406A
:102A700081422DD10F4920460D30095C0098000796
:102A8000000F814224D10B4920460E30085C0D28EE
:102A90001ED12046FFF7D7FE0449086001200390AD
:102AA00029E000002C0F0020FF4F0000380200201A
:102AB0003C02002084020020840600202402002022
:102AC000290200204002002044020020BE01002014
:102AD000022003900FE0032003900CE0882D0AD021
:102AE000002D08D0601C84490840044603E0601CA7
:102AF000814908400446B44203D00398002800D11D
:102B00002DE70398002802D00398022801D17B48C2
:102B1000066005B0F0BDF7B584B00D46144600263A
:102B20000020029001900027039000900498442810
:102B30002DD17348854213D1442072494870200E2C
:102B40008871FF2000042040000CC871FF200002A3
:102B50002040000A08724C7204260120039016E0FF
:102B60006748001D854212D1442066494870200EF6
:102B70008871FF2000042040000CC871FF20000273
:102B80002040000A08724C7204260120039003982A
:102B9000012824D100200390AA205A490870280E49
:102BA0008870FF2000042840000CC870FF2000023D
:102BB0002840000A08714D71CC21B01D514A1154B2
:102BC0003321F01D1154C321401C11543C21401CE1
:102BD0001154401CC0B202900120019015E00398EE
:102BE000022812D1AA20474908702004000E8870DC
:102BF000CC70CC20087133204871C32088713C20F0
:102C0000C8710820029001200190019801280CD180
:102C100000200190002705E03A49C85D00F07DFDE5
:102C2000781CC7B202988742F6DB002007B0F0BDDF
:102C300010B501F00EF9344908700A2132480078C5
:102C400001F06EFB052908DB0A212F4800780A30C5
:102C500001F066FB2C49087006E00A212A4800783A
:102C600001F05EFB284908702748027827493D207B
:102C7000FEF7C0FA10BD70B505460C46022C06D111
:102C800000202349087048708870C87006E0A87852
:102C90001F490870002048708870C8701D48447033
:102CA00008211B4800F04AFD1B49086008460078CF
:102CB00017498870184800880004000EC870022068
:102CC0001649088000201649088010E01448018841
:102CD0000088401C124A10800D48415C0D480F4A84
:102CE000128881540D480088401C0C4908800B480C
:102CF00000880628EADB70BDFF4F00003802002084
:102D0000E0FF0200990A0020BC0100200008080032
:102D1000B8010020C8010020C4010020BE0100202D
:102D2000C0010020C020DF494862DF48DF49086059
:102D300000BFDE4800680121890708400028F8D15B
:102D4000C320D8494862DA480068032189038843D0
:102D5000012189030843D649086008460068032119
:102D600089038843D24908600846006803210903A3
:102D70008843012109030843CD4908600846C0691A
:102D8000032109028843FF2101310843C849C86172
:102D90000846C0694008400001210843C449C86191
:102DA0000846C06904218843C149C8610846C06912
:102DB000082188430843BE49C8610846C06970219C
:102DC0008843BB49C8610846006A30218843102106
:102DD0000843B749086200BFB648006A89158843AE
:102DE000B449086200BF0020B24940398969F8221D
:102DF0009143B04A403A916111468969014391611A
:102E000000BF00BFAB48006A51158843A94908625A
:102E100000BF0020114689691F22D2029143A54AB2
:102E2000403A91611146896902021143A14A403A30
:102E3000916100BF0320002805DBC206D20E0121EC
:102E400091409D4A116000BF0320002805DBC206A7
:102E5000D20E01219140994A116000BF704710B510
:102E600000F012F9002870D100F015F900287ED189
:102E700093480068012820D19248006800280BD1AF
:102E800091480078401CC0B28F49087002468F49B3
:102E90003D20FEF7AFF9F0E08A4800680128FAD13A
:102EA00089484078401CC0B287494870024687492B
:102EB000891C3D20FEF79EF9DFE08148006802286A
:102EC000E9D18348006800280CD17F488078401CF5
:102ED000C0B27D49887002467C490A393D20FEF720
:102EE00089F9CAE07A48006801280CD17648C07890
:102EF000401CC0B27449C8700246744908393D206C
:102F0000FEF778F9B9E07248006802280CD16E48E3
:102F10000079401CC0B26C49087102466B49891F98
:102F20003D20FEF767F9A8E06948006803280DD145
:102F300065484079401CC0B2634948710246634904
:102F4000091F3D20FEF756F997E010E06048006841
:102F50000428A0D15C488079401CC0B25A498871CD
:102F600002465A49891E3D20FEF744F985E000F0EB
:102F70008BF8FF21013188427FD100F08CF80028C6
:102F80007BD14F48006801281FD14E4800680028B7
:102F90000BD14D480078401EC0B24B490870024624
:102FA0004A493D20FEF726F90FE04648006801280F
:102FB0000BD145484078401EC0B243494870024694
:102FC0004249891C3D20FEF715F93D48006802285A
:102FD00053D13F48006800280CD13B488078401E00
:102FE000C0B239498870024638490A393D20FEF797
:102FF00001F942E03648006801280CD13248C07817
:10300000401EC0B23049C8700246304908393D20E0
:10301000FEF7F0F831E02E48006802280CD12A486B
:103020000079401EC0B22849087102462749891F0D
:103030003D20FEF7DFF820E02548006803280CD18A
:1030400021484079401EC0B21F49487102461F49BD
:10305000091F3D20FEF7CEF80FE01D480068042848
:103060000BD119488079401EC0B2174988710246B9
:103070001649891E3D20FEF7BDF80D4840698021A4
:1030800088430B49486110BD0A484038406AFF2117
:1030900001310840704707484038406A0121490221
:1030A00008407047000001400004F03F0003014069
:1030B000000601404002044080E200E000E100E040
:1030C000EC010020F8010020D00100200E000800D3
:1030D000F00100208020114909691F22D20291438A
:1030E0000E4A116111460969020211430B4A11612E
:1030F00000BF00BF114609691F22D2049143074A4D
:1031000011611146096902041143044A116100BFAB
:1031100000BF04201146486000BF70470000044013
:1031200010B500F04DF900F05DF8FDF7F1FFC0209B
:103130002549486204202549086125480860C320C4
:103140002149486200F0D8FC00F017FD00F070FD46
:10315000152000F02FF8152000F023F8162000F0BD
:1031600029F8162000F01DF8FFF7DCFDFFF7B2FF8D
:1031700010BD00BF17481849486000BF802009698A
:1031800049014909144A11611146096902061143AE
:10319000114A116100BF00BF08201146486000BFFE
:1031A0007047002805DBC206D20E012191400B4A70
:1031B00011607047002805DBC206D20E0121914044
:1031C000074A116070470000000001400003014001
:1031D0000004F03F020002000000044000E100E0B3
:1031E00080E200E010B5C020FE494862FE48006958
:1031F00008210843FC490861FC48086000BFFA4800
:1032000000680121890708400028F8D1C320F5494A
:103210004862B820F6490969F8229143F44A1161DD
:10322000114609690143116100BF00201146096977
:103230001F22D2029143EE4A11611146096902022E
:103240001143EB4A116100BF0920C006C068032189
:1032500008430921C906C86008460069032189039B
:1032600088430121C90308430921C90608610846AA
:103270000069800A8002DF4908430921C906086104
:103280000846C069032108430921C906C8610846E8
:1032900040690321090288430921C906486108469B
:1032A00040691F2189028843092189020843490492
:1032B000486108464069D049084003210904084391
:1032C0000921C90648610846406B0221884308432A
:1032D0000921C90648630846406B03210902884357
:1032E000911508430921C90648630846406B3F21F0
:1032F000090488430721090408430921C9064863D2
:103300000846406B0F210906884307210906084338
:103310000921C90648630846806B03218902884356
:10332000111508430921C90688630846806B911569
:10333000884308430921C90688630846C06B4008D2
:103340004000012108430921C906C8630846C06B33
:10335000022188430921C906C8630846C06B1F21A2
:1033600009028843092109020843C904C863A34824
:1033700080680121490388430843A04988600846C2
:10338000006800090001022108439C4908600846C2
:1033900000680321090288439849086008460068CC
:1033A0000902884308439549086095480921C906E0
:1033B00088610B2000F013FA0B2000F007FA10BD13
:1033C00010B5C02087494862874800690821084332
:1033D000854908618548086000BF8348006801216D
:1033E000890708400028F8D1C3207E494862B820E8
:1033F0007F4909691F22D20491437D4A1161114618
:103400000969020411437A4A116100BF0020114684
:103410000969490149091161114609690206114307
:10342000734A116100BF7748C069C008C00001211C
:1034300008437449C8610846C069012108437149BD
:10344000C8610846C068032108436E49C860084641
:1034500000690321890388430121C903084369499D
:10346000086108460069800A80026249084365498C
:10347000086108464069032109028843614948619F
:10348000084640691F2189028843092189020843AF
:103490005C494861084640695749084003210904CE
:1034A0000843584948610846406B02218843084355
:1034B000544948630846406B03210902884391152B
:1034C0000843504948630846406B3F21090488433C
:1034D0000721090408434B4948630846406B0F2104
:1034E00009068843072109060843464948630846F8
:1034F000806B032189028843111508434149886381
:103500000846806B9115884308433E498863084606
:10351000C06B40084000012108433A49C86308468F
:10352000C06B022188433749C8630846C06B1F211E
:10353000090288430921090208433249C863314816
:103540004030806801214903884308432D494031B8
:1035500088600846006800090001022108432949E3
:103560004031086008460068032109028843254964
:1035700040310860084600680121890388430843F8
:1035800020494031086020481E4988610C2000F025
:1035900026F90C2000F01AF910BD184880680121A6
:1035A00089030840800B002842D01448C068884333
:1035B0001249C860084640691449154A126888547F
:1035C0000E4840691349088011480068401C1049A2
:1035D0000860084600680121890288421DD3002046
:1035E0000B4919E000000140000301400004F03FD6
:1035F000000104404E020000FFFF00FC40000048B4
:10360000222202000002004833330300840200201B
:103610003C0200204A020020086000207449087023
:103620007448C06840084000012108437149C860DF
:10363000704771488068012189030840800B002889
:103640002CD06D48C06888436B49C8600846406903
:103650006A496B4A1268885467484069694908801A
:1036600067480068401C66490860084600680228F0
:1036700000D100BF6248006801218902884202D35C
:1036800000205F49086000205F4908705F48C068FB
:1036900040084000012108435C49C860704710B5EC
:1036A00053480078012807D15948006859490968EA
:1036B000884201D0FFF722F810BD10B552480078BB
:1036C000012807D1544800684D490968884201D053
:1036D000FFF735F910BD00BF474989680122520341
:1036E00011400029F8D04449C9681143424AD160C9
:1036F000414940310860704700BF3F498968012255
:10370000520311400029F8D03B49C96811433A4A95
:10371000D160394940314860704700BF3F498968EE
:103720000122520311400029F8D03C49C9681143D5
:103730003A4AD160394940314860704770B5024615
:103740000B463748002113E0555C684000240BE02D
:10375000C507ED0F002D04D04508324E75402846B0
:1037600000E04008651CECB2082CF1DB4D1CE9B20E
:103770009942E9DB70BD00B585B0034600202A49B7
:10378000087009E03F2168460180012141802648F8
:103790000078401C24490870234800780928F1DB90
:1037A0000020214908700BE01F49097849006A464A
:1037B000505AFFF790FF1C480078401C1A490870C7
:1037C000194800780A28EFDB05B000BD002805DBAA
:1037D000C206D20E01219140144A116070470028A0
:1037E00005DBC206D20E01219140114A11607047DB
:1037F00034020020000104484002004884060020F2
:10380000440200204A020020350200200002044841
:10381000380200203C020020400200204000004806
:10382000FFFF000001A00000BE01002000E100E059
:1038300080E200E010B504228F49904800F044FC7B
:103840000A228F498D48001D00F03EFC8A4802780C
:103850008A491C313D20FDF7CDFC87488278874995
:103860001E313D20FDF7C6FC8548027883491231A0
:103870003D20FDF7BFFC824800783C2148430246CA
:1038800080494420FDF7B6FC7D4882787B4914319D
:103890003D20FDF7AFFC7A4880783C214843024642
:1038A0007849091D4420FDF7A5FC75480279734944
:1038B00016313D20FDF79EFC714800793C214843BC
:1038C0000246704908314420FDF794FC6C48827927
:1038D0006A4918313D20FDF78DFC694880793C210B
:1038E0004843024667490C314420FDF783FC644895
:1038F000027A62491A313D20FDF77CFC6048007A6B
:103900003C21484302465F4910314420FDF772FCD8
:1039100010BD10B5202291033D20FDF76BFC002265
:103920005849091F4420FDF765FC002256493B20F9
:10393000FDF760FC002251493A313D20FDF75AFC69
:1039400000224E4938313D20FDF754FC0122FF2171
:1039500081314220FDF74EFC01220521C9014220A0
:10396000FDF748FC2022454910313D20FDF742FC7F
:103970000122032109024220FDF73CFC012207211C
:10398000C9014220FDF736FC002280214220FDF7CC
:1039900031FC012211024220FDF72CFC01223749A3
:1039A0002E313D20FDF726FC012038490860002219
:1039B000324930313D20FDF71DFC01222F493231C3
:1039C0003D20FDF717FC01203049886000222B497B
:1039D00034313D20FDF70EFC0122284936313D20CF
:1039E000FDF708FC01202949086100222549091F2B
:1039F0004420FDF7FFFB202222494420FDF7FAFB7B
:103A000020222049091D4420FDF7F4FB20221D49F6
:103A100008314420FDF7EEFB20221A490C314420E6
:103A2000FDF7E8FB2022174910314420FDF7E2FBA7
:103A3000002215493B20FDF7DDFB00221249491CFD
:103A40003B20FDF7D7FB00220F49891C3B20FDF7E7
:103A5000D1FB00220C49C91C3B20FDF7CBFB002207
:103A60000949091D3B20FDF7C5FB00220649491DF8
:103A70003B20FDF7BFFB10BD74020020F2FF0700E2
:103A80005A140020E4FF020000FFFF00000F002096
:103A90008A48006AC007C00F002812D08748006B10
:103AA000012108438549086301208549087083483E
:103AB0008038006940084000012108437F4980396F
:103AC000086170477F48006AC007C00F002812D005
:103AD0007C48006B012108437A49086301207A4938
:103AE0000870764880300069400840000121084392
:103AF00072498031086170477448C068FF21013104
:103B0000884308437149C8606C488038406A00099E
:103B100000010A2108436949803948620846406B20
:103B2000000C000432210843644980394863674827
:103B300000694008400001210843644908610846C3
:103B4000C06840084000012108436049C8605B48E4
:103B5000406A40084000012108435849486208462D
:103B6000806A800880008862544880380069400874
:103B7000400052498039086170475448C068FF21AD
:103B80000131884308435149C8604C488030406A3D
:103B9000000900010A21084348498031486208466B
:103BA000406B000C000432210843444980314863D3
:103BB0004648006910218843084344490861084683
:103BC000C0680221884308434049C8603D48406AB4
:103BD00040084000012108433A4948620846806A8B
:103BE00080088000012108433649886233488030CC
:103BF00000694008400001210843304980310861D4
:103C000070473348006AC007C00F00280FD0304803
:103C1000006B012108432E4908632A48803000695F
:103C2000400840000121084326498031086170475F
:103C30002648C068FF210131884308432349C860F2
:103C400020488030406A00090001032108431D49D3
:103C5000803148620846406B000C00040121084393
:103C600018498031486319480069FF2101318843B0
:103C70000843164908610846C06804218843084380
:103C80001249C8601248406A4008400001210843B8
:103C90000F4948620846806A800880000121084375
:103CA0000B498862074880300069400840000121C4
:103CB00008430449803108617047000080010448CE
:103CC000340200208002044835020020000004482D
:103CD0008003044810B50024102000F0F2F800BF63
:103CE0008248406AC007C00F8149086004E0601C38
:103CF000C4B2012000F006F900BF7E48406AC00748
:103D0000C00F002801D0C82CF1DBC82C01DB01203A
:103D100010BD002404E0601CC4B2012000F0F2F8E1
:103D200000BF7448406AC007C00F002801D1F02CC2
:103D3000F1DBF02C01DB0120EAE709206E49087075
:103D40000020E5E710B5802000F0BBF800F0C8F8CF
:103D50006A4800F0D7F800F0BFF80F2000F0D2F862
:103D600010BD10B500BF63484030006A40084000F5
:103D700060494031086200BF802000F0A2F800F0E6
:103D8000ABF8FFF7DFFFFFF7A5FF10BD10B58020F0
:103D900000F097F800F0A4F8022000F0B3F800F06B
:103DA0009BF8102000F08DF80C2000F0ABF800BF5D
:103DB0005048406AC007C00F002801D0012400E02D
:103DC0000024322000F09EF8204610BD70B5002679
:103DD000012508E0FFF7DAFF0446E001711008430F
:103DE000C6B2681CC5B2082DF4DD304670BD70B592
:103DF0000446802000F065F801251BE0E607F60F79
:103E00006410002E0AD000F06BF8022000F07AF85F
:103E100000F062F83C2000F075F809E000F060F86E
:103E20003C2000F06FF800F057F8022000F06AF82C
:103E3000681CC5B2082DE1DD70BD10B5FFF782FF2B
:103E4000FFF748FFCC20FFF7D2FF4420FFF7CFFF5A
:103E500010BDF0B585B0FFF7F0FFFFF773FFFFF778
:103E600039FFCC20FFF7C3FFBE20FFF7C0FFFFF7ED
:103E7000ADFF0746FFF7AAFF0446072C05DDE04328
:103E8000C4B2F843C7B2002600E001262546280246
:103E900005B2E81905B2284600F03FFB0022184B96
:103EA0000191009000F044FB0391029000F0DEFAD3
:103EB00005B2002E02D0284605B0F0BD684200B21F
:103EC000FAE70C490969F82291430A4A116111463F
:103ED0000969014311617047012006494860704734
:103EE00001200004034948607047000000000440BE
:103EF0007C0200200002044080020020EE0200004C
:103F00000000E43F002101E000BF491C8142FBDBCF
:103F1000704730B5034600240AE0002503E0012085
:103F2000FFF7F0FF6D1C7D20C0008542F7DB641CAD
:103F30009C42F2DB30BD0948C068400840000121C6
:103F400008430649C860704700B50246002302E0F6
:103F5000FFF7F1FF5B1C9342FADB00BD000304484E
:103F60000C4800690121490208430A4908610120FF
:103F700009490861C01E4861084848607047064802
:103F8000C06805490969884202D30548024988602A
:103F900070470000000301400000024001FF0000E4
:103FA000FECAADAB10B500F0B1F810BD70B5044657
:103FB000002600F0BFF8A02000F028F900F0E0F89B
:103FC000201200F023F900F0DBF82546E117090E76
:103FD000491909120902611AC8B200F017F900F074
:103FE000CFF800F0A7F8A12000F010F900F0C8F811
:103FF000002000F03AF9064600F0AFF8304670BDF8
:1040000070B504460E4600F095F8A02000F0FEF8CA
:1040100000F0B6F8201200F0F9F800F0B1F82546EB
:10402000E117090E491909120902611AC8B200F014
:10403000EDF800F0A5F8304600F0E8F800F0A0F840
:1040400000F08BF80A20FFF764FF70BDF8B5054655
:104050000E461746002409E0E2003346D340D9B2A9
:104060002A1990B2FFF7CCFF601CC4B2BC42F3DB4C
:10407000F8BDF8B507460C460026002509E03602D3
:104080003919491B491E88B2FFF790FF8619681C31
:10409000C5B2A542F3DB3046F8BD10B5FF20FFF7EF
:1040A00085FF0446552C01D1002010BD5521FF206D
:1040B000FFF7A6FFFF20FFF779FF0446552C01D13B
:1040C0000020F2E70120F0E770B506460C461546E1
:1040D00008E03146761C88B2FFF768FF2070641C48
:1040E000681E85B2002DF4D170BD70B504460D4632
:1040F000164605E02978A0B2FFF782FF641C6D1C0C
:104100003046711E8EB20028F4D170BD10B58020EB
:104110007C490969F82291437A4A1161114609697B
:104120000143116100BF00F0D0F800F0C5F800F0C5
:10413000DAF810BD10B5802000F0C7F800F0D3F811
:1041400000F0BAF80420FFF7DDFE00F0D1F80420FB
:10415000FFF7D8FE00F0B4F810BD10B5802000F0D5
:10416000B4F800F0ADF800F0C3F80420FFF7CAFE81
:1041700000F0A2F800F0B7F80420FFF7C3FE10BD6E
:1041800010B50024102000F0A0F800F0ACF80120D9
:10419000FFF7B8FE00F090F80120FFF7B3FE07E04C
:1041A000601CC4B2FA2C03DDFFF7D7FF012010BD5D
:1041B00000F0A3F80028F3D100F082F80020F6E721
:1041C00010B500F07DF8802000F07FF800F090F846
:1041D0000220FFF797FE00F06FF80220FFF792FE33
:1041E00000F06EF810BD10B500F06AF8802000F005
:1041F0006CF800F078F80220FFF784FE00F05CF81D
:104200000220FFF77FFE00F05BF810BD70B504469A
:10421000802000F05AF800F053F8002522E08020BA
:104220002040C0113849087008460078002802D1A3
:1042300000F05EF805E034480078012801D100F074
:1042400052F86006040E0220FFF75CFE00F034F81E
:104250000220FFF757FE00F033F80220FFF752FE6E
:10426000681CC5B2082DDADB70BD70B505460024A8
:10427000102000F02AF8002613E000F021F80220B8
:10428000FFF740FE00F018F86006040E00F035F865
:10429000002801D0601CC4B20120FFF733FE701C5F
:1042A000C6B2082EE9DB002D02D1FFF79CFF01E02A
:1042B000FFF786FF204670BD012012494860704715
:1042C000012000040F49486070470E4909691F2208
:1042D000D20291430B4A116111460969020211434E
:1042E000084A116170470220064948600120704762
:1042F000012040040349486070470248406A022197
:104300000840704700000440820200200022030998
:104310008B422CD3030A8B4211D300239C464EE0E0
:1043200003460B433CD4002243088B4231D303099C
:104330008B421CD3030A8B4201D394463FE0C3094E
:104340008B4201D3CB01C01A524183098B4201D366
:104350008B01C01A524143098B4201D34B01C01A51
:10436000524103098B4201D30B01C01A5241C308C9
:104370008B4201D3CB00C01A524183088B4201D338
:104380008B00C01A524143088B4201D34B00C01A24
:104390005241411A00D201465241104670475DE039
:1043A000CA0F00D04942031000D3404253400022BC
:1043B0009C4603098B422DD3030A8B4212D3FC2265
:1043C000890112BA030A8B420CD3890192118B42E4
:1043D00008D3890192118B4204D389013AD09211FA
:1043E00000E08909C3098B4201D3CB01C01A5241B5
:1043F00083098B4201D38B01C01A524143098B427E
:1044000001D34B01C01A524103098B4201D30B0166
:10441000C01A5241C3088B4201D3CB00C01A52418B
:1044200083088B4201D38B00C01A5241D9D2430872
:104430008B4201D34B00C01A5241411A00D20146AF
:10444000634652415B10104601D34042002B00D519
:104450004942704763465B1000D3404201B50020DB
:10446000C046C04602BD70477047704730B503462E
:10447000CA02400D1043164D164C0A1502D02043B7
:10448000002A06DBAA1A002A12DDD040FF2A0BDC24
:1044900030BD5205520D01D140004008AA1A07D480
:1044A000D0404042FF2A01DD002030BD0028FCDD65
:1044B0004A00002B01D0012000E00020101801224A
:1044C0005205D042F0D8C817C043604030BD00004C
:1044D0001E040000000000801F22030C02D10F22E6
:1044E000000402D0030E03D004E000200146704710
:1044F0000002083A030F01D10001121F830F01D1FE
:104500008000921E002801DB4000521E1205511847
:104510004205C012411810467047C10FC90700D0AC
:104520004042012292071143D6E701218907D3E7D0
:10453000F0B58B4C0F09254689B0BD437BD01D09D2
:104540002646AE43FAD00E465E402740F60F3E4365
:10455000254071D024012142FBD0FF24AD19A404D1
:104560002D1B039501252D05DB02DB0AC9022B4318
:10457000C90A29431E010901040F130F0501214334
:104580001701880B820391432D098C46A90B1E430A
:104590008A039543B30B9A0396433F09BA0B9403DE
:1045A000A74302962E467E430497B6464E19D71966
:1045B0000C460196544305977E43371B7646BF1B36
:1045C0003601B646BE0B361900967646BC0437193E
:1045D000009C01D3641C00946400002F01D00126CC
:1045E0003443029E049F754366467E4304967600DC
:1045F00034196E0034190094029C019E1C19664304
:10460000751BAE46069465464519059C05956C4399
:10461000594375460891691A0191049E0146514318
:10462000A41B0491611A009C0791E10605D0610961
:104630000122114302E072E06EE06109089D00274B
:104640002C0A2D066918049D7C412A0A2D0669183A
:10465000019D6241AC0DAD026D185441079A910D58
:10466000920255196141029A644658435443069B8D
:10467000059A5A43121A131B9A0E9B015B187A4132
:10468000010B0005C3185141220A200644195A4162
:104690009A4200D2491C01204002814203D31523D3
:1046A0000226F64302E014230326F6432020C51A0F
:1046B000A9401746AF40DA400A4320460399D84044
:1046C0000914731819055118039A3843D207514039
:1046D000AC4009D00122944006D30022401C514135
:1046E000002C01D1400840001E4A934212D30122FF
:1046F00003989206904207DB0520400709181A48E4
:104700000143C012414004E0032040070818C10FD4
:10471000C907002009B0F0BD0020F107FAE705182D
:104720000C464C4111486D42A04115D394181A46CD
:104730005A410E48644290410ED301204A00400580
:10474000824209D35A00824206D35940C90F084A0F
:10475000C90700201143DDE700200649DAE7000021
:104760000000FF07FE070000FFFFFF7F0000E0FFE3
:104770000000F07F0000F87F754600F025F8AE4697
:10478000050069465346C008C000854618B020B5EC
:10479000FCF7A0FC60BC00274908B6460026C0C54F
:1047A000C0C5C0C5C0C5C0C5C0C5C0C5C0C5403DE9
:1047B00049008D46704710B50446C046C0462046A5
:1047C000FCF767FC10BD000000487047641400202F
:1047D00001491820ABBEFEE726000200704770B505
:1047E0008C180578401C6B075B0F01D10378401CC7
:1047F0002A1106D10278401C03E00678401C0E7096
:10480000491C5B1EF9D12B0705D40023521E0DD481
:104810000B70491CFAE70378401CCB1A921C03E08A
:104820001D780D70491C5B1C521EF9D5A142D8D3CE
:10483000002070BD30B47446641E2578641CAB4201
:1048400004D3635D5B00E31830BC18471D46F8E7EE
:10485000704800100000002084020000DE470010B5
:104860001049001084020020441800005C10001061
:104870008D2F48FEE70411CA4710E904A920290C2E
:10488000092204092A2C0924041A20045A2E04415E
:104890003201320213C310331004320532063207DC
:1048A00032083209320A1AC520320C320D1AC70CEE
:1048B0001373311B10CB086904CB5F2E102904320F
:1048C00018690C139B350C1010333624E90413912E
:1048D0003A1B10C5040B1C033C2841580BBACDC32E
:1048E000E6B9B4BFECCBD90B5BC2FD0B7BCDB016E8
:1048F0003BCDB01617CEDEB2D9D7F70595D4DDCDB6
:10490000A308082C01020304050607342201000055
:0400000510001019BE
:00000001FF
